:020000040000fa
:0200000426f0e4
:1000000004f19fe500f19fe5fcf09fe5f8f09fe526
:10001000f4f09fe500000000ecf09fe5e8f09fe5bc
:1000200000000fe11f00c0e3110080e300f021e1b8
:10003000d8d09fe507d0cde31f00c0e3120080e3d6
:1000400000f021e1c8d09fe507d0cde31f00c0e359
:10005000170080e300f021e1b8d09fe507d0cde3a1
:100060001f00c0e31b0080e300f021e1a8d09fe562
:1000700007d0cde31f00c0e31f0080e300f021e1c3
:1000800098d09fe507d0cde31f00c0e3130080e3c5
:1000900000f021e188d09fe507d0cde384009fe503
:1000a00084109fe584209fe5020051e104309034e4
:1000b00004308134fbffff3a74009fe574109fe524
:1000c0000020a0e3010050e104208034fcffff3a4f
:1000d0000606a0e30110a0e3001080e50000a0e305
:1000e000150f07ee510f11ee030b80e3510f01eed8
:1000f0000f06a0e3500f01ee0111a0e3101ae8ee85
:10010000b22000facc1e00fafeffffea2000f02623
:10011000a08df126408df126e08df126208ef1266e
:1001200020aef126209ef12674c2f02600002000a9
:100130003c0020000000f126e08cf12610b5054cb3
:10014000227832b9044b13b10448aff30080012385
:10015000237010bd0000f126000000000000000028
:1001600008b5034b1bb103490348aff3008008bd3a
:10017000000000000400f12600000000431e13f1ff
:10018000030f1bd810f47f4f1ad1c3b240f21c02e8
:10019000c2f2f1629268934214d240f21c02c2f29f
:1001a000f162d268282101fb03235a6a82420bd1f3
:1001b000da78002a08bf0023184670470023fbe7bf
:1001c0000023f9e70023f7e70023f5e7036a2bb1e3
:1001d0001a6a026200225a751a621a70704710b5c4
:1001e000896940f21c02c2f2f162c1f307206c235c
:1001f00003fb0020c9b2c468282000fb01f1095ba1
:1002000003fb01231b6c03b910bd6c2303fb01240a
:100210000022114694f92c0007f08cf8236c226b15
:1002200040f2a001c2f2f16194f82c0006f0bffe8a
:1002300000232364e8e770b50546806940f21c019d
:10024000c2f2f161c0f307246c2202fb0414c6b2af
:10025000282303fb06f3e4681e191b5b02fb031251
:10026000926a904221d040f21c04c2f2f1646c22e6
:1002700002fb034463691b68002106f10c009847e8
:10028000ab69a362002386f8203096f91c00b0f118
:10029000ff3f09d0737f6bb9c0b200f01f0301218b
:1002a0009940400906f0dbfb70bd96f82020002a3b
:1002b000ebd0d8e7c0b200f01f03012199404009fc
:1002c00006f0c6fbf0e72de9f0410446816940f2f3
:1002d0001c02c2f2f162c1f307256c2303fb052562
:1002e000c8b2282101fb00f1e8680f180d5a03fb82
:1002f000052300221a645a642269e3689a4271d382
:1003000040f21c00c2f2f1606c2101fb0501d31a1e
:100310000b6440f21c03c2f2f1636c2606fb053647
:10032000224640f2df11c2f2f06196f82c0006f08e
:1003300035fe224640f23161c2f2f06196f82d009e
:1003400006f02cfebb69002b56d0082b66d840f275
:100350001c03c2f2f1636c2606fb05364ff4006104
:1003600096f92d0006f0f5ff4ff4006196f92c0088
:1003700006f0efff2369002b64d140f21c08c2f2a3
:10038000f1686c2707fb05860022114696f92d00bf
:1003900006f0d0ff736c0022726432463c32716bff
:1003a00096f82d0006f003fee368002b60d140f2c2
:1003b0001c02c2f2f1626c2303fb052500221146e8
:1003c00095f92c0006f0b6ff2b6c00222a642a6bec
:1003d00040f2a001c2f2f16195f82c0006f0e7fdb1
:1003e000bde8f08140f21c00c2f2f1606c2101fb1b
:1003f00005019b1a4b648ce740f21c03c2f2f163c7
:100400006c2606fb0536002196f92d0006f0a1ffab
:10041000002196f92c0006f09cffabe740f21c038c
:10042000c2f2f1636c2606fb05364ff4805196f953
:100430002d0006f08eff4ff4805196f92c0006f047
:1004400088ff97e740f21c03c2f2f1636c2606fbbb
:1004500005364ff48022002196f92d0006f06aff40
:1004600023696268716b96f82d0006f0a0fd9be78a
:1004700040f21c03c2f2f1636c2606fb0536002233
:100480004ff4803196f92c0006f054ff736c73b171
:10049000236940f21c02c2f2f1626c2101fb0525c6
:1004a0002a6ba16895f82c0006f081fd98e7e368b7
:1004b000efe770b590f82630002b5cd190f86930ea
:1004c000012b01d0002557e00446002380f8693055
:1004d000866d90f92c30b3f1ff3f1ed090f92d308e
:1004e000b3f1ff3f19d035782db1307906f065ffb3
:1004f00084f83a0040e006f039ff0546307c06f00b
:100500005cff84f83900307d06f057ff84f838002e
:10051000284606f02fff01252ee035782db13079e1
:1005200006f04bff84f8570026e006f01fff054653
:100530007068b0f1ff3f0cd1b068b0f1ff3f0ed151
:10054000f068b0f1ff3f10d1284606f013ff0125f7
:1005500012e0c0b206f031ff84f85400ece7c0b2fc
:1005600006f02bff84f85500eae7c0b206f025ff3d
:1005700084f85600e8e70125284670bd90f826303b
:1005800003b1704770b50446856d90f92c30b3f116
:10059000ff3f1dd090f92d30b3f1ff3f18d02b78dd
:1005a0002bb190f83a10287906f01eff17e006f0fc
:1005b000ddfe064694f83910287c06f015ff94f805
:1005c0003810287d06f010ff304606f0d3fe06e016
:1005d0002b7843b194f85710287906f005ff0123d2
:1005e00084f8693070bd06f0c1fe06466868b0f157
:1005f000ff3f0bd1a868b0f1ff3f0dd1e868b0f123
:10060000ff3f0fd1304606f0b5fee8e794f85410ee
:10061000c0b206f0e9feede794f85510c0b206f05e
:10062000e3feebe794f85610c0b206f0ddfee9e712
:100630002de9f04180460e46896940f21c02c2f263
:10064000f162c1f307246c2303fb0424c8b2282100
:1006500001fb00f1e0680f180d5a03fb05235b6cea
:10066000002b48d113466c2202fb053463699b685a
:1006700098470028fad197f91c00b0f1ff3f0ad043
:100680007b7f002b58d1c0b200f01f03012199409d
:10069000400906f0ddf940f21c00c2f2f1606c2363
:1006a00003fb05007a6ab3699a4254d1b8f1010f8d
:1006b0004bd0b8f1020f4bd096f91480f669fff7d2
:1006c00085fd7b68002b48d040f21c03c2f2f16329
:1006d0006c2404fb053494f82630013384f826306a
:1006e0007b68ba6831464046984794f82630013b0b
:1006f00084f8263031e040f21c08c2f2f1686c2721
:1007000007fb05840022114694f92d0006f012fe25
:100710002246636c3c32616b94f82d0006f047fc76
:10072000b0683169636c226b014494f82c0006f0c8
:100730003efc002363641ce0c0b200f01f030121f3
:100740009940400906f08bf9a5e701233375b3e71b
:10075000ff233375b0e7fff739fd40f21c02c2f208
:10076000f1626c2303fb05252c6a14b1637d012b18
:1007700001d0bde8f0812046fff75dfd02236375df
:100780002046fff7a0fdf4e70378002b60d090f936
:100790001030022b5cd170b50546066ab46940f290
:1007a0001c02c2f2f162c4f307236c2101fb032394
:1007b000e4b2db68282202fb043494f91c00b0f197
:1007c000ff3f09d0637fa3b9c0b200f01f0301212e
:1007d0009940400906f03cf9626ab3699a4211d027
:1007e0002846fff7f3fc2c6a14b1637d012b22d05d
:1007f00070bdc0b200f01f0301219940400906f00e
:100800002ef9e9e701233375f6692846fff7defc88
:100810006368002be7d095f82630013385f8263041
:100820006368a26831460120984795f82630013b5d
:1008300085f82630d7e72046fff7fdfc02236375d5
:100840006b695d6823696268e168a068a847cfe7c3
:100850007047000070b5002860d140f21c03c2f25e
:10086000f1631b78002b6ad140f21c03c2f2f163e2
:10087000012083f8680083f8690083f86a00187023
:100880000d685d618a6a9a614a6ada6100221a62b9
:100890000c69dc604c699c605a6098844ff0ff30b2
:1008a000986283f826205a7091f9040083f82c008e
:1008b00091f9054083f82d408e681e63ce685e6313
:1008c0008e699e64ce69de640e6a1e65c96a99658a
:1008d00083f860205a6640f2a002c2f2f162531e11
:1008e0001f32ff2103f8011f9342fbd1b0f1ff3ffc
:1008f00002d0b4f1ff3f09d1eb6840f21c01c2f213
:10090000f16140f28970c2f2f060984740f21c0336
:10091000c2f2f16302221a74002070bd06f004fdd9
:1009200010b94ff0ff30f8e706f0f8fc4af6d411a2
:10093000c2f2f06106f005fc4ff0ff30ede706f083
:10094000f3fc10b94ff0ff30e7e706f0e7fc03498e
:1009500006f0f7fb4ff0ff30dfe700bfeca9f02611
:1009600038b550b940f21c03c2f2f16393f8683015
:10097000012b10d04ff0ff3038bd06f0d5fc10b978
:100980004ff0ff30f8e706f0c9fc534906f0d9fbf9
:100990004ff0ff30f0e740f21c03c2f2f163002297
:1009a00083f8682093f91030022b61d140f21c03c8
:1009b000c2f2f1631b78002b5ad040f21c03c2f242
:1009c000f1635b78002b66d140f21c03c2f2f16345
:1009d0005b68002b69d140f21c03c2f2f1639d6891
:1009e000002d6fd040f21c03c2f2f163da681046aa
:1009f000d3784bb1283200230133ab4262d010468a
:100a00002832c478002cf7d10122c27011f0080fef
:100a100005d040f21c02c2f2f1620124547040f28f
:100a20001c02c2f2f162546801345460948cdbb24f
:100a300043ea04434362938c01339bb24ff6ff7247
:100a4000934208bf012340f21c02c2f2f162938478
:100a5000012382f8683041f0040181700023436073
:100a60008360ff22027780f820300380406a83e7aa
:100a700006f05afc48b940f21c03c2f2f1630122ad
:100a800083f868204ff0ff3076e706f047fc134903
:100a900006f057fbefe740f21c03c2f2f1630122bc
:100aa00083f868204ff0ff3066e711f0080f92d00e
:100ab00040f21c03c2f2f163012283f868204ff078
:100ac000ff3059e740f21c03c2f2f163012283f8c0
:100ad00068204ff0ff304fe724aaf0263caaf0260a
:100ae000f8b50f461646fff749fb90b1054640f2b0
:100af0001c03c2f2f16304886c2202fb043420461a
:100b0000fff7d7fc78b16f60ae602046fff736fd87
:100b1000f8bd06f009fc0028fad006f0fffb0749f3
:100b200006f00ffbf4e706f0fffb0028f0d006f01c
:100b3000f5fb034906f005fbeae700bf58aaf026db
:100b400090aaf0262de9f04f83b00d9e002e00f004
:100b5000f780009315460f46019104464ff0ff338e
:100b60003360fff70bfb8146002800f0e980002d81
:100b70007bd0002f79d0b9f800a040f21c02c2f25d
:100b8000f1626c2303fb0a2393f8603053b140f207
:100b90001c02c2f2f1626c2303fb0a23db6da34249
:100ba00040f0ce804ff06c0b0bfb0afb40f21c08b0
:100bb000c2f2f168d8444046fff77bfc00285cd0c5
:100bc000b9f800c040f21c02c2f2f1626c2303fbd0
:100bd0000c239f69d869002800f0b9803b785bb18d
:100be00007f1240200230133984200f0b080174639
:100bf00012f8241b0029f6d101223a7000223a6231
:100c000040f21c02c2f2f1626c2101fb0c21888cc3
:100c100099f80020120242ea0042dbb21343fb6162
:100c20008b8c01339bb24ff6ff72934208bf0123b6
:100c300040f21c01c2f2f1616c2202fb0c1cacf808
:100c40002430009b7b60019bbb6001237b750023ec
:100c50003b75bc61d9f81830fbb1082b33d86d0057
:100c6000fd600c9b5b003b611ae00c9b002b67d086
:100c7000009b002b7ff47faf62e006f055fb00285d
:100c80005ed006f04bfb364906f05bfa58e006f002
:100c900045fb344906f055fa5de0fd600c9b3b6175
:100ca000fb693360d8f820309bb140f21c03c2f2dc
:100cb000f1639b44dbf82030002b3ed01a6a002af7
:100cc00037d11a4638e0ad00fd600c9b9b003b61bc
:100cd000e6e7c8f8207002237b753846fff7abfac9
:100ce00040f21c02c2f2f1626c2303fb0a2393f967
:100cf0002c30b3f1ff3f0bd040f21c02c2f2f16284
:100d00006c2303fb0a2393f92d30b3f1ff3f1ad173
:100d100040f21c03c2f2f1636c2202fb0a3adaf8d9
:100d200014305c683b697a68f968b868a04704e0e9
:100d30001a46136a002bfbd117624046fff71efcd0
:100d400003b0bde8f08f3846fff7bdfaf5e706f0cf
:100d5000ebfa00289bd14046fff710fcf0e700bffc
:100d600090aaf026acaaf02600b583b00193002328
:100d70000093fff7e7fe03b05df804fb10b5ccb2bb
:100d8000024646f24701c2f2f061204605f07cfec1
:100d900004f01f0301219940600905f067fe10bdb2
:100da00008b5c0b200f01f0301219940400905f0c9
:100db00064fe08bd48f24003cff6034304225a61a3
:100dc000704748f24003cff6034304221a6170478c
:100dd00048f2c003cff603434ff000721a61704728
:100de00048f2c003cff603434ff000725a617047d8
:100df000012800d0704740f2c403c2f2f1639b683f
:100e00008b420ed040f2c403c2f2f163db688b4226
:100e1000f0d140f2c403c2f2f1635a7c01325a7439
:100e2000e8e740f2c403c2f2f1631a7c01321a749b
:100e3000704710b540f2c404c2f2f16404f1080333
:100e40000a4601466068fff78fffa368b3f1ff3fd2
:100e500015d040f2c404c2f2f16401e006f08afa4f
:100e600006f084fa237c002bf8d040f2c402c2f2d0
:100e7000f162013b137406f07dfa012010bd0020e1
:100e8000fce710b582b040f2c404c2f2f16404f190
:100e90000c03019300910346012240f2c001c2f20b
:100ea000f1616068fff74efee368b3f1ff3f16d0d3
:100eb00040f2c404c2f2f16401e006f05bfa06f00d
:100ec00055fa637c002bf8d040f2c402c2f2f16202
:100ed000013b537406f04efa012002b010bd002011
:100ee000fbe738b506f042fa40f2c404c2f2f164fe
:100ef0000025257406f03efa06f038fa657406f00f
:100f000039fa6368b3f1ff3f0cd040f2c403c2f278
:100f1000f163002240f6f151c2f2f0615868fff728
:100f2000dffd38bd40f2c404c2f2f1640321208821
:100f3000fff716fd6060b0f1ff3fe6d106f0f4f96f
:100f40000028e2d006f0eaf94af6f821c2f2f06190
:100f500006f0aff8d9e740b1028840f2c403c2f20c
:100f6000f1631a804ff0ff325a60704710b506f0f7
:100f7000fdf940f2c404c2f2f164237c013323740e
:100f800006f0f8f906f0f2f9637c0133637406f0b9
:100f9000f1f910bd08b503f08dfe08bd08b5fff7e7
:100fa0001ffffff707ff642003f084fefff710ff29
:100fb0000a2003f07ffefff704ff0a2003f07afe09
:100fc00008bd704700b583b040f2d803c2f2f163a8
:100fd00000229a7001a941f2700000f099fc0346ca
:100fe00018b1184603b05df804fb019941f0020105
:100ff000019141f2700000f08ffc0346f1e708b563
:1010000040f2d803c2f2f1639b78e3b940f2d8030f
:10101000c2f2f1635b782bb940f2d803c2f2f163fc
:101020001b7853b940f2d802c2f2f162537801330f
:10103000dbb253700023184608bd01f0affd034634
:101040000028efd0f7e70023f5e740f2d803c2f21b
:10105000f1635b783bb140f2d802c2f2f16253789f
:10106000013bdbb253700020704708b540f2d80353
:10107000c2f2f1635b783bb140f2d802c2f2f16296
:101080005378013bdbb2537040f2d803c2f2f163f4
:101090005b7853b940f2d803c2f2f1631b780bb905
:1010a000002003e001f045fd00e0002008bd08b588
:1010b000fff7a5ff40f2d803c2f2f163c0ef500082
:1010c00043f90f0ac3ed040bc3ed060bc3ed080b88
:1010d00008bd00002de9f04f87b005460e46934647
:1010e0009a46109fbdf84490bdf8488040f2001425
:1010f000c2f2f16401e006f03df906f037f9237819
:10110000002bf8d040f20012c2f2f162013b1370e2
:1011100006f030f906f07f038df815308df8145085
:10112000002f3ad009f1080343449bb2adf81630c2
:1011300040f23c62934200f2fc80fff760ff0446fd
:10114000002840f0eb8000230393adf806300293b3
:10115000029b1d430295029b43ea06260296029bd0
:10116000bdf8162043ea02430293029941f28c0033
:1011700000f0d2fb0446a0b1fff767ff06f0f6f8d7
:1011800040f20013c2f2f1631a7801321a7006f0cd
:10119000f1f8204607b0bde8f08f0af108039bb2d2
:1011a000c4e700230293029b43f0020302930299d7
:1011b00041f2780000f0b0fb04460028dcd10023a7
:1011c0000393adf80630bdf806309bb2b3f57a7fd5
:1011d0003ed241f278044af60c35c2f2f06512e0d4
:1011e0000120fff7d7fe029b13f0020f26d0bdf8b7
:1011f000063001339bb2adf80630bdf806309bb225
:10120000b3f57a7f24d202a9204600f081fbf8b919
:10121000bdf806309bb2b3f5fa7fe4d3bdf80630d3
:101220009bb2b3f5fa7fdbd806f07ef80128d7d958
:1012300006f074f8294605f03cffd1e703a94ff406
:101240008060c0f2150000f063fb044600284fd117
:10125000039b002b4fd0039b04930498082205a9fd
:1012600000f08bfb0446002886d1049b08330493ce
:10127000bbf1000f0bd004985246594600f07dfb9d
:10128000044600287ff478af049b5344049387b14d
:10129000049aa8eb0a031344049304984a46394677
:1012a00000f06bfb044600287ff466af049b4b44c0
:1012b0000493039b9b000293029b43f0020302935f
:1012c000029941f26c0000f027fb044600287ff4ed
:1012d00053affff7cafe044606f048f840f2001389
:1012e000c2f2f1631a7801321a7006f043f850e73f
:1012f0000023039340e7fff7b8fe044606f014f816
:10130000032802d86ff0020438e706f007f82246f7
:10131000114905f0cefe6ff002042fe706f004f845
:1013200000283ff42baf05f0f9ff0c4905f0c1fe92
:1013300024e705f0f9ff10b94ff0ff341ee705f080
:10134000edff40f23c63bdf81620054905f0b1fe03
:101350004ff0ff3412e700bf20abf02640abf02681
:1013600064abf02630b587b040f20014c2f2f164ed
:1013700001e005f0ffff05f0f9ff2378002bf8d01e
:1013800040f20012c2f2f162013b137005f0f2ff6d
:1013900003a941f2700000f0bbfa0446002840f0b7
:1013a0009281039911f0010f00f0748121f0010185
:1013b000039141f2700000f0affa0446002840f0bb
:1013c0006c8140f2d803c2f2f16301229a70039d4e
:1013d000c5f38b05002d00f04f810023059305a96f
:1013e00041f2840000f094fa0446002848d10598a0
:1013f00040f2d803c2f2f16358609d60042204a950
:1014000000f08efa0446002845d1bdf812309d4206
:1014100002d0eb1a042b49dc05f0a8ff40f20013c0
:10142000c2f2f1631a7801321a7005f0a3ff9df839
:101430001030012b51d0022b7ed0042b00f09b806a
:10144000062b00f0b780072b00f0d380052b40f06f
:10145000fb8040f2d803c2f2f1635b6a002b00f01c
:10146000e88040f2d803c2f2f1635b6abdf8121063
:101470000839059a083289b29df81100984740e072
:1014800005f052ff002800f0088105f047ff984959
:1014900005f00ffe01e105f047ff002800f0fd8098
:1014a00005f03cff934905f004fef6e005f03cff33
:1014b00010b96ff00504f0e005f030ff9df8113031
:1014c00001939df810300093bdf812302a468a49e6
:1014d00005f0effd6ff00504dfe040f2d803c2f243
:1014e000f163db68f3b140f2d803c2f2f163db6869
:1014f000bdf812100839059a083289b29df811001a
:10150000984740f2d803c2f2f1639b78002b00f0b9
:10151000cf8005f009ff002840f0a480fff752fdbe
:101520000446c5e005f000ff0028ead005f0f6fe0d
:10153000724905f0befde4e740f2d803c2f2f16360
:101540001b6973b140f2d803c2f2f1631b69bdf8a5
:1015500012100839059a083289b29df8110098478f
:10156000cfe705f0e1fe0028cbd005f0d7fe6449b7
:1015700005f09ffdc5e740f2d803c2f2f1635b6955
:1015800073b140f2d803c2f2f1635b69bdf8121087
:101590000839059a083289b29df811009847b0e7da
:1015a00005f0c2fe0028acd005f0b8fe554905f0a4
:1015b00080fda6e740f2d803c2f2f1631b6a73b163
:1015c00040f2d803c2f2f1631b6abdf81210083969
:1015d000059a083289b29df81100984791e705f005
:1015e000a3fe00288dd005f099fe474905f061fd66
:1015f00087e740f2d803c2f2f1639b6973b140f20e
:10160000d803c2f2f1639b69bdf812100839059a3c
:10161000083289b29df81100984772e705f084fe00
:1016200000283ff46eaf05f079fe384905f041fd22
:1016300067e705f079fe00283ff463af05f06efe22
:10164000334905f036fd5ce705f06efe10b96ff02a
:1016500005042de005f062fe2e4905f02afd6ff02d
:10166000050425e005f05afe9df811309df8102084
:10167000294905f01efd51e705f056fe10b96ff03f
:1016800001040ae005f04afe244905f012fd6ff05e
:10169000010402e005f048fe70b905f067fe40f273
:1016a0000013c2f2f1631a7801321a7005f062fe7b
:1016b0009cb9204607b030bd05f030fe039a1849aa
:1016c00005f0f7fce9e705f02ffe0028e5d005f06e
:1016d00025fe144905f0edfcdfe705f025fe0028a6
:1016e000e7d005f01bfe22460f4905f0e2fce0e7db
:1016f00098abf026c0abf026dcabf0261cacf02695
:1017000040acf02664acf02688acf026acacf026f9
:10171000d0acf026f4acf02610adf02640adf026ab
:1017200054adf02670adf02698adf02670b51d468c
:1017300078b31446034661b35ab340f2d802c2f2fa
:10174000f1629268944238d840f2d802c2f2f16253
:101750005268824245d8261840f2d802c2f2f1629d
:1017600050689268024496423bd82246184600f0e0
:10177000d7f8034688b940f2d802c2f2f162516844
:1017800092680a44964200d03db1fff71bfc034625
:1017900003e025b1fff716fc0346184670bd05f0bf
:1017a000c3fd10b96ff00b03f7e705f0b7fd14495f
:1017b00005f07ffc6ff00b03efe705f0b5fd10b906
:1017c0006ff00b03e9e705f0a9fd40f2d803c2f280
:1017d000f1639b6822460b4905f06bfc6ff00b032d
:1017e000dbe705f0a1fd10b96ff00b03d5e705f0bd
:1017f00095fd054905f05dfc6ff00b03cde700bfdb
:10180000c8adf026ecadf02634aef026431e062b14
:1018100036d8dfe803f00b0419122e20270040f21f
:10182000d803c2f2f16319610020704740f2d80377
:10183000c2f2f163d9600020704740f2d803c2f2cf
:10184000f16359610020704740f2d803c2f2f1639e
:10185000d9610020704740f2d803c2f2f1631962e7
:101860000020704740f2d803c2f2f1639961002072
:10187000704740f2d803c2f2f1635962002070470a
:1018800010b5044605f050fd40b105f047fd224675
:10189000044905f00efc6ff00b0010bd6ff00b005b
:1018a000fbe700bf7caef02608b540f2d803c2f2d9
:1018b000f163c0ef500043f90f0ac3ed040bc3ed11
:1018c000060bc3ed080b05f051fd40f20013c2f208
:1018d000f16301221a7005f04dfd40f6c371c2f2aa
:1018e000f0610320fff792ff002008bd08b5fff765
:1018f00055fb0120fff74efb002008bd002070477c
:1019000008b501f009fd08bd08b501f0c8fd08bd26
:1019100008b501f031fd08bd08b501f0c9fd08bded
:101920002de9f0478a4615464cf2f813c2f2f063ef
:101930001f88083fbfb2ba421cd93e460446a1ebfd
:101940000009a7eb00083a4609eb0401204601f024
:10195000c1fe034658b9ad1b08eb04013444ae4246
:10196000f1d3aab25144204601f0b4fe0346184612
:10197000bde8f08704460021f3e72de9f0478a46e9
:1019800015464cf2f813c2f2f0631f88083fbfb24d
:10199000ba421cd93e460446a1eb0009a7eb000859
:1019a0003a4609eb0401204601f023ff034658b9eb
:1019b000ad1b08eb04013444ae42f1d3aab251444a
:1019c000204601f016ff03461846bde8f08704469e
:1019d0000021f3e730b585b000230393c0ef10007a
:1019e000cded010b00284ad00446c0ef500003465d
:1019f00043f90d0a43f90d0a43f90f0703a908201b
:101a0000c0f20c00fff784ff0346002838d103988a
:101a1000002838d0082201a940f44030fff780ffa9
:101a2000034668bbbdf80800039078b3282221461e
:101a300040f44030fff774ff034608bb2279a179d8
:101a400001f00f0141ea022160790001c0b2e5799d
:101a5000627a02f00f0242ea0522247a2401e4b2fb
:101a60002243014315d0bab141f27730824216d8f1
:101a700041f27632914298bf6ff00c0300e00023f0
:101a8000184605b030bd6ff00b03f9e76ff00b039c
:101a9000f6e76ff00b03f3e76ff00b03f0e76ff07f
:101aa0000c03ede738b50020fff720ff0446b8b976
:101ab00001f054fc00f0c3ff000d0005b0f5401f1d
:101ac0001bd101f073fd05f02ffc012818d800216f
:101ad0004ff44070c0f20200fff71eff204638bdf1
:101ae00005f022fc0028f9d005f018fc4af68861c0
:101af000c2f2f06105f0ddfaf0e701f09bf8e0e7f3
:101b000005f00cfc054600f09aff02460249284603
:101b100005f0cffadbe700bfa8aef02638b501f03c
:101b20001dfc0020fff7e2fe48b901f03ffd04462e
:101b300098b905f0f9fb012819d8204638bd0446ac
:101b400005f0f2fb0028f8d005f0e8fb4af68861c2
:101b5000c2f2f06105f0adfaefe705f0e5fb002811
:101b6000ebd005f0dbfb074905f0a3fae5e705f04c
:101b7000d5fb054600f063ff02460349284605f001
:101b800098fadae7b8aef026a8aef02638b580b1fc
:101b90000478631edbb2042b28bf0124204601f029
:101ba0007df8054638b1fff7a9fe01f0defb2846b7
:101bb00038bd0124f2e7204601f01af90546002855
:101bc000f1d1023ce4b2012cf1d900f00cff054642
:101bd0000028ecd005f0a8fb0028e4d005f09efb1f
:101be000014905f066fadee7d8aef02610b501f03f
:101bf0006df970b9fff784fe002002f08dff0446f6
:101c000090b9fff77bfe0446c0b901f0aefb204659
:101c100010bd044605f088fb0028f8d005f07efbd7
:101c20000b4905f046faf2e705f07efb0028eed0fe
:101c300005f074fb074905f03cfae8e705f074fb92
:101c40000028e4d005f06afb034905f032fadee72c
:101c5000f8aef02618aff02640aff0262de9f0419f
:101c60009eb015462c2835d004461b2845d00628a2
:101c700056d00e283ed0322865d03d2876d02f2869
:101c800000f08780342800f09d80112800f0c38088
:101c9000132800f0e180042800f0f380652800f0ac
:101ca0000581092800f017812a2800f029812728ba
:101cb00000f03b81202800f04d811d2800f06c8150
:101cc00005f032fbb0b105f029fb2246b14905f021
:101cd000f0f90fe00023042203a92846fff726fdb0
:101ce00040b940f22013c2f2f1631b6813b103a99b
:101cf0002c2098471eb0bde8f0810023082203a9dc
:101d00002846fff713fd0028f4d140f22013c2f259
:101d1000f1631b68002bedd003a91b209847e9e76e
:101d20000123302203a92846fff700fd0028e1d156
:101d300040f22013c2f2f1631b68002bdad003a932
:101d400006209847d6e70023182203a92846fff764
:101d5000edfc0028ced140f22013c2f2f1631b68e3
:101d6000002bc7d003a932209847c3e701230022e4
:101d700011462846fff7dafc0028bbd140f22013b9
:101d8000c2f2f1631b68002bb4d000213d209847bc
:101d9000b0e764242246002103a806f0aefd00232c
:101da000224603a92846fff7c1fc0028a2d140f231
:101db0002013c2f2f1631b68002b9bd003a92f20d4
:101dc000984797e70023042203a92846fff7aefcb3
:101dd00000288fd105f0a8fa01280ad840f2201374
:101de000c2f2f1631b68002b84d000213420984795
:101df00080e705f093fa039ad3b20193c2f3072365
:101e00000093c2f30743120e4af65c71c2f2f0610e
:101e100005f04ff9e2e740f22812c2f2f162002326
:101e20001370042203a92846fff780fc00287ff4e2
:101e300061af9df80c2040f22613c2f2f1631a70d4
:101e400040f22013c2f2f1631b68002b3ff452af43
:101e500003a9112098474de700232c2203a9284607
:101e6000fff764fc00287ff445af40f22013c2f274
:101e7000f1631b68002b3ff43daf03a91320984783
:101e800038e7002304221ca92846fff74ffc00284e
:101e90007ff430af40f22013c2f2f1631b68002bd5
:101ea0003ff428af1ca90420984723e7002304220d
:101eb0001ca92846fff73afc00287ff41baf40f22c
:101ec0002013c2f2f1631b68002b3ff413af1ca96f
:101ed000652098470ee70123642203a92846fff7ef
:101ee00025fc00287ff406af40f22013c2f2f16314
:101ef0001b68002b3ff4feae03a909209847f9e6c2
:101f00000123042203a92846fff710fc00287ff4d0
:101f1000f1ae40f22013c2f2f1631b68002b3ff4d4
:101f2000e9ae03a92a209847e4e60023042203a986
:101f30002846fff7fbfb00287ff4dcae40f22013bd
:101f4000c2f2f1631b68002b3ff4d4ae03a9272033
:101f50009847cfe60023082203a92846fff7e6fbaf
:101f600000287ff4c7ae0123bdf81020039905f1c6
:101f70000800fff7dbfb00287ff4bcae40f2201323
:101f8000c2f2f1631b68002b3ff4b4ae03a920201a
:101f90009847afe67caff0260023042202a928462a
:101fa000fff7c4fb00287ff4a5aebdf80a80bdf89a
:101fb0000830adf80e3040f21c13c2f2f1631b681a
:101fc000002b3ff497ae40f21813c2f2f1631b6886
:101fd000002b3ff48fae40f22413c2f2f1631b8852
:101fe000002b3ff487ae40f22417c2f2f16740f2b3
:101ff0001814c2f2f16440f21c16c2f2f1661ee03f
:102000000023adf80c20216808eb0500fff78efbdc
:1020100000287ff46faebdf80c30bdf80e20d21a48
:10202000adf80e2043441ffa83f8336803aa2168f1
:102030001d209847bdf80e30002b3ff45baebdf875
:102040000e303a889342dbd81a460123d9e700bf05
:1020500038b5049c002b49d02c3292b21d465b68e7
:10206000002b46d02b7a202b46d8002c47d0a31c1f
:10207000c0ef500043f90f0a04f1120343f90f0aad
:1020800004f1200343f90f0a2280012807d043b24c
:102090004bb1022836d1a37843f00203a370a37892
:1020a00043f00103a3706b7aff2b1dd0013bdbb221
:1020b0000d2b2ad8e3704b1edbb2032b28d884f8f3
:1020c0002c102a7a22716968601d06f00bfc2b68bf
:1020d0000bb3012384f825302b681a68c4f8262036
:1020e0009b88638500200fe0e370e4e76ff00e004b
:1020f0000ae06ff00e0007e06ff00e0004e06ff0f2
:102100000b0001e06ff00e0038bd6ff00e00fbe732
:102110006ff00e00f8e70020f6e710b5fff7c2fcfd
:10212000044608b1204610bd00f05dfc40f22713c4
:10213000c2f2f16301221a70f4e708b5fff7eefc72
:10214000034628b940f22712c2f2f1620121117050
:10215000184608bd10b58eb001238df80f30002849
:1021600000f0b48040f22012c2f2f1620168116006
:1021700040f21c12c2f2f1628168116040f2181242
:10218000c2f2f162c168116040f22412c2f2f1623f
:10219000018a1180837c13b104238df80f3040f243
:1021a0002813c2f2f16300221a700df10f00fff73d
:1021b000edfc044610b120460eb010bd40f22713ce
:1021c000c2f2f16302221a70fff76efb044640b1bf
:1021d00040f22713c2f2f16300201870fff706fdea
:1021e000e9e741f65d41c2f2f0610120fff70efb25
:1021f00004a8fff7effb044605f096f8012820d865
:1022000005f092f8012822d805f08ef801282ed882
:1022100005f08af8012834d805f086f801283dd861
:1022200005f082f8012842d814f10d0fc3d105f052
:102230007bf80028bfd005f071f8264904f039ff7b
:10224000b9e705f06bf8244904f033ffd8e705f04f
:1022500065f8bdf8303001939df8163000939df875
:1022600015309df814201d4904f023ffcce705f03c
:1022700055f80df126030df11a02194904f019ff62
:10228000c6e705f04bf89df8193000939df818301b
:102290009df81720134904f00cffbde705f03ef848
:1022a000072300931322104904f003ffb8e705f059
:1022b00035f84af65c71c2f2f06101f5ae7301f5d2
:1022c000b47201f5ba7104f0f4feade76ff00b04df
:1022d00071e700bff0b0f0261cb0f02638b0f02651
:1022e0005cb0f0267cb0f026a0b0f02610b540f22d
:1022f0002713c2f2f16300241c702046fef7d7febc
:102300002046fff773fc204610bd08b5fff72af8fa
:1023100008bd00b585b000220292019200921346da
:1023200029210120fef7d6fe05b05df804fb00b5bb
:1023300091b004ab00930b4600220121fff788fe09
:10234000034618b1184611b05df804fb0023029350
:1023500001930093302304aa3b210120fef7bafe2b
:102360000346efe7f0b591b0002a78d016460b4649
:1023700004aa00926c220221fff76afe054610b102
:10238000284611b0f0bd6c2006f096f904460028ee
:1023900062d06c22002106f0b0fa316800293fd0eb
:1023a00073682bb16ff00e05204606f0f3f8e7e7ef
:1023b0002046402300f8013b8d1c04f1210706460e
:1023c0001be0273bdbb21b01dbb2337012f8012ca0
:1023d000303ad2b2092a0ad942f02002a2f1310cd5
:1023e0005ffa8cfcbcf1050f17d8273ad2b2134420
:1023f00006f8013b0235be4234d02a4615f8023cad
:10240000303bdbb2092bded943f02003a3f1310cc2
:102410005ffa8cfcbcf1050fd3d96ff00e05c3e752
:102420007168b1b1327a402a02d96ff00e05bbe76c
:10243000204600f8012b06f055fa302302936c2257
:102440000192009404aabb210120fef743fe054639
:10245000aae76ff00e05a7e76ff0020590e76ff0af
:102460000e058de7227806f03dfae6e72de9f0410a
:1024700090b0002a7fd014461368fbb16368002b2c
:102480007cd0a368002b7cd0a589e689ab19642b8e
:102490007ad8228ab2f5807f79d80b4635442c351c
:1024a0001544adb204aa00922a460421fff7d0fddc
:1024b000074628b1384610b0bde8f0819381dde7ca
:1024c000284606f0f9f80646002851d000f12c08fd
:1024d0002a46002106f011fa01233370a37c0bb1c8
:1024e00081233370e37c1bb1337843f040033370b6
:1024f0002c23f3704cf2fc13c2f2f0631b6873627e
:1025000006f10c0c40f20417c2f2f1670fcface8f1
:102510000f003b68ccf8003000237370216829b3aa
:10252000277b77703a46404606f0dcf94744a27ba9
:10253000b2706168384606f0d5f9b0783844a0eb3f
:102540000808a6f80480228af280a16806f0caf979
:10255000302302930195009604aabb210120fef7c7
:10256000b9fd0746304606f015f8a3e74746dee713
:102570006ff002079ee76ff00e079be76ff00e0704
:1025800098e76ff00e0795e76ff00e0792e76ff090
:102590000e078fe72de9f04393b0002a00f0c080ca
:1025a00014461368002b32d06368002b00f0bb8008
:1025b000a368002b00f0ba80e368002b00f0b9801c
:1025c0002369002b00f0b880a28ae68a9319642b55
:1025d00000f2b580278bb7f5807f00f2b380658b62
:1025e000b5f5c66f00f2b1800b4632442c3215446b
:1025f00005eb4705adb206aa00922a460421fff773
:1026000027fd074628b1384613b0bde8f083938212
:10261000cae7b4f81a80a5eb0805adb2284606f063
:102620004bf80646002878d0c0ef1000cded040b23
:1026300000f12c092a46002106f05ff902233370cd
:10264000237f0bb182233370637f1bb1337843f058
:10265000400333702c23f3704cf2fc13c2f2f0638e
:102660001b68736206f10c0c40f20417c2f2f167aa
:102670000fcface80f003b68ccf80030002373703c
:10268000216800293cd0277d77703a46484606f0fd
:1026900029f94f44a27db2706168384606f022f9ec
:1026a000b3781f44a7eb0903b380228bf280a168a3
:1026b000384606f017f9f2881744e168384606f004
:1026c00011f9f3881f44a7eb0907bfb23781a6f8b9
:1026d0000a8001208df81000adf81470adf8168056
:1026e00008230293cdf804802269009204aabc2139
:1026f000fef7f0fc074628b1304605f04bff82e7b5
:102700004f46c7e7302302930195009606aabb21e6
:102710000120fef7dffc0746eee76ff0020772e7e5
:102720006ff00e076fe76ff00e076ce76ff00e07a4
:1027300069e76ff00e0766e76ff00e0763e76ff06b
:102740000e0760e76ff00e075de76ff00e075ae7c0
:1027500000b585b00023029301930093182302462d
:102760000a210220fef7b6fc05b05df804fb00b5b7
:1027700085b000284ff000020292019200921346a9
:1027800014bf0b210c210220fef7a4fc05b05df85c
:1027900004fb10b50446fef732fc034608b11846a8
:1027a00010bd204600f0c0fb03460028f7d1fef71d
:1027b0005cfc0346f3e700b587b08df814000023f6
:1027c000029301930093042305aa12210120fef72e
:1027d00081fc07b05df804fb40f22613c2f2f163fe
:1027e0001878704708b500f02af908bd40f22713a1
:1027f000c2f2f1631878704730b59db014460628d0
:102800001fd0072831d0012801d01db030bd0023d2
:10281000702269462046fef789ff0546002872d1de
:1028200040f22c13c2f2f1631a68002a6bd040f216
:102830003013c2f2f16370341c6069460120904786
:1028400061e00023042269462046fef76fff05463b
:10285000002858d140f22c13c2f2f1631b68002b00
:1028600051d06946062098474de00023082269466a
:102870002046fef75bff0546002838d1bdf804204e
:10288000bdf80600bdf802309df800107ab94cf290
:102890000022c2f2f06201241470984214bf002397
:1028a0000123032957d8dfe801f00d211b3f024423
:1028b0009a4214bf00230123032945d8dfe801f021
:1028c000021610344cf20022c2f2f0621278012a91
:1028d0000cd14cf20022c2f2f0620021117005e02e
:1028e0004cf20022c2f2f062022111705bb140f2a0
:1028f0002c13c2f2f1631b682bb14cf20021c2f21f
:10290000f06107209847002d3ff47faf04f00cfde5
:1029100000283ff47aaf04f001fd4bf2b821c2f277
:10292000f06104f0c6fb70e74cf20022c2f2f062e4
:102930001278022adad0042ad8d04cf20022c2f24d
:10294000f06203211170d1e74cf20022c2f2f06272
:102950001278022acad04cf20022c2f2f06204219c
:102960001170c3e710b540f22c13c2f2f163186086
:1029700040f23013c2f2f16300221a604cf20023dd
:10298000c2f2f06304221a7042f2f971c2f2f061ed
:102990000520fef73bff044608b9204610bd04f0b1
:1029a000c3fc0028f9d004f0b9fc2246014904f028
:1029b00080fbf2e7dcb2f02670b582b040f480759f
:1029c0004ff4a554002629462046fef7a5ff0196a0
:1029d00001a92046fef79cff0028f4d1019bab42e1
:1029e000f1d102b070bd00b583b00023019301a9fd
:1029f00041f20840fef78cff034618b1184603b0b9
:102a00005df804fb019941f48071019141f20840a5
:102a1000fef782ff03460028f0d101a94ff4d05001
:102a2000fef776ff03460028e8d1019941f4803192
:102a300001914ff4d050fef76fff0346dee710b56b
:102a400082b040f23413c2f2f1631c683cb140f230
:102a50003413c2f2f1631c68204602b010bd19465f
:102a60004ff48050fef754ff30b140f23413c2f2fd
:102a7000f16300221a60efe701a941f2f430fef79a
:102a800047ff00bb40f23413c2f2f1631b684ff4fe
:102a90002872c0f2100293421cd04ff42c72c0f284
:102aa0001002934223d0f022c0f2100293422fd0a2
:102ab00040f23412c2f2f162136823f4702343f43b
:102ac000a0231360c3e740f23413c2f2f163002283
:102ad0001a60c1e7019b012bead040f23413c2f225
:102ae000f16340f2a122c0f210021a60e0e7019bfc
:102af000032bddd0042b40f23413c2f2f1630cbf80
:102b000040f2b12240f2b222c0f210021a60cfe7c6
:102b100040f23411c2f2f1614ff46c10fef7f8fe8e
:102b20000028c5d040f23413c2f2f16300221a60cb
:102b300092e710b582b0102401a92046fef7e8fe06
:102b40000346f8b9019b13f0010ff5d101a901204b
:102b5000fef7defe0346a8b9019911f0020f07d077
:102b600021f0020101910120fef7d6fe034648b98b
:102b700001a90b20fef7ccfe034618b9019911f00c
:102b8000010f02d1184602b010bd21f001010191e0
:102b90000b20fef7c1fe0346f4e70000f0b583b05a
:102ba0000023019301210b20fef7b6fe044610b16d
:102bb000204603b0f0bd02210120fef7adfe044621
:102bc0000028f5d10320fef7e5f905250f26022799
:102bd00001a93046fef79cfe044670b9019b13f034
:102be000040f21d13846fef7d5f9013df0d104f0ac
:102bf0009bfb88b96ff00304dae704f095fb00282b
:102c0000d6d004f08bfb019b22464bf29431c2f2ea
:102c1000f06104f04efacbe704f080fb044904f0c5
:102c200048fa6ff00304c3e7fef76afec0e700bf8f
:102c3000acb3f02630b583b00023019301a941f273
:102c40001810fef765fe0446019941f0010101915b
:102c500041f21810fef760fe0444e4b201a94ff4fb
:102c6000a050fef755fe0444e4b2019911f4806fc0
:102c700002d160b203b030bd21f4806101914ff404
:102c8000a050fef749fe054601a94ff4a050fef7fb
:102c90003ffe2844044460b2ece700002de9f04117
:102ca000804641f2140401252046fef72dfe00283f
:102cb00003db2846fef76ef9f6e740f2bc70c0f27f
:102cc0000200fef721fe10f0010f34d0b8f1020f20
:102cd00052d0b8f1030f61d0b8f1040f6fd041f2b8
:102ce0007731c1f2303141f28c00fef715fe00243d
:102cf000fff7a5fec0f30b00b0f5687f2cbf44f0d2
:102d000002002046fff758fe04f00efb012860d8b1
:102d100042f66171cef652714ff00c10fef7fcfdd9
:102d20000020bde8f08104f0f9fa2f4904f0c1f960
:102d30006ff00400f5e70120fef72cf94ff00c10be
:102d4000fef7e2fd4ff400544df29e05c1f2ad05d1
:102d500001274ff00c16a842b8d03846fef71af9f2
:102d60003046fef7d1fd013cf5d104f0ddfa032831
:102d7000d9d86ff00400d4e74df27d51c3f61c4161
:102d800040f2ac70c0f20200fef7c6fd4ff48011b5
:102d900041f28c00fef7c0fd0024a9e74df27d5101
:102da000c3f61c4140f2ac70c0f20200fef7b4fd65
:102db000002141f28c00fef7affd002498e741f2bc
:102dc0007731c1f2303141f28c00fef7a5fd80244d
:102dd0008ee704f0a3fa41f27732c1f230320349b0
:102de00004f067f994e700bfccb3f026f4b3f02603
:102df0002de9f04385b041f28c03039342f2366330
:102e0000c0f2532302930238c0b2012806d94ff40e
:102e1000005400200225dff8b08027e040f2ac73b8
:102e2000c0f2020303934cf2c313cdf25d7302931d
:102e3000ede704f073fa064641f28c00fef764fdfc
:102e4000074641f28c00fef75ffd81464ff4a55026
:102e5000fef75afd00904b463a464146304604f094
:102e600028f90398fef750fd013c0ad0029b8342eb
:102e700016d02846fef78ef804f056fa0328f0d94b
:102e8000d7e704f051fa032802d86ff004000fe0ee
:102e900004f044fa0b4904f00cf96ff0040007e069
:102ea000029a42f23663c0f253239a4203d00020c2
:102eb00005b0bde8f083002141f28c00fef72cfd47
:102ec0000020f5e71cb4f02610b4f02610b582b04f
:102ed0000023019301a94ff4a050fef719fd60b93a
:102ee000019921f4806101914ff4a050fef714fd87
:102ef000044668b9204602b010bd044604f014fa36
:102f00000028f7d004f00afa064904f0d2f8f1e7f5
:102f100004f00afa0028edd004f000fa014904f0a8
:102f2000c8f8e7e73cb4f02610b586b00446c0ef19
:102f30001000cded010b05a90820c0f20c00fef732
:102f4000e7fc034610b1184606b010bd082201a9df
:102f5000059840f44030fef7e3fc03460028f2d128
:102f6000bdf804000590062203a940f44030fef7a6
:102f7000d7fc034603982060bdf81020a280e2e74a
:102f800070b584b09df820408df80400c3380c283b
:102f900000f2a380dfe800f05f33a1a14d4d780778
:102fa000a1a1a1a144000b0c8df805300b0a8df8ee
:102fb00006308df80710052140f23813c2f2f16394
:102fc0001b78002b75d14d1e01ab5e197f204bf68f
:102fd0001c34c2f2f06413f8012b82ea4002a05cb8
:102fe000b342f8d104ab1d44420005f80c2c01a8f3
:102ff000fdf71fff00285fd0002004b070bdc1f3b3
:10300000072344b98df805308df8061000238df89c
:1030100007300521d0e763f07f038df80530f3e733
:10302000ff238df805308df806308df80730052127
:10303000c2e70a0c8df805200a0a8df806208df8e3
:1030400007101a0c8df808201a0a8df809208df83f
:103050000a300821b0e7c1f3072384b98df80530a1
:103060008df80610130e8df80730130c8df808300c
:10307000130a8df809308df80a2008219ce763f0c7
:103080007f038df80530ebe70b0c8df805300b0a4c
:103090008df806308df80710130e8df80830130cdc
:1030a0008df80930130a8df80a308df80b200921ac
:1030b00082e70139c9b29ae704f036f910b94ff046
:1030c000ff309ae704f02af94bf2b841c2f2f061fe
:1030d00003f0efff4ff0ff308fe74ff0ff308ce74a
:1030e000f0b583b006460d46cf2817d00a24012735
:1030f00039460df10700fdf7c4fec8b19df8073051
:10310000b34223d015bb013c64b2b4f1ff3fefd111
:1031100004f00af998bb4ff0ff3049e001210df1ae
:103120000700fdf7aefe0028e0d14ff0ff303fe092
:1031300004f0faf810b94ff0ff3039e004f0eef87f
:10314000204903f0b6ff4ff0ff3031e0002cdfdb09
:103150000a24012631460df10700fdf792feb0b1b9
:103160009df807300bb305bb013c64b2b4f1ff3fdf
:10317000f0d104f0d9f8e8b94ff0ff3018e004f0ce
:10318000cdf8114903f095ff4ff0ff3010e004f047
:10319000cbf810b94ff0ff300ae004f0bff809494e
:1031a00003f087ff4ff0ff3002e0002ce1db00204e
:1031b00003b0f0bd04f0b2f8034903f07aff4ff01a
:1031c000ff30f5e7e4b4f0261cb5f0262de9f04f0a
:1031d00083b083460e469246002740f23819c2f269
:1031e000f16923e004f0a0f820b94ff0ff3003b0fc
:1031f000bde8f08f04f092f8384903f05aff4ff021
:10320000ff30f4e7002c2bdd41460beb0700fdf708
:1032100038fe78b399f800305aea030348d047449f
:103220003fb2a6eb0806b6b2002e55d0b046b6f5b2
:10323000005f28bf4ff400580a24012529460df1ec
:103240000300fdf71efe0028ccd09df8033003f0ec
:10325000f003f02bd6d0013c24b2b4f1ff3fedd106
:10326000baf1000f0cd041460beb0700fdf709fe49
:103270000028d4d104f058f890b94ff0ff30b6e7e9
:1032800004f052f810b94ff0ff30b0e704f046f800
:103290009df80320124903f00cff4ff0ff30a6e722
:1032a00004f03cf80f4903f004ff4ff0ff309ee7b5
:1032b000022101a8fdf7e5fd0028b0d104f034f8a3
:1032c00010b94ff0ff3092e704f028f8064903f0f8
:1032d000f0fe4ff0ff308ae7002088e748b5f0267f
:1032e00084b5f026bcb5f026f4b5f02610b582b052
:1032f0000120fdf74ffe002400942346224621467c
:10330000cf20fff73dfe2146cf20fff7e9fe012049
:10331000fdf740fe02b010bd40f23913c2f2f16376
:103320001b78012b02d06ff00500704730b583b0d9
:1033300040f23915c2f2f16500242c700094234646
:1033400022462146cf20fff71bfe2146cf20fff764
:10335000c7fe01232b70204603b030bd40f2391365
:10336000c2f2f16301221a70704740f23813c2f2c0
:10337000f16300201870704740f23913c2f2f16314
:103380001b78012b03d06ff00502104670472de922
:10339000f04f85b00f46064640f23913c2f2f16392
:1033a00000221a70ff2895bf4ff0c4084ff0ca08da
:1033b0000125154609244ff004094bf2b84ac2f220
:1033c000f06a0af5f47b0ce003f0aeffb8bb03f043
:1033d000abff002851d1fff789ff013cb4f1ff3f5b
:1033e00054d000954b46002231464046fff7c8fdb9
:1033f0000028e9d129464046fff772fe38bb2a462d
:10340000494603a8fff7e2fe024660bb9df80d1097
:103410009df80e301b0443ea01239df80c100b436a
:103420009df80f1043ea01633b6040f23913c2f28a
:10343000f16301211970104605b0bde8f08f03f06b
:103440006dff32460af5bc7103f033febfe703f0af
:103450006bff0028bbd003f061ff32460af5d6713e
:1034600003f027feb3e703f05fff0028afd003f0bf
:1034700055ff594603f01dfea9e703f04fff334601
:1034800022460af5047103f014fea4e740f2391352
:10349000c2f2f16301221a706ff00502cbe700b5aa
:1034a00083b001a9fff768ff019803b05df804fb42
:1034b0002de9f04782b040f23913c2f2f1631f7870
:1034c000012f04d06ff0050002b0bde8f0870e4672
:1034d000044640f23913c2f2f16300221a70092542
:1034e0004ff001094bf2b848c2f2f06808f5187abb
:1034f0000be003f019ffd0b903f016ff50bbfff744
:10350000f5fe013db5f1ff3f2ed0302c35d900231b
:103510000093042332462146c920fff731fd0028dd
:10352000e7d1b4f5a05f38d00021c92031e003f025
:10353000f5fe224608f50b7103f0bbfddce703f056
:10354000f3fe0028d8d003f0e9fe2246514603f0ee
:10355000b0fdd1e703f0e2fe009623462a4608f5c7
:10356000287103f0a6fdcae740f23913c2f2f163f5
:1035700001221a706ff00500a6e7cdf80090042331
:1035800032462146c320fff7fbfc0028b1d1394663
:10359000c320fff7a5fd0028d1d140f23913c2f2b4
:1035a000f16301221a7000208ee7000010b582b08e
:1035b0000022009240f23813c2f2f1631a70694699
:1035c0004ef62400fff7d8fe90bb40f23813c2f24b
:1035d000f1631b788bb9009921f07c0141f0500117
:1035e00000914ef62400fff763ff002844d140f21b
:1035f0003813c2f2f16301221a7001a94ff480500e
:10360000fff7bafe0446002844d103f08dfe0328dc
:103610004ed84ef62400fff742ff20f0700141f033
:1036200050014ef62400fff743ff204602b010bdc4
:1036300040f23813c2f2f16301221a7003f074fef3
:1036400060b969464ef62400fff796fe0028bcd00c
:1036500003f06afe40b96ff00504e6e703f05efe92
:10366000174903f026fdece703f058fe154903f077
:1036700020fd6ff00504d8e703f056fe10b96ff097
:103680000504d2e703f04afe0f4903f012fd6ff084
:103690000504cae703f048fe10b96ff00504c4e75b
:1036a00003f03cfe094903f004fd6ff00504bce79c
:1036b00003f034fe019a064903f0fbfca9e700bfc2
:1036c00078b7f026d0b7f02604b8f0263cb8f0263c
:1036d00068b8f0262de9f04f85b000238df80c3046
:1036e0008df80d3040f23913c2f2f1631b78012bd3
:1036f00005d06ff00503184605b0bde8f08f07460a
:103700008a46164640f23913c2f2f16300221a705b
:10371000012e61d08846092500244bf2b849c2f237
:10372000f06909f5896b0ce003f0fefd60bb03f066
:10373000fbfd002846d1fff7d9fd013db5f1ff3f64
:103740004ed00094334622463946c820fff718fc75
:103750000028e9d12146c820fff7c2fce0b9224683
:1037600031464046fff732fd034608bb40f23912ae
:10377000c2f2f1620121117003aa9045bbd19df8fc
:103780000c208af80020b6e703f0c8fd3a4609f598
:10379000747103f08efccae703f0c6fd0028c6d0a2
:1037a00003f0bcfd3a4609f5816103f082fcbee7f7
:1037b00003f0bafd0028bad003f0b0fd594603f07b
:1037c00078fcb4e703f0aafd00963b462a4609f5cb
:1037d0008f6103f06efcaee70df10c0802269ae74c
:1037e00040f23913c2f2f16301221a706ff005033f
:1037f00081e72de9f04f89b00490029240f239132d
:10380000c2f2f16393f80080b8f1010f06d06ff0b7
:1038100005030393039809b0bde8f08f8b4640f28f
:103820003913c2f2f16300221a70029b012b08bf08
:1038300002230293092740f23819c2f2f1694bf2d0
:10384000b84ac2f2f06a0af2cc53059380e003f062
:103850006bfd002873d003f061fd049a0af29441d5
:1038600003f027fc6be003f05ffd002867d003f056
:1038700055fd049a0af2cc4103f01bfc5fe0b4f55d
:10388000005f8cbf4346032363f00f038df81b30aa
:1038900001210df11b00fdf7ccfaf0b129460beb2d
:1038a0000600fdf7c6fa58b399f800309bb32e44d2
:1038b00036b2641ba4b2002c00f08f802546b4f50c
:1038c000005f28bf4ff40055adb2002ed7d0b4f53d
:1038d000005f94bf03230223d6e703f025fd40b920
:1038e00003f022fd58b303f019fd059903f0e1fb45
:1038f00025e003f013fd0af5a26103f0dafbefe720
:1039000003f012fd0028ebd003f008fd0af5aa61d0
:1039100003f0cffbe4e7022107a8fdf78afa0028ad
:10392000c5d103f001fd0028dad003f0f7fc0af25c
:103930008c5103f0befbd3e703f0f6fcf8b903f0bb
:10394000f3fca8bbfff7d2fc013fb7f1ff3f3ad031
:1039500000220092029b0499c720fff711fb002868
:103960007ff475af0021c720fff7bafb0390002852
:103970007ff479af0026adf81c60029c9ee703f04f
:10398000cdfc0af2fc5103f094fbd8e703f0ccfc29
:103990000028d4d003f0c2fc9df81e3000939df89f
:1039a0001d309df81c200af5c56103f082fbc6e7b7
:1039b00003f0b4fc029b0093049b3a460af58f6126
:1039c00003f077fbbee740f23913c2f2f163012244
:1039d0001a706ff0050303931ce799f80030002b71
:1039e0000cbf02240324214607a8fdf74afa002849
:1039f000a2d008ab234413f8053c002bc6d108ab7a
:103a00001c4414f8063cc32bc0d140f23913c2f257
:103a1000f16301221a70fde630b5a3b015466a289d
:103a200013d004466b2827d072283cd0742865d068
:103a3000762800f0a280782800f0bd8003f074fca6
:103a4000002840f0d68023b030bdc0ef500001ab5d
:103a500043f90f0a0023102201a92846fdf766fe4c
:103a60000028f0d140f25013c2f2f1631b68002b22
:103a7000e9d001a89847e6e70023019304220deb63
:103a800002012846fdf752fe0028dcd140f2541313
:103a9000c2f2f1631b68002bd5d09df805109df88c
:103aa00004009847cfe7c0ef1000cded010b0123d4
:103ab000082201a92846fdf739fe0028c3d19df848
:103ac000080030b94cf20123c2f2f0639df80920de
:103ad0001a7040f24813c2f2f1631c68002cb2d095
:103ae0004cf20123c2f2f063019a1978a04740f228
:103af0004813c2f2f16300221a60a4e7c0ef10007d
:103b0000cded010b0123082201a92846fdf70efe89
:103b1000002898d19df80830b3b140f24813c2f2a2
:103b2000f1631c68002c8ed04cf20123c2f2f063ca
:103b3000019a19789df80800a04740f24813c2f294
:103b4000f16300221a607ee74cf20123c2f2f063b7
:103b50009df809201a7003f0e7fb0128ddd903f076
:103b6000ddfb4cf20123c2f2f0631a784bf61c41e4
:103b7000c2f2f06103f09dfacfe7842422460021cf
:103b800001a804f0bafe0123224601a92846fdf748
:103b9000cdfd00287ff457af40f24c13c2f2f16321
:103ba0001b68002b3ff44fafbdf8042002a99df81d
:103bb0000600984747e700230193012304220debf9
:103bc00002012846fdf7b2fd00287ff43caf40f229
:103bd0004413c2f2f1631b68002b3ff434af9df82d
:103be0000400984740f24413c2f2f16300221a60c5
:103bf00029e703f093fb2246014903f05afa22e732
:103c000040bcf02600b585b040f25413c2f2f16317
:103c1000186040f25013c2f2f163196040f2481389
:103c2000c2f2f1631a6043f61921c2f2f061042076
:103c3000fdf7ecfd002202920192009213467121e1
:103c40000420fdf747fa05b05df804fb10b584b019
:103c500040f23c14c2f2f164216062604cf2012235
:103c6000c2f2f062127882421ad1ff2a1bd0ebb165
:103c70001c460023029301930093082340f23c1258
:103c8000c2f2f16275210420fdf724fa034620b93f
:103c900040f24c12c2f2f1621460184604b010bd3a
:103ca0006ff00e03f9e76ff00e03f6e76ff00e0307
:103cb000f3e700002de9f041ff2866d0002967d026
:103cc000984617460e460546fef790fd012844d15a
:103cd00040f25c14c2f2f16423682bb140f2581335
:103ce000c2f2f1631b6863b940f25812c2f2f1628a
:103cf00040f25c11c2f2f161412000f06dfe044619
:103d000040bb40f25c14c2f2f164042221683046e8
:103d100000f08aff0446e8b93378ab421ad140f28a
:103d20005813c2f2f1631b68bb4234d9434535d303
:103d300007eb0802934234d940f25c13c2f2f163fc
:103d4000196801f5805142463944304600f06cff55
:103d5000044680b92046bde8f08103f0e5fa10b9c9
:103d60006ff00b04f6e703f0d9fa0f4903f0a1f95d
:103d70006ff00b04eee703f0d7fa0028ead003f067
:103d8000cdfa0a4903f095f9e4e76ff00e04e1e794
:103d90006ff00e04dee76ff00b04dbe76ff00b044f
:103da000d8e76ff00b04d5e798bcf026d4bcf0261a
:103db000f0b400252e464ff0010c2f4601782e2935
:103dc00020d009b30446634614f8012f2e2a27d0c9
:103dd00032b30133dbb2042bf6d100252846f0bc08
:103de0007047ff2b16d819b9032e3bd00025f5e7f5
:103df000032e11d01b0643ea15250136f6b2042e18
:103e0000dcd1ebe70025e9e70025e7e70025e5e75a
:103e10000025e3e70025e1e70025dfe70025dde7f2
:103e2000002bfbd0441c012b01d93029f0d0013be1
:103e3000dbb2a1f13002d2b2092ae7d8023318442a
:103e40003b469a00134401eb4303303b9bb214f80a
:103e5000011ba042c5d0a1f13002d2b2092af0d98b
:103e60000025bbe71b0643ea1525b7e71046002ae5
:103e70004ad00f2b40d92de9f04f83b00e6814467d
:103e800004254ff030084ff0000b4cf6cd4eccf629
:103e9000cc4ecdf804804ff02e0922e05f4664211d
:103ea00006e004f8012b0137ffb2092912d9614657
:103eb000994223d8019a0132d2b25b1adbb29942fd
:103ec000f9d9aefb01acccf3c70c302ae9d1002ff5
:103ed000ebd0e6e7012d0ad004f8019b360a013d3c
:103ee000edb216f0ff03d9d104f8018bf2e70023fd
:103ef000237003b0bde8f08f00207047aefb012cab
:103f0000ccf3c70c019ae2e7704700002de9f041bd
:103f100096b01446412842d00d4654283fd042283e
:103f20005bd0432877d0442800f055824b2800f01e
:103f30005282572800f095824a2800f0ed804628ea
:103f400000f00681482800f04a814d2800f0fe80ec
:103f5000452800f0ee81472800f021824c2800f02f
:103f6000e681522836d1012314220deb02012046ae
:103f7000fdf7dcfb70bb40f22423c2f2f1631b6847
:103f8000069a9a4226d140f21423c2f2f1631b68ca
:103f900003b39df824200799059898471ae0002359
:103fa000042205a92046fdf7c1fb98b99df81530fc
:103fb0008df8043040f21c23c2f2f1631b684bb150
:103fc00040f21c23c2f2f1631b6801aa01219df992
:103fd0001400984716b0bde8f0810023042205a91b
:103fe0002046fdf7a3fb0028f4d19df815308df88d
:103ff000043040f21c23c2f2f1631b68002be9d0ad
:1040000040f21c23c2f2f1631b6801aa02219df950
:1040100014009847dee700230c2201a92046fdf793
:1040200085fb0028d6d19df90d20d3b20a2b37d8b5
:104030009df90c1040f26013c2f2f16303eb011121
:10404000c97ac9b203eb0213d97201219972bdf882
:104050000e10083989b2198140f22023c2f2f163af
:104060001988013189b219801b889bb23bb940f293
:104070002021c2f2f1610b8801339bb20b8040f228
:104080002023c2f2f163198889b240f26013c2f2b0
:10409000f16303eb0213d98003f046f903281ed81d
:1040a0009df80d308df814300223adf81830bdf8ae
:1040b0000630adf81a30029b079340f21c23c2f27f
:1040c000f1631b68002b85d040f21c23c2f2f16320
:1040d0001b6805aa04219df90c0098477ae703f0b4
:1040e0001df940f22023c2f2f1631b889df90d20d7
:1040f0004bf6f041c2f2f06102f0dbffd0e79df831
:10410000162040f26013c2f2f16303eb00139a73be
:104110009df81720da7394e10023442205a9204674
:10412000fdf704fb00287ff455af40f21823c2f2dc
:10413000f1631b68002b3ff44daf40f21823c2f22d
:10414000f1631b68159905a8984743e7062700e027
:1041500006270023102201a92046fdf7e7fa0028d0
:104160007ff438af9df91060f3b20a2b3ff632afff
:10417000bdf8128003f0d8f8032832d840f260135b
:10418000c2f2f16303eb061300221a73bdf90c208f
:10419000bdf80e00bdf80610adf81e10029908918a
:1041a000db889bb2434540f09980002a01ddaa429a
:1041b0001edbadf818200023059340f21c23c2f249
:1041c000f1631b68002b3ff405af40f21c23c2f2e1
:1041d000f1631b6805aa394630469847fae6092775
:1041e000b7e703f09bf84246a14902f062ffc5e73a
:1041f00095b2adf81a5040f26013c2f2f163320189
:104200009b58002b3ff4e6ae40f26013c2f2f1631c
:1042100003eb06139b889bb2002b3ff4dbae40f20e
:104220006013c2f2f16303eb06139b7adbb2012b3e
:104230007ff4d0ae40f26013c2f2f16303eb0613d9
:104240009b88eb1a1bb2002b3add40f26013c2f2de
:10425000f16303eb0613b3f804801ffa88f840f209
:104260006013c2f2f163320199580123424620449f
:10427000fdf75cfa30bb40f26013c2f2f163320129
:10428000981899580591adf81880bdf81a10a1eb4f
:104290000808adf81a8000218180995040f21c2353
:1042a000c2f2f1631b68002b3ff494ae40f21c2372
:1042b000c2f2f1631b6805aa39463046984789e681
:1042c000a846cce703f030f800283ff483ae03f0b3
:1042d00025f82a46674902f0ecfe7be603f024f855
:1042e000032816d8102d7ff675ae01230022114643
:1042f0001046fdf71bfa00283ff46cae03f014f8eb
:1043000000283ff467ae03f009f85b4902f0d1fee4
:1043100060e603f003f840f26013c2f2f16303ebce
:104320000613db884246554902f0c3fedae707254b
:1043300000e007250023082205a92046fdf7f6f92d
:1043400000287ff447ae9df91440e3b20a2b3ff6f4
:1043500041aebdf8186002f0e7ff032821d8bdf890
:104360001630adf8043040f26013c2f2f16303eb93
:104370000413db889bb2b3421ad140f21c23c2f271
:10438000f1631b68002b3ff425ae40f21c23c2f200
:10439000f1631b6801aa2946204698471ae60825ba
:1043a000c8e702f0bbff3246354902f082fed6e78d
:1043b00002f0baff03287ff60dae02f0afff40f225
:1043c0006013c2f2f16303eb0413db8832462d491c
:1043d00002f06ffefee5c0ef1000cded050b0422ec
:1043e000002305a92046fdf7a1f900287ff4f2adce
:1043f0009df91400c3b20a2b3ff6ecad8df8040012
:104400009df915208df8052040f26013c2f2f1638a
:1044100003eb00131b899bb2002b0cbf05210a2163
:10442000002a7ff46caebdf81620083a92b240f232
:104430006013c2f2f16303eb00131a819df8182098
:104440005a7340f21c23c2f2f1631b68002b3ff445
:10445000c1ad40f21c23c2f2f1631b6801aa984768
:10446000b8e5c0ef1000cded050b0822b8e700bf9e
:104470000cbdf0262cbdf0265cbdf0263cbdf02620
:1044800074bdf02694bdf02608b540f21023c2f2a8
:10449000f1631b7803b108bdb022002140f2601027
:1044a000c2f2f16004f029fa43f60d71c2f2f06134
:1044b0000220fdf7abf940f21023c2f2f1630122b2
:1044c0001a7040f22023c2f2f16300221a80e2e760
:1044d00008b5b022002140f26010c2f2f16004f091
:1044e0000cfa00210220fdf791f940f21c23c2f2e0
:1044f000f16300221a6040f21823c2f2f1631a60dd
:1045000040f21023c2f2f1631a7008bd40f21c237e
:10451000c2f2f163186070472de9f04387b00228ba
:1045200040f0eb8001293ed0022940f0e98040f2c2
:104530002925c2f2f1652878c0b22b78724c04ebc1
:1045400003142b7801335e4203f0030306f00306e5
:1045500058bf7342dbb22b70a37a002b78d00327ad
:1045600040f22925c2f2f165dff89cc12878c0b27b
:104570002c780ceb04142b7801335e4203f0030318
:1045800006f0030658bf7342dbb22b70a37a002bf0
:104590005ed07b1e13f0ff07e8d14ff0ff352846b1
:1045a00007b0bde8f08340f22825c2f2f165287813
:1045b000c0b22c78e6b22b785c1c42f29343c9f26d
:1045c000492383fb047323449b10072707fb1343f2
:1045d000dbb22b7040f26013c2f2f16303eb0613ff
:1045e0009b7a33b3062540f22826c2f2f16642f2e6
:1045f000934cc9f2492c4ff0070e40f26017c2f2fb
:10460000f1673078c0b23478e4b2337803f101084e
:104610008cfb089343449b100efb1383dbb2337077
:1046200007eb04139b7a5bb1013d15f0ff05e8d160
:10463000b3e740f26014c2f2f16404eb061405e043
:1046400040f26013c2f2f16303eb041445b201e0df
:10465000073045b2002da2dbc0ef500044f90f0a2d
:104660000123a37240f22023c2f2f16318880130c3
:1046700080b218801b889bb23bb940f22020c2f266
:10468000f160038801339bb2038017460e4640f267
:104690002023c2f2f1631b889bb2e38002f044fe48
:1046a00001281bd8012e7ff47aaf002f3ff477af9b
:1046b0008df814500023029301930093042305aa5c
:1046c00050210220fcf706fd2123e372022f7ff424
:1046d00066afe37a43f08003e37260e702f01efe08
:1046e00040f22023c2f2f1631b882a464bf6f041c8
:1046f000c2f2f06102f0ddfcd4e74ff0ff354ee787
:104700004ff0ff354be700bfd001f126c3b20a2bb3
:1047100045d8002946d040f26013c2f2f16303eba2
:1047200000139b7adbb2012b3fd1002a40d010b599
:1047300088b040f26013c2f2f16303eb0013db7a3e
:1047400013f0010f29d040f26013c2f2f16303ebc2
:104750000013db7a8df81d304b2403468df81c00c6
:1047600005aa0868496803c240f26010c2f2f1600d
:1047700000eb0310c388adf81e30002302930193b1
:1047800000930c2305aa21460220fcf7a3fc002875
:1047900018bf6ff0080008b010bd4424dde76ff0cb
:1047a000050070476ff0050070476ff00500704717
:1047b0006ff005007047c3b20a2b54d8002955d0ba
:1047c000b2f5af6f55d840f26013c2f2f16303eb5c
:1047d00000139b7adbb2012b4ed110b588b08df857
:1047e0001000adf8122040f26013c2f2f16303eb47
:1047f0000013db88adf81c300728b4bf50244424d4
:1048000040f26013c2f2f16303eb0013db7a13f0a2
:10481000010f13d040f26013c2f2f16303eb0013f7
:10482000db7a13f0800f1cd140f26013c2f2f16307
:1048300003eb00100489a4b24c2000e04520029450
:104840000192009110230deb030240f08001022041
:10485000fcf740fc00280cbf00206ff00d0008b0f2
:1048600010bd4520ebe76ff0050070476ff00500c5
:1048700070476ff0050070476ff00500704770b526
:1048800088b0c4b20a2c48d8002949d0002a4ad09e
:1048900040f26014c2f2f16404eb0014a47ae4b2b2
:1048a000012c43d140f26014c2f2f1640601a51953
:1048b000a151aa80297b00293bd101242c73e97adc
:1048c00011f0010f06d0e97a49b20029b4bf4621a0
:1048d0004d2100e04621002b08bf4ff0ff33059328
:1048e0008df8180040f26013c2f2f16303eb001080
:1048f000c388adf81a30adf81c2000230293019351
:1049000000930c2305aa0220fcf7e4fb00280cbf4f
:1049100000206ff00d0008b070bd6ff00500fae7e1
:104920006ff00500f7e76ff00500f4e76ff00500a2
:10493000f1e70020efe7000010b586b0044602f072
:10494000f3fc012839d8e3b20a2b3dd840f26013ba
:10495000c2f2f16303eb04139b7adbb2012b36d175
:104960008df8144040f26013c2f2f16303eb0413bc
:10497000da88adf81620db7a03f00103002b4ff044
:1049800000030293019300934ff0040305aa0cbfa8
:1049900049214e210220fcf79dfb002818bf6ff033
:1049a000080040f26013c2f2f16303eb0414c0ef9d
:1049b000500044f90f0a06b010bd02f0affc2246c9
:1049c000044902f076fbbee76ff00500f3e76ff0f5
:1049d0000500f0e7b4bdf02600293dd02de9f043f5
:1049e00083b00e46002a3bd014460546042241f20d
:1049f0004801684600f018f9024628bb9df80030cf
:104a0000202b30d803b3013bdbb241f2540808eb52
:104a1000c30841f24c074ff008094a463946684638
:104a200000f002f9024678b99df801109df80030b7
:104a300043ea0123ab420bd19df802301b033360e4
:104a40009df803301b032360104603b0bde8f083dc
:104a500008374745e1d1f7e76ff00e02104670477f
:104a60006ff00e02f0e76ff00b02ede770b582b069
:104a700005460e460023019311464ff40270c0f222
:104a80000100fcf749ff0446310a01f47f4133027b
:104a900003f47f03194341ea066141f00b014ff42f
:104aa0000370c0f20100fcf737ff0444e4b2a52113
:104ab0004ff40470c0f20100fcf72eff0444e4b28e
:104ac0001f214ff40570c0f20100fcf725ff0444dc
:104ad000e4b229464ff40770c0f20100fcf71cff56
:104ae0000444e4b285214ff40170c0f20100fcf7e8
:104af00013ff044464b24ff40675c0f2010501a926
:104b00002846fcf705ff044464b214b9019b012b4d
:104b1000f5d1204602b070bd30b583b00546fdf733
:104b20008effc0f30b00b0f5687f03d2002420464f
:104b300003b030bd01a941f21040fcf7e9fe044684
:104b40000028f4d1019921f0ee6121f4ee210191c8
:104b5000adb341f0887141f48831019141f21040c8
:104b6000fcf7dafe00214ff40270c0f20100fcf7fe
:104b7000d3feab214ff40370c0f20100fcf7ccfe72
:104b800001214ff40570c0f20100fcf7c5fe0021c1
:104b90004ff40770c0f20100fcf7befe81214ff414
:104ba0000170c0f20100fcf7b7fe4ff40675c0f2c9
:104bb00001052846fcf7a8fe0128fad1b7e7002135
:104bc0004ff40270c0f20100fcf7a6feb9214ff4c9
:104bd0000370c0f20100fcf79ffe01214ff4057045
:104be000c0f20100fcf798fe00214ff40770c0f2fc
:104bf0000100fcf791fe81214ff40170c0f2010029
:104c0000fcf78afe4ff40675c0f201052846fcf752
:104c10007bfe0128fad1019941f48031019141f2e2
:104c20001040fcf779fe82e72de9f04105469046f9
:104c3000b2f5004f2ed9a2f50047013f27f4ff47f8
:104c400027f07f0701f500431f440c464ff4004650
:104c5000a1f5004188440fe0324629464ff4502028
:104c6000fcf75efe034680b9a8eb040204f500449d
:104c700005f50045bc420bd0324621464ff450208a
:104c8000fff7f4fe03460028e6d01846bde8f081a1
:104c90009046394642464ff45020fff7e7fe034660
:104ca0000028f2d1424629464ff45020fcf738fe46
:104cb0000346eae700b583b04ff0ff33019301a943
:104cc00002f0d3fe20b9019802f0f7fe0028fad0d6
:104cd00003b05df804fb30b587b0054690f8a240fc
:104ce00014b9d0f8a43063b90120fdf740fd18bb1a
:104cf000012485f8a2400023c5f8a430204607b05f
:104d000030bd0020fdf733fd0028f7d1d5f8ac30d9
:104d10000293d5f8b0300193d5f8a4300093d5f8bc
:104d2000a83004936846fdf713fd0028e6d1002360
:104d300085f8a2300124e1e70024dfe72de9f04106
:104d40008cb0441e14f1030f00f206814468002c5d
:104d500000f00481002900f0038184781cb901204f
:104d60000cb0bde8f0811f4616460d4604460021f2
:104d7000284600f05cfa002800f0f48046b1337851
:104d800023f00403013bdbb2012b01d90220e7e74a
:104d900095f8288008f1ff33dbb2fe2b28bf4ff0d7
:104da000ff086068fff797ff002800f0dd8095f8a6
:104db0002730002b42d005f1210309930a9595f87d
:104dc00020308df82c308df82d80002e38d033789f
:104dd000012b35d0022b43d0052b57d0062b40f0aa
:104de000c58096f88130002b00f0968001238df865
:104df0002130351d01955c21284603f08efd0130e0
:104e00000290451badf8185003f07ffdadf81a0075
:104e1000f36e0393736f0493b36f0593336fadf821
:104e20001c30f36fadf81e3096f880308df82030ce
:104e300001aa09a90220fdf7adfb05e00023bce7ac
:104e400009a90220fdf773fa002840f091806368f9
:104e5000c3f88c7063689873636883f8a1007fe778
:104e60003379402b0bd000220192053602968df843
:104e70000c3001aa09a90220fdf774fae4e705360f
:104e80000196002302938df80c30f2e796f86d310d
:104e900013b301238df81730351d01955c21284689
:104ea00003f03bfd01300290451badf8105003f0bc
:104eb0002cfdadf8120006f169030393b6f86a31d0
:104ec000adf8143096f86c318df8163001aa09a9a6
:104ed0000220fdf7cbfab7e700238df8173006f173
:104ee00004084021404603f018fd05460190cdf826
:104ef000088040b103f009fdadf81000a5eb0805ee
:104f0000adf81250d7e70023adf81030404603f05b
:104f1000fcfcadf81200cee700238df8213006f13d
:104f200004084021404603f0f8fc05460190cdf806
:104f3000088040b103f0e9fcadf81800a5eb0805c6
:104f4000adf81a5064e70023adf81830404603f07e
:104f5000dcfcadf81a005be7022001e70220ffe667
:104f60000220fde60920fbe60620f9e60620f7e62a
:104f70000620f5e638b5431e13f1030f17d8436832
:104f8000bbb18278bab19a7bbab90d4604461846cd
:104f9000fff7a1fe98b1fdf7bcf990b96368c3f8bb
:104fa0008c5063689873636883f8a10000e0022066
:104fb00038bd0220fce70120fae70820f8e70620c8
:104fc000f6e70620f4e718b10122027000207047ce
:104fd00002207047b8b1f8b50646402a15d8b1b1dd
:104fe00014460d460746022307f8053b41220021df
:104ff000384603f082fc22462946384603f072fc0c
:1050000034710020f8bd022070470220fae7022028
:10501000f8e7f8b5441e14f1030f00f296804468d7
:10502000002c00f09480002900f0938084780cb963
:105030000120f8bd1f4616460d46044602f096f9bb
:105040002b781bb902f096f90d20f2e7013b2b708b
:1050500002f090f9636803f1d40295422ed16a7888
:10506000ff2a2bd00022c3f8f8202eb1ee612f6268
:10507000069b2b61079b6b61ab6913b12a69934255
:1050800025d963681b7913f0080f29d16a69ab68c9
:10509000802a28bf802229696878fef7d7fd00287a
:1050a0004ad16368089ac3f8f82002f05ff92b78b8
:1050b00001332b7002f05ef90020bae702f056f9d6
:1050c0002b7801332b7002f055f90220b1e702f082
:1050d0004df92b7801332b7002f04cf90220a8e730
:1050e0000120fff719fda8b9079b069a3146687899
:1050f000fef7e0fd04460020fff70efd98b9002cf6
:10510000d3d002f033f92b7801332b7002f032f94f
:1051100008208ee702f02af92b7801332b7002f079
:1051200029f9082085e702f021f92b7801332b704b
:1051300002f020f908207ce702f018f92b780133ff
:105140002b7002f017f9082073e7022071e70220a4
:105150006fe702206de758b3034682793b2a29d8ce
:1051600041793b2928d80079172827d870b58cb009
:10517000dd781f2d24d89e78741ee4b20b2c22d823
:105180001b8840f26b74a34201d8002019e0019201
:10519000029103900495013e0596a3f26c73069369
:1051a00001a803f0f5fbb0f1ff3f08bf002008e0c5
:1051b0000020704700207047002070470020704793
:1051c00000200cb070bd0020fbe7431e13f1030f5d
:1051d0000dd843686bb182786ab19a7b6ab90122b3
:1051e00083f8a2204368c3f8b8100020704702205b
:1051f000704702207047012070470820704703461f
:10520000421e12f1030f05d8807820b15b6893f835
:10521000a100704701207047b0f1ff3f05d008b5ed
:105220000846fff773f9002008bd02207047f0b16f
:10523000024690f828300f3bdbb2ef2b19d990f8db
:105240002000202817d892f82730d3b130b402f1cb
:1052500021032732002413f8015b2c439342fad137
:105260005cb161b1003018bf012030bc7047002034
:10527000704700207047002070470020f5e70120ac
:10528000f3e719b1003018bf0120704701207047c3
:10529000034668b10020c3f82100a3f8250083f875
:1052a000270083f8200083f8280083f8290070473e
:1052b00002207047c8b138b50446c1b1202a18d8b9
:1052c0001546c0ef5000034643f90d0a43f90f0a93
:1052d00003f008fb84f8205000212046fff7a7ffc9
:1052e000002814bf0020092038bd0220704702208a
:1052f000fae70220f8e708b570b1a1f10f02d2b2c7
:10530000ef2a0bd980f828100021fff790ff002822
:1053100014bf0020092008bd0220fce70220fae7a4
:1053200008b540f22c33c2f2f1635b6843b3012845
:1053300014d042b222b3032822d8d3f8c83023b104
:1053400040f22c30c2f2f160984740f22c33c2f2a6
:10535000f1635b680022c3f8c82011e0d3f8c430c1
:1053600023b140f22c30c2f2f160984740f22c3366
:10537000c2f2f1635b68002283f8a020c3f8c42066
:1053800008bd002900f08380f0b59db00c4640f2c6
:105390002c33c2f2f1635b6873b101280ed006288a
:1053a0000ad1d3f8cc303bb10a68039203a940f28a
:1053b0002c30c2f2f16098471db0f0bdd3f8d05048
:1053c000002df9d00e784b6801938b68029364220c
:1053d000002103a803f091fa731e042becd8dfe838
:1053e00003f003034d41490003afa4465cf80c0fe2
:1053f000dcf80410dcf80820dcf80c300fc7dcf80f
:105400001000dcf81410dcf81820dcf81c300fc792
:105410000bafa4465cf82c0fdcf80410dcf8082075
:10542000dcf80c300fc7dcf81000dcf81410dcf8e6
:105430001820dcf81c300fc7b4f84c30adf84c30f5
:10544000b4f84e30adf84e3014af54f8500f6168d8
:10545000a268e3680fc720696169a269e3690fc7a1
:1054600003ab0ce0a389adf80c30e389adf80e3046
:1054700003ab04e0e368039303ab00e0002301aa5d
:10548000314640f22c30c2f2f160a84794e77047f1
:10549000002900f02582f0b5ebb00c4640f22c3329
:1054a000c2f2f1635d68002d00f0d78004382e2829
:1054b00000f2d380dfe810f0c201d1007d01d100fd
:1054c000d1002e01d100d100d100d100d100d100f6
:1054d000d1002f00d1005000d100d100d100d10067
:1054e000d100d100d1001901d100d100d100d100eb
:1054f000d100d100d100d100d100d100d100d10024
:10550000d100d100e000d100bf00d100d100d7010f
:10551000d100d100fe00eb7b002b00f09e80002329
:10552000eb7391f90130a3b90b786b746bb9d5f8b3
:105530008840002c00f0918000231a46194640f262
:105540002c30c2f2f160a04787e0287cfdf733f9e8
:1055500083e000236b7480e00b4653f8042f6a63ea
:105560009b882b87012785f83a7005f113060846ba
:1055700050f80acf41688268c368c5f813c0c5f8ff
:105580001710c5f81b20c5f81f30d0f810c04169ae
:105590008269c369c5f823c0c5f82710c5f82b2058
:1055a000c5f82f3003f0b1f985f8330094f90130d4
:1055b00085f83d30a37885f83e30e37885f83b30b8
:1055c000af74d5f88840002c47d0297c3944334645
:1055d0006a7cc9b240f22c30c2f2f160a04740b9f7
:1055e00040f22c33c2f2f1635b680022c3f88820da
:1055f00033e040f22c33c2f2f1635b681c7c3c4424
:10560000e4b21c74fdf7e8f8844208d340f22c336e
:10561000c2f2f1635b680022c3f888201de040f20b
:105620002c34c2f2f1646368187cfdf7c4f8636837
:1056300000229a7411e00b78012b10d013b9ab73d0
:1056400085f85430d5f88c503db140f22c30c2f280
:10565000f160637822780146a8476bb0f0bdab7368
:1056600095f8a230002bedd1d5f8a430002be9d06d
:10567000012385f8a130e5e7d5f88c50002decd05a
:1056800091f900301733032b09d8dfe803f00a0241
:105690000406032306e0012304e0062302e00723b7
:1056a00000e0052340f22c30c2f2f16000220146f6
:1056b000a847d2e72b7b13b9012385f8a130e37803
:1056c000a178090441ea036123781943637841ea28
:1056d0000321c5f8a410d5f8b830002bbdd040f296
:1056e0002c30c2f2f1609847b7e70846fff733fd68
:1056f00001460028b1d040f22c33c2f2f1635b685e
:10570000d3f89030002ba8d040f22c30c2f2f160d8
:105710009847a2e7d5f8c030002b9ed0084603f08a
:10572000f4f802468df82c00c0ef500003ab43f9ab
:105730000f0acded070bcded090b2146184603f0fe
:10574000d1f894f862308df83830022b13d094f8e9
:10575000633040f22c34c2f2f164d5f8c050b3fa91
:1057600083f35b090eaa03a92046a84763680022b9
:10577000c3f8c02071e704f12106304603f0c5f8f4
:1057800002468df83c000df13d00c0ef500040f99d
:105790000f0a0df14d0343f90f0a0df15d0343f9b3
:1057a0000f0a0df16d0343f90f0a314603f09af821
:1057b000cde7084603f0a9f8024685f8750005f123
:1057c0005506c0ef500046f90f0a05f1650343f98d
:1057d0000f0a2146304603f085f894f8211085f829
:1057e000841094f8252094f824301b0443ea0263c3
:1057f00094f82220134394f8232043ea0223ab6752
:1058000005f17c03224652f8260fe86792889a80b9
:10581000012285f8822085f85420d5f89450002d77
:105820003ff41baf40f22c30c2f2f16094f92c200f
:105830000192009132460146a8470ee791f90020f7
:1058400085f84e20d5f89830002b3ff406af40f293
:105850002c34c2f2f1642146204698476368002246
:10586000c3f89820f9e6d5f89c30002b3ff4f5ae4c
:1058700003a8fff70dfda51c284603f046f8c2b2a9
:10588000294603a8fff716fd617803a8fff733fd4b
:105890002378012b0cd0022b18d040f22c30c2f20e
:1058a000f1604368d3f89c30002211469847d4e653
:1058b0000ea8fff788fb40f22c30c2f2f16043687b
:1058c000d3f89c300eaa03a99847c6e62334204695
:1058d00003f01bf8c2b221460ea8fff77bfbeae7f4
:1058e00070472de9f04f87b0174640f22c32c2f2d4
:1058f000f162546874b10e4604f1d40568b1d4f86d
:10590000f8403cb103460222294640f22c30c2f254
:10591000f160a04707b0bde8f08f01f027fd94f8d3
:10592000d43013b901f026fdf4e7013b84f8d430fc
:1059300001f020fdd4f8f030002b00f0b380d4f853
:10594000e830bb42c0f0ae8017b3d4f8f4209742e1
:1059500009d9bb464ff0000940f22c38c2f2f16879
:10596000aa4605974de0bb4601e05546059f5a46bd
:105970003146d4f8f00002f0b5ffd4f8f0305b44c3
:10598000c4f8f030d4f8f430a3eb0b03c4f8f430cf
:10599000d4f8e830db1bc4f8e830d4f8e4203a440b
:1059a000c4f8e420002b5cd001f0e0fc94f8d43083
:1059b000013384f8d43001f0ddfc40f22c30c2f227
:1059c000f1604368d3f8f83002930022019200920c
:1059d00013462946fff71dfb9ce7013b84f8d430b2
:1059e00001f0c8fcd4f8f030bbb3d4f8f430002b8d
:1059f00053d0bbeb070b52d03e44d4f8f4205a45a9
:105a0000b3d23146d4f8f00002f06cffd4f8f47051
:105a1000c4f8f090c4f8f490d8f80430d3f8f83013
:105a2000002be6d001f0a2fc94f8d430013384f8c6
:105a3000d43001f09ffcd8f80430d3f8f8504b462e
:105a4000042251464046a84701f090fc94f8d43017
:105a5000002bc2d101f08efc5ce755460023c4f850
:105a6000e83001f083fc94f8d430013384f8d4306a
:105a700001f080fc40f22c33c2f2f1635b68d3f892
:105a8000f840002c3ff446af00230222294640f2a2
:105a90002c30c2f2f160a0473ce75546dee75546a0
:105aa000059f75e701f062fc94f8d430013384f867
:105ab000d43001f05ffc2de738b540f22c32c2f251
:105ac000f162546894b1d4f8f8507db103460322d2
