:020000040000fa
:0200000426f0e4
:1000000004f19fe500f19fe5fcf09fe5f8f09fe526
:10001000f4f09fe500000000ecf09fe5e8f09fe5bc
:1000200000000fe11f00c0e3110080e300f021e1b8
:10003000d8d09fe507d0cde31f00c0e3120080e3d6
:1000400000f021e1c8d09fe507d0cde31f00c0e359
:10005000170080e300f021e1b8d09fe507d0cde3a1
:100060001f00c0e31b0080e300f021e1a8d09fe562
:1000700007d0cde31f00c0e31f0080e300f021e1c3
:1000800098d09fe507d0cde31f00c0e3130080e3c5
:1000900000f021e188d09fe507d0cde384009fe503
:1000a00084109fe584209fe5020051e104309034e4
:1000b00004308134fbffff3a74009fe574109fe524
:1000c0000020a0e3010050e104208034fcffff3a4f
:1000d0000606a0e30110a0e3001080e50000a0e305
:1000e000150f07ee510f11ee030b80e3510f01eed8
:1000f0000f06a0e3500f01ee0111a0e3101ae8ee85
:10010000b82100fae41e00fafeffffea2000f02604
:10011000008ef126a08df126408ef126808ef126ec
:1001200080aef126809ef126a4caf02600002000b1
:100130003c0020000000f126388df12610b540f279
:100140000004c2f2f164237863b940f20003c0f204
:1001500000032bb140f20000c0f20000aff30080ba
:100160000123237010bd00bf08b540f20003c0f2a8
:1001700000034bb140f2040140f20000c2f2f16111
:10018000c0f20000aff3008008bd00bf431e13f1b2
:10019000030f1bd810f47f4f1ad1c3b240f21c02d8
:1001a000c2f2f1629268934214d240f21c02c2f28f
:1001b000f162d268282101fb03235a6a82420bd1e3
:1001c000da78002a08bf0023184670470023fbe7af
:1001d0000023f9e70023f7e70023f5e7036a2bb1d3
:1001e0001a6a026200225a751a621a70704710b5b4
:1001f000896940f21c02c2f2f162c1f307206c234c
:1002000003fb0020c9b2c468282000fb01f1095b90
:1002100003fb01231b6c03b910bd6c2303fb0124fa
:100220000022114694f92c0007f0aff8236c226be2
:1002300040f2a001c2f2f16194f82c0006f0bffe7a
:1002400000232364e8e770b50546806940f21c018d
:10025000c2f2f161c0f307246c2202fb0414c6b29f
:10026000282303fb06f3e4681e191b5b02fb031241
:10027000926a904221d040f21c04c2f2f1646c22d6
:1002800002fb034463691b68002106f10c009847d8
:10029000ab69a362002386f8203096f91c00b0f108
:1002a000ff3f09d0737f6bb9c0b200f01f0301217b
:1002b0009940400906f0dbfb70bd96f82020002a2b
:1002c000ebd0d8e7c0b200f01f03012199404009ec
:1002d00006f0c6fbf0e72de9f0410446816940f2e3
:1002e0001c02c2f2f162c1f307256c2303fb052552
:1002f000c8b2282101fb00f1e8680f180d5a03fb72
:10030000052300221a645a642269e3689a4271d371
:1003100040f21c00c2f2f1606c2101fb0501d31a0e
:100320000b6440f21c03c2f2f1636c2606fb053637
:10033000224640f2ef11c2f2f06196f82c0006f06e
:1003400035fe224640f24161c2f2f06196f82d007e
:1003500006f02cfebb69002b56d0082b66d840f265
:100360001c03c2f2f1636c2606fb05364ff40061f4
:1003700096f92d0007f018f84ff4006196f92c005b
:1003800007f012f82369002b64d140f21c08c2f276
:10039000f1686c2707fb05860022114696f92d00af
:1003a00006f0f3ff736c0022726432463c32716bcc
:1003b00096f82d0006f003fee368002b60d140f2b2
:1003c0001c02c2f2f1626c2303fb052500221146d8
:1003d00095f92c0006f0d9ff2b6c00222a642a6bb9
:1003e00040f2a001c2f2f16195f82c0006f0e7fda1
:1003f000bde8f08140f21c00c2f2f1606c2101fb0b
:1004000005019b1a4b648ce740f21c03c2f2f163b6
:100410006c2606fb0536002196f92d0006f0c4ff78
:10042000002196f92c0006f0bfffabe740f21c0359
:10043000c2f2f1636c2606fb05364ff4805196f943
:100440002d0006f0b1ff4ff4805196f92c0006f014
:10045000abff97e740f21c03c2f2f1636c2606fb88
:1004600005364ff48022002196f92d0006f08dff0d
:1004700023696268716b96f82d0006f0a0fd9be77a
:1004800040f21c03c2f2f1636c2606fb0536002223
:100490004ff4803196f92c0006f077ff736c73b13e
:1004a000236940f21c02c2f2f1626c2101fb0525b6
:1004b0002a6ba16895f82c0006f081fd98e7e368a7
:1004c000efe770b590f82630002b5cd190f86930da
:1004d000012b01d0002557e00446002380f8693045
:1004e000866d90f92c30b3f1ff3f1ed090f92d307e
:1004f000b3f1ff3f19d035782db1307906f088ff80
:1005000084f83a0040e006f05cff0546307c06f0d7
:100510007fff84f83900307d06f07aff84f83800d8
:10052000284606f052ff01252ee035782db13079ae
:1005300006f06eff84f8570026e006f042ff0546fd
:100540007068b0f1ff3f0cd1b068b0f1ff3f0ed141
:10055000f068b0f1ff3f10d1284606f036ff0125c4
:1005600012e0c0b206f054ff84f85400ece7c0b2c9
:1005700006f04eff84f85500eae7c0b206f048ffe7
:1005800084f85600e8e70125284670bd90f826302b
:1005900003b1704770b50446856d90f92c30b3f106
:1005a000ff3f1dd090f92d30b3f1ff3f18d02b78cd
:1005b0002bb190f83a10287906f041ff17e006f0c9
:1005c00000ff064694f83910287c06f038ff94f8ae
:1005d0003810287d06f033ff304606f0f6fe06e0c0
:1005e0002b7843b194f85710287906f028ff01239f
:1005f00084f8693070bd06f0e4fe06466868b0f124
:10060000ff3f0bd1a868b0f1ff3f0dd1e868b0f112
:10061000ff3f0fd1304606f0d8fee8e794f85410bb
:10062000c0b206f00cffede794f85510c0b206f02a
:1006300006ffebe794f85610c0b206f000ffe9e7ba
:100640002de9f04180460e46896940f21c02c2f253
:10065000f162c1f307246c2303fb0424c8b22821f0
:1006600001fb00f1e0680f180d5a03fb05235b6cda
:10067000002b48d113466c2202fb053463699b684a
:1006800098470028fad197f91c00b0f1ff3f0ad033
:100690007b7f002b58d1c0b200f01f03012199408d
:1006a000400906f0ddf940f21c00c2f2f1606c2353
:1006b00003fb05007a6ab3699a4254d1b8f1010f7d
:1006c0004bd0b8f1020f4bd096f91480f669fff7c2
:1006d00085fd7b68002b48d040f21c03c2f2f16319
:1006e0006c2404fb053494f82630013384f826305a
:1006f0007b68ba6831464046984794f82630013bfb
:1007000084f8263031e040f21c08c2f2f1686c2710
:1007100007fb05840022114694f92d0006f035fef2
:100720002246636c3c32616b94f82d0006f047fc66
:10073000b0683169636c226b014494f82c0006f0b8
:100740003efc002363641ce0c0b200f01f030121e3
:100750009940400906f08bf9a5e701233375b3e70b
:10076000ff233375b0e7fff739fd40f21c02c2f2f8
:10077000f1626c2303fb05252c6a14b1637d012b08
:1007800001d0bde8f0812046fff75dfd02236375cf
:100790002046fff7a0fdf4e70378002b60d090f926
:1007a0001030022b5cd170b50546066ab46940f280
:1007b0001c02c2f2f162c4f307236c2101fb032384
:1007c000e4b2db68282202fb043494f91c00b0f187
:1007d000ff3f09d0637fa3b9c0b200f01f0301211e
:1007e0009940400906f03cf9626ab3699a4211d017
:1007f0002846fff7f3fc2c6a14b1637d012b22d04d
:1008000070bdc0b200f01f0301219940400906f0fd
:100810002ef9e9e701233375f6692846fff7defc78
:100820006368002be7d095f82630013385f8263031
:100830006368a26831460120984795f82630013b4d
:1008400085f82630d7e72046fff7fdfc02236375c5
:100850006b695d6823696268e168a068a847cfe7b3
:100860007047000070b5002860d140f21c03c2f24e
:10087000f1631b78002b6ad140f21c03c2f2f163d2
:10088000012083f8680083f8690083f86a00187013
:100890000d685d618a6a9a614a6ada6100221a62a9
:1008a0000c69dc604c699c605a6098844ff0ff30a2
:1008b000986283f826205a7091f9040083f82c007e
:1008c00091f9054083f82d408e681e63ce685e6303
:1008d0008e699e64ce69de640e6a1e65c96a99657a
:1008e00083f860205a6640f2a002c2f2f162531e01
:1008f0001f32ff2103f8011f9342fbd1b0f1ff3fec
:1009000002d0b4f1ff3f09d1eb6840f21c01c2f202
:10091000f16140f29970c2f2f060984740f21c0316
:10092000c2f2f16302221a74002070bd06f027fda6
:1009300010b94ff0ff30f8e706f01bfd4bf2f41151
:10094000c2f2f06106f005fc4ff0ff30ede706f073
:1009500016fd10b94ff0ff30e7e706f00afd034936
:1009600006f0f7fb4ff0ff30dfe700bf0cb2f026d8
:1009700038b550b940f21c03c2f2f16393f8683005
:10098000012b10d04ff0ff3038bd06f0f8fc10b945
:100990004ff0ff30f8e706f0ecfc534906f0d9fbc6
:1009a0004ff0ff30f0e740f21c03c2f2f163002287
:1009b00083f8682093f91030022b61d140f21c03b8
:1009c000c2f2f1631b78002b5ad040f21c03c2f232
:1009d000f1635b78002b66d140f21c03c2f2f16335
:1009e0005b68002b69d140f21c03c2f2f1639d6881
:1009f000002d6fd040f21c03c2f2f163da6810469a
:100a0000d3784bb1283200230133ab4262d0104679
:100a10002832c478002cf7d10122c27011f0080fdf
:100a200005d040f21c02c2f2f1620124547040f27f
:100a30001c02c2f2f162546801345460948cdbb23f
:100a400043ea04434362938c01339bb24ff6ff7237
:100a5000934208bf012340f21c02c2f2f162938468
:100a6000012382f8683041f0040181700023436063
:100a70008360ff22027780f820300380406a83e79a
:100a800006f07dfc48b940f21c03c2f2f16301227a
:100a900083f868204ff0ff3076e706f06afc1349d0
:100aa00006f057fbefe740f21c03c2f2f1630122ac
:100ab00083f868204ff0ff3066e711f0080f92d0fe
:100ac00040f21c03c2f2f163012283f868204ff068
:100ad000ff3059e740f21c03c2f2f163012283f8b0
:100ae00068204ff0ff304fe744b2f0265cb2f026aa
:100af000f8b50f461646fff749fb90b1054640f2a0
:100b00001c03c2f2f16304886c2202fb0434204609
:100b1000fff7d7fc78b16f60ae602046fff736fd77
:100b2000f8bd06f02cfc0028fad006f022fc07499c
:100b300006f00ffbf4e706f022fc0028f0d006f0e8
:100b400018fc034906f005fbeae700bf78b2f0267f
:100b5000b0b2f0262de9f04f83b00d9e002e00f0cc
:100b6000f780009315460f46019104464ff0ff337e
:100b70003360fff70bfb8146002800f0e980002d71
:100b80007bd0002f79d0b9f800a040f21c02c2f24d
:100b9000f1626c2303fb0a2393f8603053b140f2f7
:100ba0001c02c2f2f1626c2303fb0a23db6da34239
:100bb00040f0ce804ff06c0b0bfb0afb40f21c08a0
:100bc000c2f2f168d8444046fff77bfc00285cd0b5
:100bd000b9f800c040f21c02c2f2f1626c2303fbc0
:100be0000c239f69d869002800f0b9803b785bb17d
:100bf00007f1240200230133984200f0b080174629
:100c000012f8241b0029f6d101223a7000223a6220
:100c100040f21c02c2f2f1626c2101fb0c21888cb3
:100c200099f80020120242ea0042dbb21343fb6152
:100c30008b8c01339bb24ff6ff72934208bf0123a6
:100c400040f21c01c2f2f1616c2202fb0c1cacf8f8
:100c50002430009b7b60019bbb6001237b750023dc
:100c60003b75bc61d9f81830fbb1082b33d86d0047
:100c7000fd600c9b5b003b611ae00c9b002b67d076
:100c8000009b002b7ff47faf62e006f078fb00282a
:100c90005ed006f06efb364906f05bfa58e006f0cf
:100ca00068fb344906f055fa5de0fd600c9b3b6142
:100cb000fb693360d8f820309bb140f21c03c2f2cc
:100cc000f1639b44dbf82030002b3ed01a6a002ae7
:100cd00037d11a4638e0ad00fd600c9b9b003b61ac
:100ce000e6e7c8f8207002237b753846fff7abfab9
:100cf00040f21c02c2f2f1626c2303fb0a2393f957
:100d00002c30b3f1ff3f0bd040f21c02c2f2f16273
:100d10006c2303fb0a2393f92d30b3f1ff3f1ad163
:100d200040f21c03c2f2f1636c2202fb0a3adaf8c9
:100d300014305c683b697a68f968b868a04704e0d9
:100d40001a46136a002bfbd117624046fff71efcc0
:100d500003b0bde8f08f3846fff7bdfaf5e706f0bf
:100d60000efb00289bd14046fff710fcf0e700bfc8
:100d7000b0b2f026ccb2f02600b583b001930023c8
:100d80000093fff7e7fe03b05df804fb10b5ccb2ab
:100d9000024646f25701c2f2f061204605f07cfea1
:100da00004f01f0301219940600905f067fe10bda2
:100db00008b5c0b200f01f0301219940400905f0b9
:100dc00064fe08bd48f24003cff6034304225a6193
:100dd000704748f24003cff6034304221a6170477c
:100de00048f2c003cff603434ff000721a61704718
:100df00048f2c003cff603434ff000725a617047c8
:100e0000012800d0704740f2c403c2f2f1639b682e
:100e10008b420ed040f2c403c2f2f163db688b4216
:100e2000f0d140f2c403c2f2f1635a7c01325a7429
:100e3000e8e740f2c403c2f2f1631a7c01321a748b
:100e4000704710b540f2c404c2f2f16404f1080323
:100e50000a4601466068fff78fffa368b3f1ff3fc2
:100e600015d040f2c404c2f2f16401e006f0adfa1c
:100e700006f0a7fa237c002bf8d040f2c402c2f29d
:100e8000f162013b137406f0a0fa012010bd0020ae
:100e9000fce710b582b040f2c404c2f2f16404f180
:100ea0000c03019300910346012240f2c001c2f2fb
:100eb000f1616068fff74efee368b3f1ff3f16d0c3
:100ec00040f2c404c2f2f16401e006f07efa06f0da
:100ed00078fa637c002bf8d040f2c402c2f2f162cf
:100ee000013b537406f071fa012002b010bd0020de
:100ef000fbe738b506f065fa40f2c404c2f2f164cb
:100f00000025257406f061fa06f05bfa657406f0b8
:100f10005cfa6368b3f1ff3f0cd040f2c403c2f245
:100f2000f163002240f60161c2f2f0615868fff7f8
:100f3000dffd38bd40f2c404c2f2f1640321208811
:100f4000fff716fd6060b0f1ff3fe6d106f017fa3b
:100f50000028e2d006f00dfa4bf21831c2f2f0612f
:100f600006f0aff8d9e740b1028840f2c403c2f2fc
:100f7000f1631a804ff0ff325a60704710b506f0e7
:100f800020fa40f2c404c2f2f164237c01332374da
:100f900006f01bfa06f015fa637c0133637406f061
:100fa00014fa10bd08b503f08dfe08bd08b5fff7b3
:100fb0001ffffff707ff642003f084fefff710ff19
:100fc0000a2003f07ffefff704ff0a2003f07afef9
:100fd00008bd704700b583b040f2d803c2f2f16398
:100fe00000229a7001a941f2700000f099fc0346ba
:100ff00018b1184603b05df804fb019941f00201f5
:10100000019141f2700000f08ffc0346f1e708b552
:1010100040f2d803c2f2f1639b78e3b940f2d803ff
:10102000c2f2f1635b782bb940f2d803c2f2f163ec
:101030001b7853b940f2d802c2f2f16253780133ff
:10104000dbb253700023184608bd01f0affd034624
:101050000028efd0f7e70023f5e740f2d803c2f20b
:10106000f1635b783bb140f2d802c2f2f16253788f
:10107000013bdbb253700020704708b540f2d80343
:10108000c2f2f1635b783bb140f2d802c2f2f16286
:101090005378013bdbb2537040f2d803c2f2f163e4
:1010a0005b7853b940f2d803c2f2f1631b780bb9f5
:1010b000002003e001f045fd00e0002008bd08b578
:1010c000fff7a5ff40f2d803c2f2f163c0ef500072
:1010d00043f90f0ac3ed040bc3ed060bc3ed080b78
:1010e00008bd00002de9f04f87b005460e46934637
:1010f0009a46109fbdf84490bdf8488040f2001415
:10110000c2f2f16401e006f060f906f05af92378c2
:10111000002bf8d040f20012c2f2f162013b1370d2
:1011200006f053f906f07f038df815308df8145052
:10113000002f3ad009f1080343449bb2adf81630b2
:1011400040f23c62934200f2fc80fff760ff0446ed
:10115000002840f0eb8000230393adf806300293a3
:10116000029b1d430295029b43ea06260296029bc0
:10117000bdf8162043ea02430293029941f28c0023
:1011800000f0d2fb0446a0b1fff767ff06f019f9a3
:1011900040f20013c2f2f1631a7801321a7006f0bd
:1011a00014f9204607b0bde8f08f0af108039bb29e
:1011b000c4e700230293029b43f0020302930299c7
:1011c00041f2780000f0b0fb04460028dcd1002397
:1011d0000393adf80630bdf806309bb2b3f57a7fc5
:1011e0003ed241f278044bf22c35c2f2f06512e0a7
:1011f0000120fff7d7fe029b13f0020f26d0bdf8a7
:10120000063001339bb2adf80630bdf806309bb214
:10121000b3f57a7f24d202a9204600f081fbf8b909
:10122000bdf806309bb2b3f5fa7fe4d3bdf80630c3
:101230009bb2b3f5fa7fdbd806f0a1f80128d7d925
:1012400006f097f8294605f03cffd1e703a94ff4d3
:101250008060c0f2150000f063fb044600284fd107
:10126000039b002b4fd0039b04930498082205a9ed
:1012700000f08bfb0446002886d1049b08330493be
:10128000bbf1000f0bd004985246594600f07dfb8d
:10129000044600287ff478af049b5344049387b13d
:1012a000049aa8eb0a031344049304984a46394667
:1012b00000f06bfb044600287ff466af049b4b44b0
:1012c0000493039b9b000293029b43f0020302934f
:1012d000029941f26c0000f027fb044600287ff4dd
:1012e00053affff7cafe044606f06bf840f2001356
:1012f000c2f2f1631a7801321a7006f066f850e70c
:101300000023039340e7fff7b8fe044606f037f8e2
:10131000032802d86ff0020438e706f02af82246c4
:10132000114905f0cefe6ff002042fe706f027f812
:1013300000283ff42baf06f01cf80c4905f0c1fe65
:1013400024e706f01cf810b94ff0ff341ee706f052
:1013500010f840f23c63bdf81620054905f0b1fed7
:101360004ff0ff3412e700bf40b3f02660b3f02621
:1013700084b3f02630b587b040f20014c2f2f164b5
:1013800001e006f022f806f01cf82378002bf8d0d4
:1013900040f20012c2f2f162013b137006f015f840
:1013a00003a941f2700000f0bbfa0446002840f0a7
:1013b0009281039911f0010f00f0748121f0010175
:1013c000039141f2700000f0affa0446002840f0ab
:1013d0006c8140f2d803c2f2f16301229a70039d3e
:1013e000c5f38b05002d00f04f810023059305a95f
:1013f00041f2840000f094fa0446002848d1059890
:1014000040f2d803c2f2f16358609d60042204a93f
:1014100000f08efa0446002845d1bdf812309d42f6
:1014200002d0eb1a042b49dc05f0cbff40f200138d
:10143000c2f2f1631a7801321a7005f0c6ff9df806
:101440001030012b51d0022b7ed0042b00f09b805a
:10145000062b00f0b780072b00f0d380052b40f05f
:10146000fb8040f2d803c2f2f1635b6a002b00f00c
:10147000e88040f2d803c2f2f1635b6abdf8121053
:101480000839059a083289b29df81100984740e062
:1014900005f075ff002800f0088105f06aff984903
:1014a00005f00ffe01e105f06aff002800f0fd8065
:1014b00005f05fff934905f004fef6e005f05fffdd
:1014c00010b96ff00504f0e005f053ff9df81130fe
:1014d00001939df810300093bdf812302a468a49d6
:1014e00005f0effd6ff00504dfe040f2d803c2f233
:1014f000f163db68f3b140f2d803c2f2f163db6859
:10150000bdf812100839059a083289b29df8110009
:10151000984740f2d803c2f2f1639b78002b00f0a9
:10152000cf8005f02cff002840f0a480fff752fd8b
:101530000446c5e005f023ff0028ead005f019ffb6
:10154000724905f0befde4e740f2d803c2f2f16350
:101550001b6973b140f2d803c2f2f1631b69bdf895
:1015600012100839059a083289b29df8110098477f
:10157000cfe705f004ff0028cbd005f0fafe644960
:1015800005f09ffdc5e740f2d803c2f2f1635b6945
:1015900073b140f2d803c2f2f1635b69bdf8121077
:1015a0000839059a083289b29df811009847b0e7ca
:1015b00005f0e5fe0028acd005f0dbfe554905f04e
:1015c00080fda6e740f2d803c2f2f1631b6a73b153
:1015d00040f2d803c2f2f1631b6abdf81210083959
:1015e000059a083289b29df81100984791e705f0f5
:1015f000c6fe00288dd005f0bcfe474905f061fd10
:1016000087e740f2d803c2f2f1639b6973b140f2fd
:10161000d803c2f2f1639b69bdf812100839059a2c
:10162000083289b29df81100984772e705f0a7fecd
:1016300000283ff46eaf05f09cfe384905f041fdef
:1016400067e705f09cfe00283ff463af05f091fecc
:10165000334905f036fd5ce705f091fe10b96ff0f7
:1016600005042de005f085fe2e4905f02afd6ff0fa
:10167000050425e005f07dfe9df811309df8102051
:10168000294905f01efd51e705f079fe10b96ff00c
:1016900001040ae005f06dfe244905f012fd6ff02b
:1016a000010402e005f06bfe70b905f08afe40f21d
:1016b0000013c2f2f1631a7801321a7005f085fe48
:1016c0009cb9204607b030bd05f053fe039a184977
:1016d00005f0f7fce9e705f052fe0028e5d005f03b
:1016e00048fe144905f0edfcdfe705f048fe002850
:1016f000e7d005f03efe22460f4905f0e2fce0e7a8
:10170000b8b3f026e0b3f026fcb3f0263cb4f026e4
:1017100060b4f02684b4f026a8b4f026ccb4f02649
:10172000f0b4f02614b5f02630b5f02660b5f026fa
:1017300074b5f02690b5f026b8b5f02670b51d4604
:1017400078b31446034661b35ab340f2d802c2f2ea
:10175000f1629268944238d840f2d802c2f2f16243
:101760005268824245d8261840f2d802c2f2f1628d
:1017700050689268024496423bd82246184600f0d0
:10178000d7f8034688b940f2d802c2f2f162516834
:1017900092680a44964200d03db1fff71bfc034615
:1017a00003e025b1fff716fc0346184670bd05f0af
:1017b000e6fd10b96ff00b03f7e705f0dafd144909
:1017c00005f07ffc6ff00b03efe705f0d8fd10b9d3
:1017d0006ff00b03e9e705f0ccfd40f2d803c2f24d
:1017e000f1639b6822460b4905f06bfc6ff00b031d
:1017f000dbe705f0c4fd10b96ff00b03d5e705f08a
:10180000b8fd054905f05dfc6ff00b03cde700bfa7
:10181000e8b5f0260cb6f02654b6f026431e062b8b
:1018200036d8dfe803f00b0419122e20270040f20f
:10183000d803c2f2f16319610020704740f2d80367
:10184000c2f2f163d9600020704740f2d803c2f2bf
:10185000f16359610020704740f2d803c2f2f1638e
:10186000d9610020704740f2d803c2f2f1631962d7
:101870000020704740f2d803c2f2f1639961002062
:10188000704740f2d803c2f2f163596200207047fa
:1018900010b5044605f073fd40b105f06afd22461f
:1018a000044905f00efc6ff00b0010bd6ff00b004b
:1018b000fbe700bf9cb6f02608b540f2d803c2f2a1
:1018c000f163c0ef500043f90f0ac3ed040bc3ed01
:1018d000060bc3ed080b05f074fd40f20013c2f2d5
:1018e000f16301221a7005f070fd40f6d371c2f267
:1018f000f0610320fff792ff002008bd08b5fff755
:1019000055fb0120fff74efb002008bd002070476b
:1019100008b501f009fd08bd08b501f0c8fd08bd16
:1019200008b501f031fd08bd08b501f0c9fd08bddd
:101930002de9f0478a4615464cf62023c2f2f063a3
:101940001f88083fbfb2ba421cd93e460446a1ebed
:101950000009a7eb00083a4609eb0401204601f014
:10196000c1fe034658b9ad1b08eb04013444ae4236
:10197000f1d3aab25144204601f0b4fe0346184602
:10198000bde8f08704460021f3e72de9f0478a46d9
:1019900015464cf62023c2f2f0631f88083fbfb201
:1019a000ba421cd93e460446a1eb0009a7eb000849
:1019b0003a4609eb0401204601f023ff034658b9db
:1019c000ad1b08eb04013444ae42f1d3aab251443a
:1019d000204601f016ff03461846bde8f08704468e
:1019e0000021f3e730b585b000230393c0ef10006a
:1019f000cded010b00284ad00446c0ef500003464d
:101a000043f90d0a43f90d0a43f90f0703a908200a
:101a1000c0f20c00fff784ff0346002838d103987a
:101a2000002838d0082201a940f44030fff780ff99
:101a3000034668bbbdf80800039078b3282221460e
:101a400040f44030fff774ff034608bb2279a179c8
:101a500001f00f0141ea022160790001c0b2e5798d
:101a6000627a02f00f0242ea0522247a2401e4b2eb
:101a70002243014315d0bab141f27730824216d8e1
:101a800041f27632914298bf6ff00c0300e00023e0
:101a9000184605b030bd6ff00b03f9e76ff00b038c
:101aa000f6e76ff00b03f3e76ff00b03f0e76ff06f
:101ab0000c03ede738b50020fff720ff0446b8b966
:101ac00001f054fc00f0c3ff000d0005b0f5401f0d
:101ad0001bd101f073fd05f052fc012818d800213c
:101ae0004ff44070c0f20200fff71eff204638bde1
:101af00005f045fc0028f9d005f03bfc4bf2a8614d
:101b0000c2f2f06105f0ddfaf0e701f09bf8e0e7e2
:101b100005f02ffc054600f09aff024602492846d0
:101b200005f0cffadbe700bfc8b6f02638b501f004
:101b30001dfc0020fff7e2fe48b901f03ffd04461e
:101b400098b905f01cfc012819d8204638bd044678
:101b500005f015fc0028f8d005f00bfc4bf2a8614d
:101b6000c2f2f06105f0adfaefe705f008fc0028dd
:101b7000ebd005f0fefb074905f0a3fae5e705f019
:101b8000f8fb054600f063ff02460349284605f0ce
:101b900098fadae7d8b6f026c8b6f02638b580b19c
:101ba0000478631edbb2042b28bf0124204601f019
:101bb0007df8054638b1fff7a9fe01f0defb2846a7
:101bc00038bd0124f2e7204601f01af90546002845
:101bd000f1d1023ce4b2012cf1d900f00cff054632
:101be0000028ecd005f0cbfb0028e4d005f0c1fbc9
:101bf000014905f066fadee7f8b6f02610b501f007
:101c00006df970b9fff784fe002002f08dff0446e5
:101c100090b9fff77bfe0446c0b901f0aefb204649
:101c200010bd044605f0abfb0028f8d005f0a1fb81
:101c30000b4905f046faf2e705f0a1fb0028eed0cb
:101c400005f097fb074905f03cfae8e705f097fb3c
:101c50000028e4d005f08dfb034905f032fadee7f9
:101c600018b7f02638b7f02660b7f0262de9f04116
:101c70009eb015462c2835d004461b2845d0062892
:101c800056d00e283ed0322865d03d2876d02f2859
:101c900000f08780342800f09d80112800f0c38078
:101ca000132800f0e180042800f0f380652800f09c
:101cb0000581092800f017812a2800f029812728aa
:101cc00000f03b81202800f04d811d2800f06c8140
:101cd00005f055fbb0b105f04cfb2246b14905f0cb
:101ce000f0f90fe00023042203a92846fff726fda0
:101cf00040b940f22013c2f2f1631b6813b103a98b
:101d00002c2098471eb0bde8f0810023082203a9cb
:101d10002846fff713fd0028f4d140f22013c2f249
:101d2000f1631b68002bedd003a91b209847e9e75e
:101d30000123302203a92846fff700fd0028e1d146
:101d400040f22013c2f2f1631b68002bdad003a922
:101d500006209847d6e70023182203a92846fff754
:101d6000edfc0028ced140f22013c2f2f1631b68d3
:101d7000002bc7d003a932209847c3e701230022d4
:101d800011462846fff7dafc0028bbd140f22013a9
:101d9000c2f2f1631b68002bb4d000213d209847ac
:101da000b0e764242246002103a806f0b2ff002316
:101db000224603a92846fff7c1fc0028a2d140f221
:101dc0002013c2f2f1631b68002b9bd003a92f20c4
:101dd000984797e70023042203a92846fff7aefca3
:101de00000288fd105f0cbfa01280ad840f2201341
:101df000c2f2f1631b68002b84d000213420984785
:101e000080e705f0b6fa039ad3b20193c2f3072331
:101e10000093c2f30743120e4bf27c71c2f2f061e1
:101e200005f04ff9e2e740f22812c2f2f162002316
:101e30001370042203a92846fff780fc00287ff4d2
:101e400061af9df80c2040f22613c2f2f1631a70c4
:101e500040f22013c2f2f1631b68002b3ff452af33
:101e600003a9112098474de700232c2203a92846f7
:101e7000fff764fc00287ff445af40f22013c2f264
:101e8000f1631b68002b3ff43daf03a91320984773
:101e900038e7002304221ca92846fff74ffc00283e
:101ea0007ff430af40f22013c2f2f1631b68002bc5
:101eb0003ff428af1ca90420984723e700230422fd
:101ec0001ca92846fff73afc00287ff41baf40f21c
:101ed0002013c2f2f1631b68002b3ff413af1ca95f
:101ee000652098470ee70123642203a92846fff7df
:101ef00025fc00287ff406af40f22013c2f2f16304
:101f00001b68002b3ff4feae03a909209847f9e6b1
:101f10000123042203a92846fff710fc00287ff4c0
:101f2000f1ae40f22013c2f2f1631b68002b3ff4c4
:101f3000e9ae03a92a209847e4e60023042203a976
:101f40002846fff7fbfb00287ff4dcae40f22013ad
:101f5000c2f2f1631b68002b3ff4d4ae03a9272023
:101f60009847cfe60023082203a92846fff7e6fb9f
:101f700000287ff4c7ae0123bdf81020039905f1b6
:101f80000800fff7dbfb00287ff4bcae40f2201313
:101f9000c2f2f1631b68002b3ff4b4ae03a920200a
:101fa0009847afe69cb7f0260023042202a92846f2
:101fb000fff7c4fb00287ff4a5aebdf80a80bdf88a
:101fc0000830adf80e3040f21c13c2f2f1631b680a
:101fd000002b3ff497ae40f21813c2f2f1631b6876
:101fe000002b3ff48fae40f22413c2f2f1631b8842
:101ff000002b3ff487ae40f22417c2f2f16740f2a3
:102000001814c2f2f16440f21c16c2f2f1661ee02e
:102010000023adf80c20216808eb0500fff78efbcc
:1020200000287ff46faebdf80c30bdf80e20d21a38
:10203000adf80e2043441ffa83f8336803aa2168e1
:102040001d209847bdf80e30002b3ff45baebdf865
:102050000e303a889342dbd81a460123d9e700bff5
:1020600038b5049c002b49d02c3292b21d465b68d7
:10207000002b46d02b7a202b46d8002c47d0a31c0f
:10208000c0ef500043f90f0a04f1120343f90f0a9d
:1020900004f1200343f90f0a2280012807d043b23c
:1020a0004bb1022836d1a37843f00203a370a37882
:1020b00043f00103a3706b7aff2b1dd0013bdbb211
:1020c0000d2b2ad8e3704b1edbb2032b28d884f8e3
:1020d0002c102a7a22716968601d06f00ffe2b68a9
:1020e0000bb3012384f825302b681a68c4f8262026
:1020f0009b88638500200fe0e370e4e76ff00e003b
:102100000ae06ff00e0007e06ff00e0004e06ff0e1
:102110000b0001e06ff00e0038bd6ff00e00fbe722
:102120006ff00e00f8e70020f6e710b5fff7c2fced
:10213000044608b1204610bd00f05dfc40f22713b4
:10214000c2f2f16301221a70f4e708b5fff7eefc62
:10215000034628b940f22712c2f2f1620121117040
:10216000184608bd10b58eb001238df80f30002839
:1021700000f0b48040f22012c2f2f16201681160f6
:1021800040f21c12c2f2f1628168116040f2181232
:10219000c2f2f162c168116040f22412c2f2f1622f
:1021a000018a1180837c13b104238df80f3040f233
:1021b0002813c2f2f16300221a700df10f00fff72d
:1021c000edfc044610b120460eb010bd40f22713be
:1021d000c2f2f16302221a70fff76efb044640b1af
:1021e00040f22713c2f2f16300201870fff706fdda
:1021f000e9e741f66d41c2f2f0610120fff70efb05
:1022000004a8fff7effb044605f0b9f8012820d831
:1022100005f0b5f8012822d805f0b1f801282ed82c
:1022200005f0adf8012834d805f0a9f801283dd80b
:1022300005f0a5f8012842d814f10d0fc3d105f01f
:102240009ef80028bfd005f094f8264904f039ff25
:10225000b9e705f08ef8244904f033ffd8e705f01c
:1022600088f8bdf8303001939df8163000939df842
:1022700015309df814201d4904f023ffcce705f02c
:1022800078f80df126030df11a02194904f019ff2f
:10229000c6e705f06ef89df8193000939df81830e8
:1022a0009df81720134904f00cffbde705f061f815
:1022b000072300931322104904f003ffb8e705f049
:1022c00058f84bf27c71c2f2f06101f5ae7301f582
:1022d000b47201f5ba7104f0f4feade76ff00b04cf
:1022e00071e700bf10b9f0263cb8f02658b8f026c8
:1022f0007cb8f0269cb8f026c0b8f02610b540f2a5
:102300002713c2f2f16300241c702046fef7d7feab
:102310002046fff773fc204610bd08b5fff72af8ea
:1023200008bd00b585b000220292019200921346ca
:1023300029210120fef7d6fe05b05df804fb00b5ab
:1023400091b004ab00930b4600220121fff788fef9
:10235000034618b1184611b05df804fb0023029340
:1023600001930093302304aa3b210120fef7bafe1b
:102370000346efe7f0b591b0002a78d016460b4639
:1023800004aa00926c220221fff76afe054610b1f2
:10239000284611b0f0bd6c2006f09afb04460028d8
:1023a00062d06c22002106f0b4fc316800293fd0d5
:1023b00073682bb16ff00e05204606f0f7fae7e7d9
:1023c0002046402300f8013b8d1c04f121070646fe
:1023d0001be0273bdbb21b01dbb2337012f8012c90
:1023e000303ad2b2092a0ad942f02002a2f1310cc5
:1023f0005ffa8cfcbcf1050f17d8273ad2b2134410
:1024000006f8013b0235be4234d02a4615f8023c9c
:10241000303bdbb2092bded943f02003a3f1310cb2
:102420005ffa8cfcbcf1050fd3d96ff00e05c3e742
:102430007168b1b1327a402a02d96ff00e05bbe75c
:10244000204600f8012b06f059fc302302936c2241
:102450000192009404aabb210120fef743fe054629
:10246000aae76ff00e05a7e76ff0020590e76ff09f
:102470000e058de7227806f041fce6e72de9f041f4
:1024800090b0002a7fd014461368fbb16368002b1c
:102490007cd0a368002b7cd0a589e689ab19642b7e
:1024a0007ad8228ab2f5807f79d80b4635442c350c
:1024b0001544adb204aa00922a460421fff7d0fdcc
:1024c000074628b1384610b0bde8f0819381dde7ba
:1024d000284606f0fdfa0646002851d000f12c08e7
:1024e0002a46002106f015fc01233370a37c0bb1b2
:1024f00081233370e37c1bb1337843f040033370a6
:102500002c23f3704cf62423c2f2f0631b68736231
:1025100006f10c0c40f20417c2f2f1670fcface8e1
:102520000f003b68ccf8003000237370216829b39a
:10253000277b77703a46404606f0e0fb4744a27b93
:10254000b2706168384606f0d9fbb0783844a0eb29
:102550000808a6f80480228af280a16806f0cefb63
:10256000302302930195009604aabb210120fef7b7
:10257000b9fd0746304606f019faa3e74746dee7fd
:102580006ff002079ee76ff00e079be76ff00e07f4
:1025900098e76ff00e0795e76ff00e0792e76ff080
:1025a0000e078fe72de9f04393b0002a00f0c080ba
:1025b00014461368002b32d06368002b00f0bb80f8
:1025c000a368002b00f0ba80e368002b00f0b9800c
:1025d0002369002b00f0b880a28ae68a9319642b45
:1025e00000f2b580278bb7f5807f00f2b380658b52
:1025f000b5f5c66f00f2b1800b4632442c3215445b
:1026000005eb4705adb206aa00922a460421fff762
:1026100027fd074628b1384613b0bde8f083938202
:10262000cae7b4f81a80a5eb0805adb2284606f053
:102630004ffa0646002878d0c0ef1000cded040b0d
:1026400000f12c092a46002106f063fb02233370b7
:10265000237f0bb182233370637f1bb1337843f048
:10266000400333702c23f3704cf62423c2f2f06342
:102670001b68736206f10c0c40f20417c2f2f1679a
:102680000fcface80f003b68ccf80030002373702c
:10269000216800293cd0277d77703a46484606f0ed
:1026a0002dfb4f44a27db2706168384606f026fbd0
:1026b000b3781f44a7eb0903b380228bf280a16893
:1026c000384606f01bfbf2881744e168384606f0ee
:1026d00015fbf3881f44a7eb0907bfb23781a6f8a3
:1026e0000a8001208df81000adf81470adf8168046
:1026f00008230293cdf804802269009204aabc2129
:10270000fef7f0fc074628b1304606f04ff982e7a5
:102710004f46c7e7302302930195009606aabb21d6
:102720000120fef7dffc0746eee76ff0020772e7d5
:102730006ff00e076fe76ff00e076ce76ff00e0794
:1027400069e76ff00e0766e76ff00e0763e76ff05b
:102750000e0760e76ff00e075de76ff00e075ae7b0
:1027600000b585b00023029301930093182302461d
:102770000a210220fef7b6fc05b05df804fb00b5a7
:1027800085b000284ff00002029201920092134699
:1027900014bf0b210c210220fef7a4fc05b05df84c
:1027a00004fb10b50446fef732fc034608b1184698
:1027b00010bd204600f0c0fb03460028f7d1fef70d
:1027c0005cfc0346f3e700b587b08df814000023e6
:1027d000029301930093042305aa12210120fef71e
:1027e00081fc07b05df804fb40f22613c2f2f163ee
:1027f0001878704708b500f02af908bd40f2271391
:10280000c2f2f1631878704730b59db014460628bf
:102810001fd0072831d0012801d01db030bd0023c2
:10282000702269462046fef789ff0546002872d1ce
:1028300040f22c13c2f2f1631a68002a6bd040f206
:102840003013c2f2f16370341c6069460120904776
:1028500061e00023042269462046fef76fff05462b
:10286000002858d140f22c13c2f2f1631b68002bf0
:1028700051d06946062098474de00023082269465a
:102880002046fef75bff0546002838d1bdf804203e
:10289000bdf80600bdf802309df800107ab94cf67c
:1028a0002822c2f2f06201241470984214bf00235f
:1028b0000123032957d8dfe801f00d211b3f024413
:1028c0009a4214bf00230123032945d8dfe801f011
:1028d000021610344cf62822c2f2f0621278012a55
:1028e0000cd14cf62822c2f2f0620021117005e0f2
:1028f0004cf62822c2f2f062022111705bb140f264
:102900002c13c2f2f1631b682bb14cf62821c2f2e2
:10291000f06107209847002d3ff47faf04f02ffdb2
:1029200000283ff47aaf04f024fd4bf6d821c2f220
:10293000f06104f0c6fb70e74cf62822c2f2f062a8
:102940001278022adad0042ad8d04cf62822c2f211
:10295000f06203211170d1e74cf62822c2f2f06236
:102960001278022acad04cf62822c2f2f062042160
:102970001170c3e710b540f22c13c2f2f163186076
:1029800040f23013c2f2f16300221a604cf62823a1
:10299000c2f2f06304221a7042f60901c2f2f06139
:1029a0000520fef73bff044608b9204610bd04f0a1
:1029b000e6fc0028f9d004f0dcfc2246014904f0d2
:1029c00080fbf2e7fcbaf02670b582b040f4807567
:1029d0004ff4a554002629462046fef7a5ff019690
:1029e00001a92046fef79cff0028f4d1019bab42d1
:1029f000f1d102b070bd00b583b00023019301a9ed
:102a000041f20840fef78cff034618b1184603b0a8
:102a10005df804fb019941f48071019141f2084095
:102a2000fef782ff03460028f0d101a94ff4d050f1
:102a3000fef776ff03460028e8d1019941f4803182
:102a400001914ff4d050fef76fff0346dee710b55b
:102a500082b040f23413c2f2f1631c683cb140f220
:102a60003413c2f2f1631c68204602b010bd19464f
:102a70004ff48050fef754ff30b140f23413c2f2ed
:102a8000f16300221a60efe701a941f2f430fef78a
:102a900047ff00bb40f23413c2f2f1631b684ff4ee
:102aa0002872c0f2100293421cd04ff42c72c0f274
:102ab0001002934223d0f022c0f2100293422fd092
:102ac00040f23412c2f2f162136823f4702343f42b
:102ad000a0231360c3e740f23413c2f2f163002273
:102ae0001a60c1e7019b012bead040f23413c2f215
:102af000f16340f2a122c0f210021a60e0e7019bec
:102b0000032bddd0042b40f23413c2f2f1630cbf6f
:102b100040f2b12240f2b222c0f210021a60cfe7b6
:102b200040f23411c2f2f1614ff46c10fef7f8fe7e
:102b30000028c5d040f23413c2f2f16300221a60bb
:102b400092e710b582b0102401a92046fef7e8fef6
:102b50000346f8b9019b13f0010ff5d101a901203b
:102b6000fef7defe0346a8b9019911f0020f07d067
:102b700021f0020101910120fef7d6fe034648b97b
:102b800001a90b20fef7ccfe034618b9019911f0fc
:102b9000010f02d1184602b010bd21f001010191d0
:102ba0000b20fef7c1fe0346f4e70000f0b583b04a
:102bb0000023019301210b20fef7b6fe044610b15d
:102bc000204603b0f0bd02210120fef7adfe044611
:102bd0000028f5d10320fef7e5f905250f26022789
:102be00001a93046fef79cfe044670b9019b13f024
:102bf000040f21d13846fef7d5f9013df0d104f09c
:102c0000befb88b96ff00304dae704f0b8fb0028d4
:102c1000d6d004f0aefb019b22464bf6b431c2f293
:102c2000f06104f04efacbe704f0a3fb044904f092
:102c300048fa6ff00304c3e7fef76afec0e700bf7f
:102c4000ccbbf02630b583b00023019301a941f23b
:102c50001810fef765fe0446019941f0010101914b
:102c600041f21810fef760fe0444e4b201a94ff4eb
:102c7000a050fef755fe0444e4b2019911f4806fb0
:102c800002d160b203b030bd21f4806101914ff4f4
:102c9000a050fef749fe054601a94ff4a050fef7eb
:102ca0003ffe2844044460b2ece700002de9f04107
:102cb000804641f2140401252046fef72dfe00282f
:102cc00003db2846fef76ef9f6e740f2bc70c0f26f
:102cd0000200fef721fe10f0010f34d0b8f1020f10
:102ce00052d0b8f1030f61d0b8f1040f6fd041f2a8
:102cf0007731c1f2303141f28c00fef715fe00242d
:102d0000fff7a5fec0f30b00b0f5687f2cbf44f0c1
:102d100002002046fff758fe04f031fb012860d87e
:102d200042f66171cef652714ff00c10fef7fcfdc9
:102d30000020bde8f08104f01cfb2f4904f0c1f92c
:102d40006ff00400f5e70120fef72cf94ff00c10ae
:102d5000fef7e2fd4ff400544df29e05c1f2ad05c1
:102d600001274ff00c16a842b8d03846fef71af9e2
:102d70003046fef7d1fd013cf5d104f000fb0328fd
:102d8000d9d86ff00400d4e74df27d51c3f61c4151
:102d900040f2ac70c0f20200fef7c6fd4ff48011a5
:102da00041f28c00fef7c0fd0024a9e74df27d51f1
:102db000c3f61c4140f2ac70c0f20200fef7b4fd55
:102dc000002141f28c00fef7affd002498e741f2ac
:102dd0007731c1f2303141f28c00fef7a5fd80243d
:102de0008ee704f0c6fa41f27732c1f2303203497d
:102df00004f067f994e700bfecbbf02614bcf026a2
:102e00002de9f04385b041f28c03039342f236631f
:102e1000c0f2532302930238c0b2012806d94ff4fe
:102e2000005400200225dff8b08027e040f2ac73a8
:102e3000c0f2020303934cf2c313cdf25d7302930d
:102e4000ede704f096fa064641f28c00fef764fdc9
:102e5000074641f28c00fef75ffd81464ff4a55016
:102e6000fef75afd00904b463a464146304604f084
:102e700028f90398fef750fd013c0ad0029b8342db
:102e800016d02846fef78ef804f079fa0328f0d918
:102e9000d7e704f074fa032802d86ff004000fe0bb
:102ea00004f067fa0b4904f00cf96ff0040007e036
:102eb000029a42f23663c0f253239a4203d00020b2
:102ec00005b0bde8f083002141f28c00fef72cfd37
:102ed0000020f5e73cbcf02630bcf02610b582b0ef
:102ee0000023019301a94ff4a050fef719fd60b92a
:102ef000019921f4806101914ff4a050fef714fd77
:102f0000044668b9204602b010bd044604f037fa02
:102f10000028f7d004f02dfa064904f0d2f8f1e7c2
:102f200004f02dfa0028edd004f023fa014904f052
:102f3000c8f8e7e75cbcf02610b586b00446c0efe1
:102f40001000cded010b05a90820c0f20c00fef722
:102f5000e7fc034610b1184606b010bd082201a9cf
:102f6000059840f44030fef7e3fc03460028f2d118
:102f7000bdf804000590062203a940f44030fef796
:102f8000d7fc034603982060bdf81020a280e2e73a
:102f900070b584b09df820408df80400c3380c282b
:102fa00000f2a380dfe800f05f33a1a14d4d780768
:102fb000a1a1a1a144000b0c8df805300b0a8df8de
:102fc00006308df80710052140f23813c2f2f16384
:102fd0001b78002b75d14d1e01ab5e197f204cf282
:102fe0003c34c2f2f06413f8012b82ea4002a05c88
:102ff000b342f8d104ab1d44420005f80c2c01a8e3
:10300000fdf71fff00285fd0002004b070bdc1f3a2
:10301000072344b98df805308df8061000238df88c
:1030200007300521d0e763f07f038df80530f3e723
:10303000ff238df805308df806308df80730052117
:10304000c2e70a0c8df805200a0a8df806208df8d3
:1030500007101a0c8df808201a0a8df809208df82f
:103060000a300821b0e7c1f3072384b98df8053091
:103070008df80610130e8df80730130c8df80830fc
:10308000130a8df809308df80a2008219ce763f0b7
:103090007f038df80530ebe70b0c8df805300b0a3c
:1030a0008df806308df80710130e8df80830130ccc
:1030b0008df80930130a8df80a308df80b2009219c
:1030c00082e70139c9b29ae704f059f910b94ff013
:1030d000ff309ae704f04df94bf6d841c2f2f061a7
:1030e00003f0efff4ff0ff308fe74ff0ff308ce73a
:1030f000f0b583b006460d46cf2817d00a24012725
:1031000039460df10700fdf7c4fec8b19df8073040
:10311000b34223d015bb013c64b2b4f1ff3fefd101
:1031200004f02df998bb4ff0ff3049e001210df17b
:103130000700fdf7aefe0028e0d14ff0ff303fe082
:1031400004f01df910b94ff0ff3039e004f011f927
:10315000204903f0b6ff4ff0ff3031e0002cdfdbf9
:103160000a24012631460df10700fdf792feb0b1a9
:103170009df807300bb305bb013c64b2b4f1ff3fcf
:10318000f0d104f0fcf8e8b94ff0ff3018e004f09b
:10319000f0f8114903f095ff4ff0ff3010e004f014
:1031a000eef810b94ff0ff300ae004f0e2f80949f8
:1031b00003f087ff4ff0ff3002e0002ce1db00203e
:1031c00003b0f0bd04f0d5f8034903f07aff4ff0e7
:1031d000ff30f5e704bdf0263cbdf0262de9f04fa9
:1031e00083b083460e469246002740f23819c2f259
:1031f000f16923e004f0c3f820b94ff0ff3003b0c9
:10320000bde8f08f04f0b5f8384903f05aff4ff0ed
:10321000ff30f4e7002c2bdd41460beb0700fdf7f8
:1032200038fe78b399f800305aea030348d047448f
:103230003fb2a6eb0806b6b2002e55d0b046b6f5a2
:10324000005f28bf4ff400580a24012529460df1dc
:103250000300fdf71efe0028ccd09df8033003f0dc
:10326000f003f02bd6d0013c24b2b4f1ff3fedd1f6
:10327000baf1000f0cd041460beb0700fdf709fe39
:103280000028d4d104f07bf890b94ff0ff30b6e7b6
:1032900004f075f810b94ff0ff30b0e704f069f8aa
:1032a0009df80320124903f00cff4ff0ff30a6e712
:1032b00004f05ff80f4903f004ff4ff0ff309ee782
:1032c000022101a8fdf7e5fd0028b0d104f057f870
:1032d00010b94ff0ff3092e704f04bf8064903f0c5
:1032e000f0fe4ff0ff308ae7002088e768bdf02647
:1032f000a4bdf026dcbdf02614bef02610b582b0c9
:103300000120fdf74ffe002400942346224621466b
:10331000cf20fff73dfe2146cf20fff7e9fe012039
:10332000fdf740fe02b010bd40f23913c2f2f16366
:103330001b78012b02d06ff00500704730b583b0c9
:1033400040f23915c2f2f16500242c700094234636
:1033500022462146cf20fff71bfe2146cf20fff754
:10336000c7fe01232b70204603b030bd40f2391355
:10337000c2f2f16301221a70704740f23813c2f2b0
:10338000f16300201870704740f23913c2f2f16304
:103390001b78012b03d06ff00502104670472de912
:1033a000f04f85b00f46064640f23913c2f2f16382
:1033b00000221a70ff2895bf4ff0c4084ff0ca08ca
:1033c0000125154609244ff004094bf6d84ac2f2ec
:1033d000f06a0af5f47b0ce003f0d1ffb8bb03f010
:1033e000ceff002851d1fff789ff013cb4f1ff3f28
:1033f00054d000954b46002231464046fff7c8fda9
:103400000028e9d129464046fff772fe38bb2a461c
:10341000494603a8fff7e2fe024660bb9df80d1087
:103420009df80e301b0443ea01239df80c100b435a
:103430009df80f1043ea01633b6040f23913c2f27a
:10344000f16301211970104605b0bde8f08f03f05b
:1034500090ff32460af5bc7103f033febfe703f07c
:103460008eff0028bbd003f084ff32460af5d671e8
:1034700003f027feb3e703f082ff0028afd003f08c
:1034800078ff594603f01dfea9e703f072ff3346ab
:1034900022460af5047103f014fea4e740f2391342
:1034a000c2f2f16301221a706ff00502cbe700b59a
:1034b00083b001a9fff768ff019803b05df804fb32
:1034c0002de9f04782b040f23913c2f2f1631f7860
:1034d000012f04d06ff0050002b0bde8f0870e4662
:1034e000044640f23913c2f2f16300221a70092532
:1034f0004ff001094bf6d848c2f2f06808f5187a87
:103500000be003f03cffd0b903f039ff50bbfff7ed
:10351000f5fe013db5f1ff3f2ed0302c35d900230b
:103520000093042332462146c920fff731fd0028cd
:10353000e7d1b4f5a05f38d00021c92031e003f015
:1035400018ff224608f50b7103f0bbfddce703f022
:1035500016ff0028d8d003f00cff2246514603f096
:10356000b0fdd1e703f005ff009623462a4608f593
:10357000287103f0a6fdcae740f23913c2f2f163e5
:1035800001221a706ff00500a6e7cdf80090042321
:1035900032462146c320fff7fbfc0028b1d1394653
:1035a000c320fff7a5fd0028d1d140f23913c2f2a4
:1035b000f16301221a7000208ee7000010b582b07e
:1035c0000022009240f23813c2f2f1631a70694689
:1035d0004ef62400fff7d8fe90bb40f23813c2f23b
:1035e000f1631b788bb9009921f07c0141f0500107
:1035f00000914ef62400fff763ff002844d140f20b
:103600003813c2f2f16301221a7001a94ff48050fd
:10361000fff7bafe0446002844d103f0b0fe0328a9
:103620004ed84ef62400fff742ff20f0700141f023
:1036300050014ef62400fff743ff204602b010bdb4
:1036400040f23813c2f2f16301221a7003f097fec0
:1036500060b969464ef62400fff796fe0028bcd0fc
:1036600003f08dfe40b96ff00504e6e703f081fe3c
:10367000174903f026fdece703f07bfe154903f044
:1036800020fd6ff00504d8e703f079fe10b96ff064
:103690000504d2e703f06dfe0f4903f012fd6ff051
:1036a0000504cae703f06bfe10b96ff00504c4e728
:1036b00003f05ffe094903f004fd6ff00504bce769
:1036c00003f057fe019a064903f0fbfca9e700bf8f
:1036d00098bff026f0bff02624c0f0265cc0f0268c
:1036e00088c0f0262de9f04f85b000238df80c300e
:1036f0008df80d3040f23913c2f2f1631b78012bc3
:1037000005d06ff00503184605b0bde8f08f0746f9
:103710008a46164640f23913c2f2f16300221a704b
:10372000012e61d08846092500244bf6d849c2f203
:10373000f06909f5896b0ce003f021fe60bb03f032
:103740001efe002846d1fff7d9fd013db5f1ff3f30
:103750004ed00094334622463946c820fff718fc65
:103760000028e9d12146c820fff7c2fce0b9224673
:1037700031464046fff732fd034608bb40f239129e
:10378000c2f2f1620121117003aa9045bbd19df8ec
:103790000c208af80020b6e703f0ebfd3a4609f565
:1037a000747103f08efccae703f0e9fd0028c6d06f
:1037b00003f0dffd3a4609f5816103f082fcbee7c4
:1037c00003f0ddfd0028bad003f0d3fd594603f025
:1037d00078fcb4e703f0cdfd00963b462a4609f598
:1037e0008f6103f06efcaee70df10c0802269ae73c
:1037f00040f23913c2f2f16301221a706ff005032f
:1038000081e72de9f04f89b00490029240f239131c
:10381000c2f2f16393f80080b8f1010f06d06ff0a7
:1038200005030393039809b0bde8f08f8b4640f27f
:103830003913c2f2f16300221a70029b012b08bff8
:1038400002230293092740f23819c2f2f1694bf6bc
:10385000d84ac2f2f06a0af2cc53059380e003f032
:103860008efd002873d003f084fd049a0af294417f
:1038700003f027fc6be003f082fd002867d003f023
:1038800078fd049a0af2cc4103f01bfc5fe0b4f52a
:10389000005f8cbf4346032363f00f038df81b309a
:1038a00001210df11b00fdf7ccfaf0b129460beb1d
:1038b0000600fdf7c6fa58b399f800309bb32e44c2
:1038c00036b2641ba4b2002c00f08f802546b4f5fc
:1038d000005f28bf4ff40055adb2002ed7d0b4f52d
:1038e000005f94bf03230223d6e703f048fd40b9ed
:1038f00003f045fd58b303f03cfd059903f0e1fbef
:1039000025e003f036fd0af5a26103f0dafbefe7ec
:1039100003f035fd0028ebd003f02bfd0af5aa617a
:1039200003f0cffbe4e7022107a8fdf78afa00289d
:10393000c5d103f024fd0028dad003f01afd0af205
:103940008c5103f0befbd3e703f019fdf8b903f087
:1039500016fda8bbfff7d2fc013fb7f1ff3f3ad0fd
:1039600000220092029b0499c720fff711fb002858
:103970007ff475af0021c720fff7bafb0390002842
:103980007ff479af0026adf81c60029c9ee703f03f
:10399000f0fc0af2fc5103f094fbd8e703f0effcd3
:1039a0000028d4d003f0e5fc9df81e3000939df86c
:1039b0001d309df81c200af5c56103f082fbc6e7a7
:1039c00003f0d7fc029b0093049b3a460af58f61f3
:1039d00003f077fbbee740f23913c2f2f163012234
:1039e0001a706ff0050303931ce799f80030002b61
:1039f0000cbf02240324214607a8fdf74afa002839
:103a0000a2d008ab234413f8053c002bc6d108ab69
:103a10001c4414f8063cc32bc0d140f23913c2f247
:103a2000f16301221a70fde630b5a3b015466a288d
:103a300013d004466b2827d072283cd0742865d058
:103a4000762800f0a280782800f0bd8003f097fc73
:103a5000002840f0d68023b030bdc0ef500001ab4d
:103a600043f90f0a0023102201a92846fdf766fe3c
:103a70000028f0d140f25013c2f2f1631b68002b12
:103a8000e9d001a89847e6e70023019304220deb53
:103a900002012846fdf752fe0028dcd140f2541303
:103aa000c2f2f1631b68002bd5d09df805109df87c
:103ab00004009847cfe7c0ef1000cded010b0123c4
:103ac000082201a92846fdf739fe0028c3d19df838
:103ad000080030b94cf62923c2f2f0639df80920a2
:103ae0001a7040f24813c2f2f1631c68002cb2d085
:103af0004cf62923c2f2f063019a1978a04740f2ec
:103b00004813c2f2f16300221a60a4e7c0ef10006c
:103b1000cded010b0123082201a92846fdf70efe79
:103b2000002898d19df80830b3b140f24813c2f292
:103b3000f1631c68002c8ed04cf62923c2f2f0638e
:103b4000019a19789df80800a04740f24813c2f284
:103b5000f16300221a607ee74cf62923c2f2f0637b
:103b60009df809201a7003f00afc0128ddd903f042
:103b700000fc4cf62923c2f2f0631a784cf23c4167
:103b8000c2f2f06103f09dfacfe7842422460021bf
:103b900001a805f0bef80123224601a92846fdf739
:103ba000cdfd00287ff457af40f24c13c2f2f16311
:103bb0001b68002b3ff44fafbdf8042002a99df80d
:103bc0000600984747e700230193012304220debe9
:103bd00002012846fdf7b2fd00287ff43caf40f219
:103be0004413c2f2f1631b68002b3ff434af9df81d
:103bf0000400984740f24413c2f2f16300221a60b5
:103c000029e703f0b6fb2246014903f05afa22e7fe
:103c100060c4f02600b585b040f25413c2f2f163df
:103c2000186040f25013c2f2f163196040f2481379
:103c3000c2f2f1631a6043f62921c2f2f061042056
:103c4000fdf7ecfd002202920192009213467121d1
:103c50000420fdf747fa05b05df804fb10b584b009
:103c600040f23c14c2f2f164216062604cf62922f9
:103c7000c2f2f062127882421ad1ff2a1bd0ebb155
:103c80001c460023029301930093082340f23c1248
:103c9000c2f2f16275210420fdf724fa034620b92f
:103ca00040f24c12c2f2f1621460184604b010bd2a
:103cb0006ff00e03f9e76ff00e03f6e76ff00e03f7
:103cc000f3e700002de9f041ff2866d0002967d016
:103cd000984617460e460546fef790fd012844d14a
:103ce00040f25c14c2f2f16423682bb140f2581325
:103cf000c2f2f1631b6863b940f25812c2f2f1627a
:103d000040f25c11c2f2f161412000f06dfe044608
:103d100040bb40f25c14c2f2f164042221683046d8
:103d200000f08aff0446e8b93378ab421ad140f27a
:103d30005813c2f2f1631b68bb4234d9434535d3f3
:103d400007eb0802934234d940f25c13c2f2f163ec
:103d5000196801f5805142463944304600f06cff45
:103d6000044680b92046bde8f08103f008fb10b995
:103d70006ff00b04f6e703f0fcfa0f4903f0a1f92a
:103d80006ff00b04eee703f0fafa0028ead003f034
:103d9000f0fa0a4903f095f9e4e76ff00e04e1e761
:103da0006ff00e04dee76ff00b04dbe76ff00b043f
:103db000d8e76ff00b04d5e7b8c4f026f4c4f026ba
:103dc000f0b400252e464ff0010c2f4601782e2925
:103dd00020d009b30446634614f8012f2e2a27d0b9
:103de00032b30133dbb2042bf6d100252846f0bcf8
:103df0007047ff2b16d819b9032e3bd00025f5e7e5
:103e0000032e11d01b0643ea15250136f6b2042e07
:103e1000dcd1ebe70025e9e70025e7e70025e5e74a
:103e20000025e3e70025e1e70025dfe70025dde7e2
:103e3000002bfbd0441c012b01d93029f0d0013bd1
:103e4000dbb2a1f13002d2b2092ae7d8023318441a
:103e50003b469a00134401eb4303303b9bb214f8fa
:103e6000011ba042c5d0a1f13002d2b2092af0d97b
:103e70000025bbe71b0643ea1525b7e71046002ad5
:103e80004ad00f2b40d92de9f04f83b00e6814466d
:103e900004254ff030084ff0000b4cf6cd4eccf619
:103ea000cc4ecdf804804ff02e0922e05f4664210d
:103eb00006e004f8012b0137ffb2092912d9614647
:103ec000994223d8019a0132d2b25b1adbb29942ed
:103ed000f9d9aefb01acccf3c70c302ae9d1002fe5
:103ee000ebd0e6e7012d0ad004f8019b360a013d2c
:103ef000edb216f0ff03d9d104f8018bf2e70023ed
:103f0000237003b0bde8f08f00207047aefb012c9a
:103f1000ccf3c70c019ae2e7704700002de9f041ad
:103f200096b01446412842d00d4654283fd042282e
:103f30005bd0432877d0442800f055824b2800f00e
:103f40005282572800f095824a2800f0ed804628da
:103f500000f00681482800f04a814d2800f0fe80dc
:103f6000452800f0ee81472800f021824c2800f01f
:103f7000e681522836d1012314220deb020120469e
:103f8000fdf7dcfb70bb40f22423c2f2f1631b6837
:103f9000069a9a4226d140f21423c2f2f1631b68ba
:103fa00003b39df824200799059898471ae0002349
:103fb000042205a92046fdf7c1fb98b99df81530ec
:103fc0008df8043040f21c23c2f2f1631b684bb140
:103fd00040f21c23c2f2f1631b6801aa01219df982
:103fe0001400984716b0bde8f0810023042205a90b
:103ff0002046fdf7a3fb0028f4d19df815308df87d
:10400000043040f21c23c2f2f1631b68002be9d09c
:1040100040f21c23c2f2f1631b6801aa02219df940
:1040200014009847dee700230c2201a92046fdf783
:1040300085fb0028d6d19df90d20d3b20a2b37d8a5
:104040009df90c1040f26013c2f2f16303eb011111
:10405000c97ac9b203eb0213d97201219972bdf872
:104060000e10083989b2198140f22023c2f2f1639f
:104070001988013189b219801b889bb23bb940f283
:104080002021c2f2f1610b8801339bb20b8040f218
:104090002023c2f2f163198889b240f26013c2f2a0
:1040a000f16303eb0213d98003f069f903281ed8ea
:1040b0009df80d308df814300223adf81830bdf89e
:1040c0000630adf81a30029b079340f21c23c2f26f
:1040d000f1631b68002b85d040f21c23c2f2f16310
:1040e0001b6805aa04219df90c0098477ae703f0a4
:1040f00040f940f22023c2f2f1631b889df90d20a4
:104100004cf21051c2f2f06102f0dbffd0e79df8f3
:10411000162040f26013c2f2f16303eb00139a73ae
:104120009df81720da7394e10023442205a9204664
:10413000fdf704fb00287ff455af40f21823c2f2cc
:10414000f1631b68002b3ff44daf40f21823c2f21d
:10415000f1631b68159905a8984743e7062700e017
:1041600006270023102201a92046fdf7e7fa0028c0
:104170007ff438af9df91060f3b20a2b3ff632afef
:10418000bdf8128003f0fbf8032832d840f2601328
:10419000c2f2f16303eb061300221a73bdf90c207f
:1041a000bdf80e00bdf80610adf81e10029908917a
:1041b000db889bb2434540f09980002a01ddaa428a
:1041c0001edbadf818200023059340f21c23c2f239
:1041d000f1631b68002b3ff405af40f21c23c2f2d1
:1041e000f1631b6805aa394630469847fae6092765
:1041f000b7e703f0bef84246a14902f062ffc5e707
:1042000095b2adf81a5040f26013c2f2f163320178
:104210009b58002b3ff4e6ae40f26013c2f2f1630c
:1042200003eb06139b889bb2002b3ff4dbae40f2fe
:104230006013c2f2f16303eb06139b7adbb2012b2e
:104240007ff4d0ae40f26013c2f2f16303eb0613c9
:104250009b88eb1a1bb2002b3add40f26013c2f2ce
:10426000f16303eb0613b3f804801ffa88f840f2f9
:104270006013c2f2f163320199580123424620448f
:10428000fdf75cfa30bb40f26013c2f2f163320119
:10429000981899580591adf81880bdf81a10a1eb3f
:1042a0000808adf81a8000218180995040f21c2343
:1042b000c2f2f1631b68002b3ff494ae40f21c2362
:1042c000c2f2f1631b6805aa39463046984789e671
:1042d000a846cce703f053f800283ff483ae03f080
:1042e00048f82a46674902f0ecfe7be603f047f8ff
:1042f000032816d8102d7ff675ae01230022114633
:104300001046fdf71bfa00283ff46cae03f037f8b7
:1043100000283ff467ae03f02cf85b4902f0d1feb1
:1043200060e603f026f840f26013c2f2f16303eb9b
:104330000613db884246554902f0c3fedae707253b
:1043400000e007250023082205a92046fdf7f6f91d
:1043500000287ff447ae9df91440e3b20a2b3ff6e4
:1043600041aebdf8186003f00af8032821d8bdf863
:104370001630adf8043040f26013c2f2f16303eb83
:104380000413db889bb2b3421ad140f21c23c2f261
:10439000f1631b68002b3ff425ae40f21c23c2f2f0
:1043a000f1631b6801aa2946204698471ae60825aa
:1043b000c8e702f0deff3246354902f082fed6e75a
:1043c00002f0ddff03287ff60dae02f0d2ff40f2cf
:1043d0006013c2f2f16303eb0413db8832462d490c
:1043e00002f06ffefee5c0ef1000cded050b0422dc
:1043f000002305a92046fdf7a1f900287ff4f2adbe
:104400009df91400c3b20a2b3ff6ecad8df8040001
:104410009df915208df8052040f26013c2f2f1637a
:1044200003eb00131b899bb2002b0cbf05210a2153
:10443000002a7ff46caebdf81620083a92b240f222
:104440006013c2f2f16303eb00131a819df8182088
:104450005a7340f21c23c2f2f1631b68002b3ff435
:10446000c1ad40f21c23c2f2f1631b6801aa984758
:10447000b8e5c0ef1000cded050b0822b8e700bf8e
:104480002cc5f0264cc5f0267cc5f0265cc5f02670
:1044900094c5f026b4c5f02608b540f21023c2f248
:1044a000f1631b7803b108bdb022002140f2601017
:1044b000c2f2f16004f02dfc43f61d71c2f2f0610e
:1044c0000220fdf7abf940f21023c2f2f1630122a2
:1044d0001a7040f22023c2f2f16300221a80e2e750
:1044e00008b5b022002140f26010c2f2f16004f081
:1044f00010fc00210220fdf791f940f21c23c2f2ca
:10450000f16300221a6040f21823c2f2f1631a60cc
:1045100040f21023c2f2f1631a7008bd40f21c236e
:10452000c2f2f163186070472de9f04387b00228aa
:1045300040f0eb8001293ed0022940f0e98040f2b2
:104540002925c2f2f1652878c0b22b78724c04ebb1
:1045500003142b7801335e4203f0030306f00306d5
:1045600058bf7342dbb22b70a37a002b78d003279d
:1045700040f22925c2f2f165dff89cc12878c0b26b
:104580002c780ceb04142b7801335e4203f0030308
:1045900006f0030658bf7342dbb22b70a37a002be0
:1045a0005ed07b1e13f0ff07e8d14ff0ff352846a1
:1045b00007b0bde8f08340f22825c2f2f165287803
:1045c000c0b22c78e6b22b785c1c42f29343c9f25d
:1045d000492383fb047323449b10072707fb1343e2
:1045e000dbb22b7040f26013c2f2f16303eb0613ef
:1045f0009b7a33b3062540f22826c2f2f16642f2d6
:10460000934cc9f2492c4ff0070e40f26017c2f2ea
:10461000f1673078c0b23478e4b2337803f101083e
:104620008cfb089343449b100efb1383dbb2337067
:1046300007eb04139b7a5bb1013d15f0ff05e8d150
:10464000b3e740f26014c2f2f16404eb061405e033
:1046500040f26013c2f2f16303eb041445b201e0cf
:10466000073045b2002da2dbc0ef500044f90f0a1d
:104670000123a37240f22023c2f2f16318880130b3
:1046800080b218801b889bb23bb940f22020c2f256
:10469000f160038801339bb2038017460e4640f257
:1046a0002023c2f2f1631b889bb2e38002f067fe15
:1046b00001281bd8012e7ff47aaf002f3ff477af8b
:1046c0008df814500023029301930093042305aa4c
:1046d00050210220fcf706fd2123e372022f7ff414
:1046e00066afe37a43f08003e37260e702f041fed5
:1046f00040f22023c2f2f1631b882a464cf210518b
:10470000c2f2f06102f0ddfcd4e74ff0ff354ee776
:104710004ff0ff354be700bfd001f126c3b20a2ba3
:1047200045d8002946d040f26013c2f2f16303eb92
:1047300000139b7adbb2012b3fd1002a40d010b589
:1047400088b040f26013c2f2f16303eb0013db7a2e
:1047500013f0010f29d040f26013c2f2f16303ebb2
:104760000013db7a8df81d304b2403468df81c00b6
:1047700005aa0868496803c240f26010c2f2f160fd
:1047800000eb0310c388adf81e30002302930193a1
:1047900000930c2305aa21460220fcf7a3fc002865
:1047a00018bf6ff0080008b010bd4424dde76ff0bb
:1047b000050070476ff0050070476ff00500704707
:1047c0006ff005007047c3b20a2b54d8002955d0aa
:1047d000b2f5af6f55d840f26013c2f2f16303eb4c
:1047e00000139b7adbb2012b4ed110b588b08df847
:1047f0001000adf8122040f26013c2f2f16303eb37
:104800000013db88adf81c300728b4bf50244424c3
:1048100040f26013c2f2f16303eb0013db7a13f092
:10482000010f13d040f26013c2f2f16303eb0013e7
:10483000db7a13f0800f1cd140f26013c2f2f163f7
:1048400003eb00100489a4b24c2000e04520029440
:104850000192009110230deb030240f08001022031
:10486000fcf740fc00280cbf00206ff00d0008b0e2
:1048700010bd4520ebe76ff0050070476ff00500b5
:1048800070476ff0050070476ff00500704770b516
:1048900088b0c4b20a2c48d8002949d0002a4ad08e
:1048a00040f26014c2f2f16404eb0014a47ae4b2a2
:1048b000012c43d140f26014c2f2f1640601a51943
:1048c000a151aa80297b00293bd101242c73e97acc
:1048d00011f0010f06d0e97a49b20029b4bf462190
:1048e0004d2100e04621002b08bf4ff0ff33059318
:1048f0008df8180040f26013c2f2f16303eb001070
:10490000c388adf81a30adf81c2000230293019340
:1049100000930c2305aa0220fcf7e4fb00280cbf3f
:1049200000206ff00d0008b070bd6ff00500fae7d1
:104930006ff00500f7e76ff00500f4e76ff0050092
:10494000f1e70020efe7000010b586b0044602f062
:1049500016fd012839d8e3b20a2b3dd840f2601386
:10496000c2f2f16303eb04139b7adbb2012b36d165
:104970008df8144040f26013c2f2f16303eb0413ac
:10498000da88adf81620db7a03f00103002b4ff034
:1049900000030293019300934ff0040305aa0cbf98
:1049a00049214e210220fcf79dfb002818bf6ff023
:1049b000080040f26013c2f2f16303eb0414c0ef8d
:1049c000500044f90f0a06b010bd02f0d2fc224696
:1049d000044902f076fbbee76ff00500f3e76ff0e5
:1049e0000500f0e7d4c5f02600293dd02de9f043bd
:1049f00083b00e46002a3bd014460546042241f2fd
:104a00004801684600f018f9024628bb9df80030be
:104a1000202b30d803b3013bdbb241f2540808eb42
:104a2000c30841f24c074ff008094a463946684628
:104a300000f002f9024678b99df801109df80030a7
:104a400043ea0123ab420bd19df802301b033360d4
:104a50009df803301b032360104603b0bde8f083cc
:104a600008374745e1d1f7e76ff00e02104670476f
:104a70006ff00e02f0e76ff00b02ede770b582b059
:104a800005460e460023019311464ff40270c0f212
:104a90000100fcf749ff0446310a01f47f4133026b
:104aa00003f47f03194341ea066141f00b014ff41f
:104ab0000370c0f20100fcf737ff0444e4b2a52103
:104ac0004ff40470c0f20100fcf72eff0444e4b27e
:104ad0001f214ff40570c0f20100fcf725ff0444cc
:104ae000e4b229464ff40770c0f20100fcf71cff46
:104af0000444e4b285214ff40170c0f20100fcf7d8
:104b000013ff044464b24ff40675c0f2010501a915
:104b10002846fcf705ff044464b214b9019b012b3d
:104b2000f5d1204602b070bd30b583b00546fdf723
:104b30008effc0f30b00b0f5687f03d2002420463f
:104b400003b030bd01a941f21040fcf7e9fe044674
:104b50000028f4d1019921f0ee6121f4ee210191b8
:104b6000adb341f0887141f48831019141f21040b8
:104b7000fcf7dafe00214ff40270c0f20100fcf7ee
:104b8000d3feab214ff40370c0f20100fcf7ccfe62
:104b900001214ff40570c0f20100fcf7c5fe0021b1
:104ba0004ff40770c0f20100fcf7befe81214ff404
:104bb0000170c0f20100fcf7b7fe4ff40675c0f2b9
:104bc00001052846fcf7a8fe0128fad1b7e7002125
:104bd0004ff40270c0f20100fcf7a6feb9214ff4b9
:104be0000370c0f20100fcf79ffe01214ff4057035
:104bf000c0f20100fcf798fe00214ff40770c0f2ec
:104c00000100fcf791fe81214ff40170c0f2010018
:104c1000fcf78afe4ff40675c0f201052846fcf742
:104c20007bfe0128fad1019941f48031019141f2d2
:104c30001040fcf779fe82e72de9f04105469046e9
:104c4000b2f5004f2ed9a2f50047013f27f4ff47e8
:104c500027f07f0701f500431f440c464ff4004640
:104c6000a1f5004188440fe0324629464ff4502018
:104c7000fcf75efe034680b9a8eb040204f500448d
:104c800005f50045bc420bd0324621464ff450207a
:104c9000fff7f4fe03460028e6d01846bde8f08191
:104ca0009046394642464ff45020fff7e7fe034650
:104cb0000028f2d1424629464ff45020fcf738fe36
:104cc0000346eae700b583b04ff0ff33019301a933
:104cd00002f0f7fe20b9019802f01bff0028fad07d
:104ce00003b05df804fb30b587b0054690f8a240ec
:104cf00014b9d0f8a43063b90120fdf740fd18bb0a
:104d0000012485f8a2400023c5f8a430204607b04e
:104d100030bd0020fdf733fd0028f7d1d5f8ac30c9
:104d20000293d5f8b0300193d5f8a4300093d5f8ac
:104d3000a83004936846fdf713fd0028e6d1002350
:104d400085f8a2300124e1e70024dfe72de9f041f6
:104d50008cb0441e14f1030f00f206814468002c4d
:104d600000f00481002900f0038184781cb901203f
:104d70000cb0bde8f0811f4616460d4604460021e2
:104d8000284600f05cfa002800f0f48046b1337841
:104d900023f00403013bdbb2012b01d90220e7e73a
:104da00095f8288008f1ff33dbb2fe2b28bf4ff0c7
:104db000ff086068fff797ff002800f0dd8095f896
:104dc0002730002b42d005f1210309930a9595f86d
:104dd00020308df82c308df82d80002e38d033788f
:104de000012b35d0022b43d0052b57d0062b40f09a
:104df000c58096f88130002b00f0968001238df855
:104e00002130351d01955c21284603f092ff0130c9
:104e10000290451badf8185003f083ffadf81a005f
:104e2000f36e0393736f0493b36f0593336fadf811
:104e30001c30f36fadf81e3096f880308df82030be
:104e400001aa09a90220fdf7adfb05e00023bce79c
:104e500009a90220fdf773fa002840f091806368e9
:104e6000c3f88c7063689873636883f8a1007fe768
:104e70003379402b0bd000220192053602968df833
:104e80000c3001aa09a90220fdf774fae4e70536ff
:104e90000196002302938df80c30f2e796f86d31fd
:104ea00013b301238df81730351d01955c21284679
:104eb00003f03fff01300290451badf8105003f0a6
:104ec00030ffadf8120006f169030393b6f86a31ba
:104ed000adf8143096f86c318df8163001aa09a996
:104ee0000220fdf7cbfab7e700238df8173006f163
:104ef00004084021404603f01cff05460190cdf810
:104f0000088040b103f00dffadf81000a5eb0805d7
:104f1000adf81250d7e70023adf81030404603f04b
:104f200000ffadf81200cee700238df8213006f126
:104f300004084021404603f0fcfe05460190cdf8f0
:104f4000088040b103f0edfeadf81800a5eb0805b0
:104f5000adf81a5064e70023adf81830404603f06e
:104f6000e0feadf81a005be7022001e70220ffe651
:104f70000220fde60920fbe60620f9e60620f7e61a
:104f80000620f5e638b5431e13f1030f17d8436822
:104f9000bbb18278bab19a7bbab90d4604461846bd
:104fa000fff7a1fe98b1fdf7bcf990b96368c3f8ab
:104fb0008c5063689873636883f8a10000e0022056
:104fc00038bd0220fce70120fae70820f8e70620b8
:104fd000f6e70620f4e718b10122027000207047be
:104fe00002207047b8b1f8b50646402a15d8b1b1cd
:104ff00014460d460746022307f8053b41220021cf
:10500000384603f086fe22462946384603f076feef
:1050100034710020f8bd022070470220fae7022018
:10502000f8e7f8b5441e14f1030f00f296804468c7
:10503000002c00f09480002900f0938084780cb953
:105040000120f8bd1f4616460d46044602f0b9f988
:105050002b781bb902f0b9f90d20f2e7013b2b7058
:1050600002f0b3f9636803f1d40295422ed16a7855
:10507000ff2a2bd00022c3f8f8202eb1ee612f6258
:10508000069b2b61079b6b61ab6913b12a69934245
:1050900025d963681b7913f0080f29d16a69ab68b9
:1050a000802a28bf802229696878fef7d7fd00286a
:1050b0004ad16368089ac3f8f82002f082f92b7885
:1050c00001332b7002f081f90020bae702f079f980
:1050d0002b7801332b7002f078f90220b1e702f04f
:1050e00070f92b7801332b7002f06ff90220a8e7da
:1050f0000120fff719fda8b9079b069a3146687889
:10510000fef7e0fd04460020fff70efd98b9002ce5
:10511000d3d002f056f92b7801332b7002f055f9f9
:1051200008208ee702f04df92b7801332b7002f046
:105130004cf9082085e702f044f92b7801332b70f5
:1051400002f043f908207ce702f03bf92b780133a9
:105150002b7002f03af9082073e7022071e7022071
:105160006fe702206de758b3034682793b2a29d8be
:1051700041793b2928d80079172827d870b58cb0f9
:10518000dd781f2d24d89e78741ee4b20b2c22d813
:105190001b8840f26b74a34201d8002019e00192f1
:1051a000029103900495013e0596a3f26c73069359
:1051b00001a803f0efffb0f1ff3f08bf002008e0b7
:1051c0000020704700207047002070470020704783
:1051d00000200cb070bd0020fbe7431e13f1030f4d
:1051e0000dd843686bb182786ab19a7b6ab90122a3
:1051f00083f8a2204368c3f8b8100020704702204b
:10520000704702207047012070470820704703460e
:10521000421e12f1030f05d8807820b15b6893f825
:10522000a100704701207047b0f1ff3f05d008b5dd
:105230000846fff773f9002008bd02207047f0b15f
:10524000024690f828300f3bdbb2ef2b19d990f8cb
:105250002000202817d892f82730d3b130b402f1bb
:1052600021032732002413f8015b2c439342fad127
:105270005cb161b1003018bf012030bc7047002024
:10528000704700207047002070470020f5e701209c
:10529000f3e719b1003018bf0120704701207047b3
:1052a000034668b10020c3f82100a3f8250083f865
:1052b000270083f8200083f8280083f8290070472e
:1052c00002207047c8b138b50446c1b1202a18d8a9
:1052d0001546c0ef5000034643f90d0a43f90f0a83
:1052e00003f00cfd84f8205000212046fff7a7ffb3
:1052f000002814bf0020092038bd0220704702207a
:10530000fae70220f8e708b570b1a1f10f02d2b2b6
:10531000ef2a0bd980f828100021fff790ff002812
:1053200014bf0020092008bd0220fce70220fae794
:1053300008b540f22c33c2f2f1635b6843b3012835
:1053400014d042b222b3032822d8d3f8c83023b1f4
:1053500040f22c30c2f2f160984740f22c33c2f296
:10536000f1635b680022c3f8c82011e0d3f8c430b1
:1053700023b140f22c30c2f2f160984740f22c3356
:10538000c2f2f1635b68002283f8a020c3f8c42056
:1053900008bd002900f08380f0b59db00c4640f2b6
:1053a0002c33c2f2f1635b6873b101280ed006287a
:1053b0000ad1d3f8cc303bb10a68039203a940f27a
:1053c0002c30c2f2f16098471db0f0bdd3f8d05038
:1053d000002df9d00e784b6801938b6802936422fc
:1053e000002103a803f095fc731e042becd8dfe822
:1053f00003f003034d41490003afa4465cf80c0fd2
:10540000dcf80410dcf80820dcf80c300fc7dcf8fe
:105410001000dcf81410dcf81820dcf81c300fc782
:105420000bafa4465cf82c0fdcf80410dcf8082065
:10543000dcf80c300fc7dcf81000dcf81410dcf8d6
:105440001820dcf81c300fc7b4f84c30adf84c30e5
:10545000b4f84e30adf84e3014af54f8500f6168c8
:10546000a268e3680fc720696169a269e3690fc791
:1054700003ab0ce0a389adf80c30e389adf80e3036
:1054800003ab04e0e368039303ab00e0002301aa4d
:10549000314640f22c30c2f2f160a84794e77047e1
:1054a000002900f02582f0b5ebb00c4640f22c3319
:1054b000c2f2f1635d68002d00f0d78004382e2819
:1054c00000f2d380dfe810f0c201d1007d01d100ed
:1054d000d1002e01d100d100d100d100d100d100e6
:1054e000d1002f00d1005000d100d100d100d10057
:1054f000d100d100d1001901d100d100d100d100db
:10550000d100d100d100d100d100d100d100d10013
:10551000d100d100e000d100bf00d100d100d701ff
:10552000d100d100fe00eb7b002b00f09e80002319
:10553000eb7391f90130a3b90b786b746bb9d5f8a3
:105540008840002c00f0918000231a46194640f252
:105550002c30c2f2f160a04787e0287cfdf733f9d8
:1055600083e000236b7480e00b4653f8042f6a63da
:105570009b882b87012785f83a7005f113060846aa
:1055800050f80acf41688268c368c5f813c0c5f8ef
:105590001710c5f81b20c5f81f30d0f810c041699e
:1055a0008269c369c5f823c0c5f82710c5f82b2048
:1055b000c5f82f3003f0b5fb85f8330094f90130be
:1055c00085f83d30a37885f83e30e37885f83b30a8
:1055d000af74d5f88840002c47d0297c3944334635
:1055e0006a7cc9b240f22c30c2f2f160a04740b9e7
:1055f00040f22c33c2f2f1635b680022c3f88820ca
:1056000033e040f22c33c2f2f1635b681c7c3c4413
:10561000e4b21c74fdf7e8f8844208d340f22c335e
:10562000c2f2f1635b680022c3f888201de040f2fb
:105630002c34c2f2f1646368187cfdf7c4f8636827
:1056400000229a7411e00b78012b10d013b9ab73c0
:1056500085f85430d5f88c503db140f22c30c2f270
:10566000f160637822780146a8476bb0f0bdab7358
:1056700095f8a230002bedd1d5f8a430002be9d05d
:10568000012385f8a130e5e7d5f88c50002decd04a
:1056900091f900301733032b09d8dfe803f00a0231
:1056a0000406032306e0012304e0062302e00723a7
:1056b00000e0052340f22c30c2f2f16000220146e6
:1056c000a847d2e72b7b13b9012385f8a130e378f3
:1056d000a178090441ea036123781943637841ea18
:1056e0000321c5f8a410d5f8b830002bbdd040f286
:1056f0002c30c2f2f1609847b7e70846fff733fd58
:1057000001460028b1d040f22c33c2f2f1635b684d
:10571000d3f89030002ba8d040f22c30c2f2f160c8
:105720009847a2e7d5f8c030002b9ed0084603f07a
:10573000f8fa02468df82c00c0ef500003ab43f995
:105740000f0acded070bcded090b2146184603f0ee
:10575000d5fa94f862308df83830022b13d094f8d3
:10576000633040f22c34c2f2f164d5f8c050b3fa81
:1057700083f35b090eaa03a92046a84763680022a9
:10578000c3f8c02071e704f12106304603f0c9fade
:1057900002468df83c000df13d00c0ef500040f98d
:1057a0000f0a0df14d0343f90f0a0df15d0343f9a3
:1057b0000f0a0df16d0343f90f0a314603f09efa0b
:1057c000cde7084603f0adfa024685f8750005f10d
:1057d0005506c0ef500046f90f0a05f1650343f97d
:1057e0000f0a2146304603f089fa94f8211085f813
:1057f000841094f8252094f824301b0443ea0263b3
:1058000094f82220134394f8232043ea0223ab6741
:1058100005f17c03224652f8260fe86792889a80a9
:10582000012285f8822085f85420d5f89450002d67
:105830003ff41baf40f22c30c2f2f16094f92c20ff
:105840000192009132460146a8470ee791f90020e7
:1058500085f84e20d5f89830002b3ff406af40f283
:105860002c34c2f2f1642146204698476368002236
:10587000c3f89820f9e6d5f89c30002b3ff4f5ae3c
:1058800003a8fff70dfda51c284603f04afac2b293
:10589000294603a8fff716fd617803a8fff733fd3b
:1058a0002378012b0cd0022b18d040f22c30c2f2fe
:1058b000f1604368d3f89c30002211469847d4e643
:1058c0000ea8fff788fb40f22c30c2f2f16043686b
:1058d000d3f89c300eaa03a99847c6e62334204685
:1058e00003f01ffac2b221460ea8fff77bfbeae7de
:1058f00070472de9f04f87b0174640f22c32c2f2c4
:10590000f162546874b10e4604f1d40568b1d4f85c
:10591000f8403cb103460222294640f22c30c2f244
:10592000f160a04707b0bde8f08f01f04afd94f8a0
:10593000d43013b901f049fdf4e7013b84f8d430c9
:1059400001f043fdd4f8f030002b00f0b380d4f820
:10595000e830bb42c0f0ae8017b3d4f8f4209742d1
:1059600009d9bb464ff0000940f22c38c2f2f16869
:10597000aa4605974de0bb4601e05546059f5a46ad
:105980003146d4f8f00003f0b9f9d4f8f0305b44b4
:10599000c4f8f030d4f8f430a3eb0b03c4f8f430bf
:1059a000d4f8e830db1bc4f8e830d4f8e4203a44fb
:1059b000c4f8e420002b5cd001f003fd94f8d4304f
:1059c000013384f8d43001f000fd40f22c30c2f2f3
:1059d000f1604368d3f8f8300293002201920092fc
:1059e00013462946fff71dfb9ce7013b84f8d430a2
:1059f00001f0ebfcd4f8f030bbb3d4f8f430002b5a
:105a000053d0bbeb070b52d03e44d4f8f4205a4598
:105a1000b3d23146d4f8f00003f070f9d4f8f47042
:105a2000c4f8f090c4f8f490d8f80430d3f8f83003
:105a3000002be6d001f0c5fc94f8d430013384f893
:105a4000d43001f0c2fcd8f80430d3f8f8504b46fb
:105a5000042251464046a84701f0b3fc94f8d430e4
:105a6000002bc2d101f0b1fc5ce755460023c4f81d
:105a7000e83001f0a6fc94f8d430013384f8d43037
:105a800001f0a3fc40f22c33c2f2f1635b68d3f85f
:105a9000f840002c3ff446af00230222294640f292
:105aa0002c30c2f2f160a0473ce75546dee7554690
:105ab000059f75e701f085fc94f8d430013384f834
:105ac000d43001f082fc2de738b540f22c32c2f21e
