:020000040000fa
:0200000426f0e4
:1000000004f19fe500f19fe5fcf09fe5f8f09fe526
:10001000f4f09fe500000000ecf09fe5e8f09fe5bc
:1000200000000fe11f00c0e3110080e300f021e1b8
:10003000d8d09fe507d0cde31f00c0e3120080e3d6
:1000400000f021e1c8d09fe507d0cde31f00c0e359
:10005000170080e300f021e1b8d09fe507d0cde3a1
:100060001f00c0e31b0080e300f021e1a8d09fe562
:1000700007d0cde31f00c0e31f0080e300f021e1c3
:1000800098d09fe507d0cde31f00c0e3130080e3c5
:1000900000f021e188d09fe507d0cde384009fe503
:1000a00084109fe584209fe5020051e104309034e4
:1000b00004308134fbffff3a74009fe574109fe524
:1000c0000020a0e3010050e104208034fcffff3a4f
:1000d0000606a0e30110a0e3001080e50000a0e305
:1000e000150f07ee510f11ee030b80e3510f01eed8
:1000f0000f06a0e3500f01ee0111a0e3101ae8ee85
:10010000fc2000fa881e00fafeffffea2000f0261d
:100110004088f126e087f1268088f126c088f12604
:10012000c0a8f126c098f12658c7f026000020008c
:100130003c0020000000f1268087f12610b540f237
:100140000004c2f2f164237863b940f20003c0f204
:1001500000032bb140f20000c0f20000aff30080ba
:100160000123237010bd00bf08b540f20003c0f2a8
:1001700000034bb140f2040140f20000c2f2f16111
:10018000c0f20000aff3008008bd00bf431e13f1b2
:10019000030f1bd810f47f4f1ad1c3b240f21c02d8
:1001a000c2f2f1629268934214d240f21c02c2f28f
:1001b000f162d268282101fb03235a6a82420bd1e3
:1001c000da78002a08bf0023184670470023fbe7af
:1001d0000023f9e70023f7e70023f5e7036a2bb1d3
:1001e0001a6a026200225a751a621a70704710b5b4
:1001f000896940f21c02c2f2f162c1f307206c234c
:1002000003fb0020c9b2c468282000fb01f1095b90
:1002100003fb01231b6c03b910bd6c2303fb0124fa
:100220000022114694f92c0006f0f9ff236c226b92
:1002300040f2a001c2f2f16194f82c0006f009fe30
:1002400000232364e8e770b50546806940f21c018d
:10025000c2f2f161c0f307246c2202fb0414c6b29f
:10026000282303fb06f3e4681e191b5b02fb031241
:10027000926a904221d040f21c04c2f2f1646c22d6
:1002800002fb034463691b68002106f10c009847d8
:10029000ab69a362002386f8203096f91c00b0f108
:1002a000ff3f09d0737f6bb9c0b200f01f0301217b
:1002b0009940400906f025fb70bd96f82020002ae1
:1002c000ebd0d8e7c0b200f01f03012199404009ec
:1002d00006f010fbf0e72de9f0410446816940f299
:1002e0001c02c2f2f162c1f307256c2303fb052552
:1002f000c8b2282101fb00f1e8680f180d5a03fb72
:10030000052300221a645a642269e3689a4271d371
:1003100040f21c00c2f2f1606c2101fb0501d31a0e
:100320000b6440f21c03c2f2f1636c2606fb053637
:10033000224640f2ef11c2f2f06196f82c0006f06e
:100340007ffd224640f24161c2f2f06196f82d0035
:1003500006f076fdbb69002b56d0082b66d840f21c
:100360001c03c2f2f1636c2606fb05364ff40061f4
:1003700096f92d0006f062ff4ff4006196f92c000b
:1003800006f05cff2369002b64d140f21c08c2f226
:10039000f1686c2707fb05860022114696f92d00af
:1003a00006f03dff736c0022726432463c32716b82
:1003b00096f82d0006f04dfde368002b60d140f269
:1003c0001c02c2f2f1626c2303fb052500221146d8
:1003d00095f92c0006f023ff2b6c00222a642a6b6f
:1003e00040f2a001c2f2f16195f82c0006f031fd57
:1003f000bde8f08140f21c00c2f2f1606c2101fb0b
:1004000005019b1a4b648ce740f21c03c2f2f163b6
:100410006c2606fb0536002196f92d0006f00eff2e
:10042000002196f92c0006f009ffabe740f21c030f
:10043000c2f2f1636c2606fb05364ff4805196f943
:100440002d0006f0fbfe4ff4805196f92c0006f0cb
:10045000f5fe97e740f21c03c2f2f1636c2606fb3f
:1004600005364ff48022002196f92d0006f0d7fec4
:1004700023696268716b96f82d0006f0eafc9be731
:1004800040f21c03c2f2f1636c2606fb0536002223
:100490004ff4803196f92c0006f0c1fe736c73b1f5
:1004a000236940f21c02c2f2f1626c2101fb0525b6
:1004b0002a6ba16895f82c0006f0cbfc98e7e3685e
:1004c000efe770b590f82630002b5cd190f86930da
:1004d000012b01d0002557e00446002380f8693045
:1004e000866d90f92c30b3f1ff3f1ed090f92d307e
:1004f000b3f1ff3f19d035782db1307906f0d2fe37
:1005000084f83a0040e006f0a6fe0546307c06f08e
:10051000c9fe84f83900307d06f0c4fe84f8380046
:10052000284606f09cfe01252ee035782db1307965
:1005300006f0b8fe84f8570026e006f08cfe05466b
:100540007068b0f1ff3f0cd1b068b0f1ff3f0ed141
:10055000f068b0f1ff3f10d1284606f080fe01257b
:1005600012e0c0b206f09efe84f85400ece7c0b280
:1005700006f098fe84f85500eae7c0b206f092fe55
:1005800084f85600e8e70125284670bd90f826302b
:1005900003b1704770b50446856d90f92c30b3f106
:1005a000ff3f1dd090f92d30b3f1ff3f18d02b78cd
:1005b0002bb190f83a10287906f08bfe17e006f080
:1005c0004afe064694f83910287c06f082fe94f81c
:1005d0003810287d06f07dfe304606f040fe06e02d
:1005e0002b7843b194f85710287906f072fe012356
:1005f00084f8693070bd06f02efe06466868b0f1da
:10060000ff3f0bd1a868b0f1ff3f0dd1e868b0f112
:10061000ff3f0fd1304606f022fee8e794f8541071
:10062000c0b206f056feede794f85510c0b206f0e1
:1006300050feebe794f85610c0b206f04afee9e728
:100640002de9f04180460e46896940f21c02c2f253
:10065000f162c1f307246c2303fb0424c8b22821f0
:1006600001fb00f1e0680f180d5a03fb05235b6cda
:10067000002b48d113466c2202fb053463699b684a
:1006800098470028fad197f91c00b0f1ff3f0ad033
:100690007b7f002b58d1c0b200f01f03012199408d
:1006a000400906f027f940f21c00c2f2f1606c2309
:1006b00003fb05007a6ab3699a4254d1b8f1010f7d
:1006c0004bd0b8f1020f4bd096f91480f669fff7c2
:1006d00085fd7b68002b48d040f21c03c2f2f16319
:1006e0006c2404fb053494f82630013384f826305a
:1006f0007b68ba6831464046984794f82630013bfb
:1007000084f8263031e040f21c08c2f2f1686c2710
:1007100007fb05840022114694f92d0006f07ffda9
:100720002246636c3c32616b94f82d0006f091fb1d
:10073000b0683169636c226b014494f82c0006f0b8
:1007400088fb002363641ce0c0b200f01f0301219a
:100750009940400906f0d5f8a5e701233375b3e7c2
:10076000ff233375b0e7fff739fd40f21c02c2f2f8
:10077000f1626c2303fb05252c6a14b1637d012b08
:1007800001d0bde8f0812046fff75dfd02236375cf
:100790002046fff7a0fdf4e70378002b60d090f926
:1007a0001030022b5cd170b50546066ab46940f280
:1007b0001c02c2f2f162c4f307236c2101fb032384
:1007c000e4b2db68282202fb043494f91c00b0f187
:1007d000ff3f09d0637fa3b9c0b200f01f0301211e
:1007e0009940400906f086f8626ab3699a4211d0ce
:1007f0002846fff7f3fc2c6a14b1637d012b22d04d
:1008000070bdc0b200f01f0301219940400906f0fd
:1008100078f8e9e701233375f6692846fff7defc2f
:100820006368002be7d095f82630013385f8263031
:100830006368a26831460120984795f82630013b4d
:1008400085f82630d7e72046fff7fdfc02236375c5
:100850006b695d6823696268e168a068a847cfe7b3
:100860007047000070b5002860d140f21c03c2f24e
:10087000f1631b78002b6ad140f21c03c2f2f163d2
:10088000012083f8680083f8690083f86a00187013
:100890000d685d618a6a9a614a6ada6100221a62a9
:1008a0000c69dc604c699c605a6098844ff0ff30a2
:1008b000986283f826205a7091f9040083f82c007e
:1008c00091f9054083f82d408e681e63ce685e6303
:1008d0008e699e64ce69de640e6a1e65c96a99657a
:1008e00083f860205a6640f2a002c2f2f162531e01
:1008f0001f32ff2103f8011f9342fbd1b0f1ff3fec
:1009000002d0b4f1ff3f09d1eb6840f21c01c2f202
:10091000f16140f29970c2f2f060984740f21c0316
:10092000c2f2f16302221a74002070bd06f071fc5d
:1009300010b94ff0ff30f8e706f065fc4af6247175
:10094000c2f2f06106f04ffb4ff0ff30ede706f02a
:1009500060fc10b94ff0ff30e7e706f054fc0349a4
:1009600006f041fb4ff0ff30dfe700bf3caff02661
:1009700038b550b940f21c03c2f2f16393f8683005
:10098000012b10d04ff0ff3038bd06f042fc10b9fb
:100990004ff0ff30f8e706f036fc534906f023fb32
:1009a0004ff0ff30f0e740f21c03c2f2f163002287
:1009b00083f8682093f91030022b61d140f21c03b8
:1009c000c2f2f1631b78002b5ad040f21c03c2f232
:1009d000f1635b78002b66d140f21c03c2f2f16335
:1009e0005b68002b69d140f21c03c2f2f1639d6881
:1009f000002d6fd040f21c03c2f2f163da6810469a
:100a0000d3784bb1283200230133ab4262d0104679
:100a10002832c478002cf7d10122c27011f0080fdf
:100a200005d040f21c02c2f2f1620124547040f27f
:100a30001c02c2f2f162546801345460948cdbb23f
:100a400043ea04434362938c01339bb24ff6ff7237
:100a5000934208bf012340f21c02c2f2f162938468
:100a6000012382f8683041f0040181700023436063
:100a70008360ff22027780f820300380406a83e79a
:100a800006f0c7fb48b940f21c03c2f2f163012231
:100a900083f868204ff0ff3076e706f0b4fb134987
:100aa00006f0a1faefe740f21c03c2f2f163012263
:100ab00083f868204ff0ff3066e711f0080f92d0fe
:100ac00040f21c03c2f2f163012283f868204ff068
:100ad000ff3059e740f21c03c2f2f163012283f8b0
:100ae00068204ff0ff304fe774aff0268caff02650
:100af000f8b50f461646fff749fb90b1054640f2a0
:100b00001c03c2f2f16304886c2202fb0434204609
:100b1000fff7d7fc78b16f60ae602046fff736fd77
:100b2000f8bd06f076fb0028fad006f06cfb07490a
:100b300006f059faf4e706f06cfb0028f0d006f056
:100b400062fb034906f04ffaeae700bfa8aff026c0
:100b5000e0aff0262de9f04f83b00d9e002e00f09f
:100b6000f780009315460f46019104464ff0ff337e
:100b70003360fff70bfb8146002800f0e980002d71
:100b80007bd0002f79d0b9f800a040f21c02c2f24d
:100b9000f1626c2303fb0a2393f8603053b140f2f7
:100ba0001c02c2f2f1626c2303fb0a23db6da34239
:100bb00040f0ce804ff06c0b0bfb0afb40f21c08a0
:100bc000c2f2f168d8444046fff77bfc00285cd0b5
:100bd000b9f800c040f21c02c2f2f1626c2303fbc0
:100be0000c239f69d869002800f0b9803b785bb17d
:100bf00007f1240200230133984200f0b080174629
:100c000012f8241b0029f6d101223a7000223a6220
:100c100040f21c02c2f2f1626c2101fb0c21888cb3
:100c200099f80020120242ea0042dbb21343fb6152
:100c30008b8c01339bb24ff6ff72934208bf0123a6
:100c400040f21c01c2f2f1616c2202fb0c1cacf8f8
:100c50002430009b7b60019bbb6001237b750023dc
:100c60003b75bc61d9f81830fbb1082b33d86d0047
:100c7000fd600c9b5b003b611ae00c9b002b67d076
:100c8000009b002b7ff47faf62e006f0c2fa0028e1
:100c90005ed006f0b8fa364906f0a5f958e006f03d
:100ca000b2fa344906f09ff95de0fd600c9b3b61b0
:100cb000fb693360d8f820309bb140f21c03c2f2cc
:100cc000f1639b44dbf82030002b3ed01a6a002ae7
:100cd00037d11a4638e0ad00fd600c9b9b003b61ac
:100ce000e6e7c8f8207002237b753846fff7abfab9
:100cf00040f21c02c2f2f1626c2303fb0a2393f957
:100d00002c30b3f1ff3f0bd040f21c02c2f2f16273
:100d10006c2303fb0a2393f92d30b3f1ff3f1ad163
:100d200040f21c03c2f2f1636c2202fb0a3adaf8c9
:100d300014305c683b697a68f968b868a04704e0d9
:100d40001a46136a002bfbd117624046fff71efcc0
:100d500003b0bde8f08f3846fff7bdfaf5e706f0bf
:100d600058fa00289bd14046fff710fcf0e700bf7f
:100d7000e0aff026fcaff02600b583b0019300236e
:100d80000093fff7e7fe03b05df804fb10b5ccb2ab
:100d9000024645f6eb61c2f2f061204605f0c6fd61
:100da00004f01f0301219940600905f0b1fd10bd59
:100db00008b5c0b200f01f0301219940400905f0b9
:100dc000aefd08bd48f24003cff6034304225a614a
:100dd000704748f24003cff6034304221a6170477c
:100de00048f2c003cff603434ff000721a61704718
:100df00048f2c003cff603434ff000725a617047c8
:100e0000012800d0704740f2c403c2f2f1639b682e
:100e10008b420ed040f2c403c2f2f163db688b4216
:100e2000f0d140f2c403c2f2f1635a7c01325a7429
:100e3000e8e740f2c403c2f2f1631a7c01321a748b
:100e4000704710b540f2c404c2f2f16404f1080323
:100e50000a4601466068fff78fffa368b3f1ff3fc2
:100e600015d040f2c404c2f2f16401e006f0f7f9d3
:100e700006f0f1f9237c002bf8d040f2c402c2f254
:100e8000f162013b137406f0eaf9012010bd002065
:100e9000fce710b582b040f2c404c2f2f16404f180
:100ea0000c03019300910346012240f2c001c2f2fb
:100eb000f1616068fff74efee368b3f1ff3f16d0c3
:100ec00040f2c404c2f2f16401e006f0c8f906f091
:100ed000c2f9637c002bf8d040f2c402c2f2f16286
:100ee000013b537406f0bbf9012002b010bd002095
:100ef000fbe738b506f0aff940f2c404c2f2f16482
:100f00000025257406f0abf906f0a5f9657406f026
:100f1000a6f96368b3f1ff3f0cd040f2c403c2f2fc
:100f2000f163002240f60161c2f2f0615868fff7f8
:100f3000dffd38bd40f2c404c2f2f1640321208811
:100f4000fff716fd6060b0f1ff3fe6d106f061f9f2
:100f50000028e2d006f057f94bf24801c2f2f061e6
:100f600005f0f9ffd9e740b1028840f2c403c2f2ac
:100f7000f1631a804ff0ff325a60704710b506f0e7
:100f80006af940f2c404c2f2f164237c0133237491
:100f900006f065f906f05ff9637c0133637406f0cf
:100fa0005ef910bd08b503f0d1fc08bd08b5fff728
:100fb0001ffffff707ff642003f0c8fcfff710ffd7
:100fc0000a2003f0c3fcfff704ff0a2003f0befc75
:100fd00008bd704700b583b040f2d803c2f2f16398
:100fe00000229a7001a941f2700000f099fc0346ba
:100ff00018b1184603b05df804fb019941f00201f5
:10100000019141f2700000f08ffc0346f1e708b552
:1010100040f2d803c2f2f1639b78e3b940f2d803ff
:10102000c2f2f1635b782bb940f2d803c2f2f163ec
:101030001b7853b940f2d802c2f2f16253780133ff
:10104000dbb253700023184608bd01f0b7fe03461b
:101050000028efd0f7e70023f5e740f2d803c2f20b
:10106000f1635b783bb140f2d802c2f2f16253788f
:10107000013bdbb253700020704708b540f2d80343
:10108000c2f2f1635b783bb140f2d802c2f2f16286
:101090005378013bdbb2537040f2d803c2f2f163e4
:1010a0005b7853b940f2d803c2f2f1631b780bb9f5
:1010b000002003e001f04dfe00e0002008bd08b56f
:1010c000fff7a5ff40f2d803c2f2f163c0ef500072
:1010d00043f90f0ac3ed040bc3ed060bc3ed080b78
:1010e00008bd00002de9f04f87b005460e46934637
:1010f0009a46109fbdf84490bdf8488040f2001415
:10110000c2f2f16401e006f0aaf806f0a4f8237830
:10111000002bf8d040f20012c2f2f162013b1370d2
:1011200006f09df806f07f038df815308df8145009
:10113000002f3ad009f1080343449bb2adf81630b2
:1011400040f23c62934200f2fc80fff760ff0446ed
:10115000002840f0eb8000230393adf806300293a3
:10116000029b1d430295029b43ea06260296029bc0
:10117000bdf8162043ea02430293029941f28c0023
:1011800000f0d2fb0446a0b1fff767ff06f063f85a
:1011900040f20013c2f2f1631a7801321a7006f0bd
:1011a0005ef8204607b0bde8f08f0af108039bb255
:1011b000c4e700230293029b43f0020302930299c7
:1011c00041f2780000f0b0fb04460028dcd1002397
:1011d0000393adf80630bdf806309bb2b3f57a7fc5
:1011e0003ed241f278044bf25c05c2f2f06512e0a7
:1011f0000120fff7d7fe029b13f0020f26d0bdf8a7
:10120000063001339bb2adf80630bdf806309bb214
:10121000b3f57a7f24d202a9204600f081fbf8b909
:10122000bdf806309bb2b3f5fa7fe4d3bdf80630c3
:101230009bb2b3f5fa7fdbd805f0ebff0128d7d9d5
:1012400005f0e1ff294605f086fed1e703a94ff43a
:101250008060c0f2150000f063fb044600284fd107
:10126000039b002b4fd0039b04930498082205a9ed
:1012700000f08bfb0446002886d1049b08330493be
:10128000bbf1000f0bd004985246594600f07dfb8d
:10129000044600287ff478af049b5344049387b13d
:1012a000049aa8eb0a031344049304984a46394667
:1012b00000f06bfb044600287ff466af049b4b44b0
:1012c0000493039b9b000293029b43f0020302934f
:1012d000029941f26c0000f027fb044600287ff4dd
:1012e00053affff7cafe044605f0b5ff40f2001306
:1012f000c2f2f1631a7801321a7005f0b0ff50e7bc
:101300000023039340e7fff7b8fe044605f081ff92
:10131000032802d86ff0020438e705f074ff224674
:10132000114905f018fe6ff002042fe705f071ff78
:1013300000283ff42baf05f066ff0c4905f00bfecb
:1013400024e705f066ff10b94ff0ff341ee705f003
:101350005aff40f23c63bdf81620054905f0fbfd3d
:101360004ff0ff3412e700bf70b0f02690b0f026c7
:10137000b4b0f02630b587b040f20014c2f2f16488
:1013800001e005f06cff05f066ff2378002bf8d034
:1013900040f20012c2f2f162013b137005f05ffff0
:1013a00003a941f2700000f0bbfa0446002840f0a7
:1013b0009281039911f0010f00f0748121f0010175
:1013c000039141f2700000f0affa0446002840f0ab
:1013d0006c8140f2d803c2f2f16301229a70039d3e
:1013e000c5f38b05002d00f04f810023059305a95f
:1013f00041f2840000f094fa0446002848d1059890
:1014000040f2d803c2f2f16358609d60042204a93f
:1014100000f08efa0446002845d1bdf812309d42f6
:1014200002d0eb1a042b49dc05f015ff40f2001343
:10143000c2f2f1631a7801321a7005f010ff9df8bc
:101440001030012b51d0022b7ed0042b00f09b805a
:10145000062b00f0b780072b00f0d380052b40f05f
:10146000fb8040f2d803c2f2f1635b6a002b00f00c
:10147000e88040f2d803c2f2f1635b6abdf8121053
:101480000839059a083289b29df81100984740e062
:1014900005f0bffe002800f0088105f0b4fe984971
:1014a00005f059fd01e105f0b4fe002800f0fd80d3
:1014b00005f0a9fe934905f04efdf6e005f0a9fe02
:1014c00010b96ff00504f0e005f09dfe9df81130b5
:1014d00001939df810300093bdf812302a468a49d6
:1014e00005f039fd6ff00504dfe040f2d803c2f2e9
:1014f000f163db68f3b140f2d803c2f2f163db6859
:10150000bdf812100839059a083289b29df8110009
:10151000984740f2d803c2f2f1639b78002b00f0a9
:10152000cf8005f076fe002840f0a480fff752fd42
:101530000446c5e005f06dfe0028ead005f063fe24
:10154000724905f008fde4e740f2d803c2f2f16306
:101550001b6973b140f2d803c2f2f1631b69bdf895
:1015600012100839059a083289b29df8110098477f
:10157000cfe705f04efe0028cbd005f044fe6449cd
:1015800005f0e9fcc5e740f2d803c2f2f1635b69fc
:1015900073b140f2d803c2f2f1635b69bdf8121077
:1015a0000839059a083289b29df811009847b0e7ca
:1015b00005f02ffe0028acd005f025fe554905f0ba
:1015c000cafca6e740f2d803c2f2f1631b6a73b10a
:1015d00040f2d803c2f2f1631b6abdf81210083959
:1015e000059a083289b29df81100984791e705f0f5
:1015f00010fe00288dd005f006fe474905f0abfc33
:1016000087e740f2d803c2f2f1639b6973b140f2fd
:10161000d803c2f2f1639b69bdf812100839059a2c
:10162000083289b29df81100984772e705f0f1fd84
:1016300000283ff46eaf05f0e6fd384905f08bfc5d
:1016400067e705f0e6fd00283ff463af05f0dbfd3a
:10165000334905f080fc5ce705f0dbfd10b96ff065
:1016600005042de005f0cffd2e4905f074fc6ff068
:10167000050425e005f0c7fd9df811309df8102008
:10168000294905f068fc51e705f0c3fd10b96ff07a
:1016900001040ae005f0b7fd244905f05cfc6ff099
:1016a000010402e005f0b5fd70b905f0d4fd40f28b
:1016b0000013c2f2f1631a7801321a7005f0cffdff
:1016c0009cb9204607b030bd05f09dfd039a18492e
:1016d00005f041fce9e705f09cfd0028e5d005f0a8
:1016e00092fd144905f037fcdfe705f092fd002874
:1016f000e7d005f088fd22460f4905f02cfce0e715
:10170000e8b0f02610b1f0262cb1f0266cb1f0262e
:1017100090b1f026b4b1f026d8b1f026fcb1f02695
:1017200020b2f02644b2f02660b2f02690b2f02645
:10173000a4b2f026c0b2f026e8b2f02670b51d467d
:1017400078b31446034661b35ab340f2d802c2f2ea
:10175000f1629268944238d840f2d802c2f2f16243
:101760005268824245d8261840f2d802c2f2f1628d
:1017700050689268024496423bd82246184600f0d0
:10178000d7f8034688b940f2d802c2f2f162516834
:1017900092680a44964200d03db1fff71bfc034615
:1017a00003e025b1fff716fc0346184670bd05f0af
:1017b00030fd10b96ff00b03f7e705f024fd144975
:1017c00005f0c9fb6ff00b03efe705f022fd10b940
:1017d0006ff00b03e9e705f016fd40f2d803c2f203
:1017e000f1639b6822460b4905f0b5fb6ff00b03d4
:1017f000dbe705f00efd10b96ff00b03d5e705f040
:1018000002fd054905f0a7fb6ff00b03cde700bf14
:1018100018b3f0263cb3f02684b3f026431e062b03
:1018200036d8dfe803f00b0419122e20270040f20f
:10183000d803c2f2f16319610020704740f2d80367
:10184000c2f2f163d9600020704740f2d803c2f2bf
:10185000f16359610020704740f2d803c2f2f1638e
:10186000d9610020704740f2d803c2f2f1631962d7
:101870000020704740f2d803c2f2f1639961002062
:10188000704740f2d803c2f2f163596200207047fa
:1018900010b5044605f0bdfc40b105f0b4fc22468d
:1018a000044905f058fb6ff00b0010bd6ff00b0002
:1018b000fbe700bfccb3f02608b540f2d803c2f274
:1018c000f163c0ef500043f90f0ac3ed040bc3ed01
:1018d000060bc3ed080b05f0befc40f20013c2f28c
:1018e000f16301221a7005f0bafc40f6d371c2f21e
:1018f000f0610320fff792ff002008bd08b5fff755
:1019000055fb0120fff74efb002008bd002070476b
:1019100008b501f011fe08bd08b501f0d0fe08bd04
:1019200008b501f039fe08bd08b501f0d1fe08bdcb
:101930002de9f0478a4615464cf2d463c2f2f063b3
:101940001f88083fbfb2ba421cd93e460446a1ebed
:101950000009a7eb00083a4609eb0401204601f014
:10196000c9ff034658b9ad1b08eb04013444ae422d
:10197000f1d3aab25144204601f0bcff03461846f9
:10198000bde8f08704460021f3e72de9f0478a46d9
:1019900015464cf2d463c2f2f0631f88083fbfb211
:1019a000ba421cd93e460446a1eb0009a7eb000849
:1019b0003a4609eb0401204602f02bf8034658b9d9
:1019c000ad1b08eb04013444ae42f1d3aab251443a
:1019d000204602f01ef803461846bde8f08704468c
:1019e0000021f3e730b585b000230393c0ef10006a
:1019f000cded010b00284ad00446c0ef500003464d
:101a000043f90d0a43f90d0a43f90f0703a908200a
:101a1000c0f20c00fff784ff0346002838d103987a
:101a2000002838d0082201a940f44030fff780ff99
:101a3000034668bbbdf80800039078b3282221460e
:101a400040f44030fff774ff034608bb2279a179c8
:101a500001f00f0141ea022160790001c0b2e5798d
:101a6000627a02f00f0242ea0522247a2401e4b2eb
:101a70002243014315d0bab141f27730824216d8e1
:101a800041f27632914298bf6ff00c0300e00023e0
:101a9000184605b030bd6ff00b03f9e76ff00b038c
:101aa000f6e76ff00b03f3e76ff00b03f0e76ff06f
:101ab0000c03ede738b50020fff720ff0446b8b966
:101ac00001f05cfd01f0cbf8000d0005b0f5401f02
:101ad0001bd101f07bfe05f09cfb012818d80021ea
:101ae0004ff44070c0f20200fff71eff204638bde1
:101af00005f08ffb0028f9d005f085fb4bf2d831bb
:101b0000c2f2f06105f027faf0e701f0a3f9e0e78f
:101b100005f079fb054601f0a2f802460249284685
:101b200005f019fadbe700bff8b3f02638b501f08d
:101b300025fd0020fff7e2fe48b901f047fe04460c
:101b400098b905f066fb012819d8204638bd04462f
:101b500005f05ffb0028f8d005f055fb4bf2d831bb
:101b6000c2f2f06105f0f7f9efe705f052fb00284b
:101b7000ebd005f048fb074905f0edf9e5e705f086
:101b800042fb054601f06bf802460349284605f082
:101b9000e2f9dae708b4f026f8b3f02638b580b1f8
:101ba0000478631edbb2042b28bf0124204601f019
:101bb00085f9054638b1fff7a9fe01f0e6fc284695
:101bc00038bd0124f2e7204601f022fa054600283c
:101bd000f1d1023ce4b2012cf1d901f014f8054630
:101be0000028ecd005f015fb0028e4d005f00bfb35
:101bf000014905f0b0f9dee728b4f02610b501f090
:101c000075fa70b9fff784fe002002f0d1fd04469a
:101c100090b9fff77bfe0446c0b901f0b6fc204640
:101c200010bd044605f0f5fa0028f8d005f0ebfaef
:101c30000b4905f090f9f2e705f0ebfa0028eed039
:101c400005f0e1fa074905f086f9e8e705f0e1fa61
:101c50000028e4d005f0d7fa034905f07cf9dee767
:101c600048b4f02668b4f02690b4f0262de9f0418f
:101c70009eb015462c2835d004461b2845d0062892
:101c800056d00e283ed0322865d03d2876d02f2859
:101c900000f08780342800f09d80112800f0c38078
:101ca000132800f0e180042800f0f380652800f09c
:101cb0000581092800f017812a2800f029812728aa
:101cc00000f03b81202800f04d811d2800f06c8140
:101cd00005f09ffab0b105f096fa2246b14905f039
:101ce0003af90fe00023042203a92846fff726fd56
:101cf00040b940f22013c2f2f1631b6813b103a98b
:101d00002c2098471eb0bde8f0810023082203a9cb
:101d10002846fff713fd0028f4d140f22013c2f249
:101d2000f1631b68002bedd003a91b209847e9e75e
:101d30000123302203a92846fff700fd0028e1d146
:101d400040f22013c2f2f1631b68002bdad003a922
:101d500006209847d6e70023182203a92846fff754
:101d6000edfc0028ced140f22013c2f2f1631b68d3
:101d7000002bc7d003a932209847c3e701230022d4
:101d800011462846fff7dafc0028bbd140f22013a9
:101d9000c2f2f1631b68002bb4d000213d209847ac
:101da000b0e764242246002103a806f048fe002381
:101db000224603a92846fff7c1fc0028a2d140f221
:101dc0002013c2f2f1631b68002b9bd003a92f20c4
:101dd000984797e70023042203a92846fff7aefca3
:101de00000288fd105f015fa01280ad840f22013f7
:101df000c2f2f1631b68002b84d000213420984785
:101e000080e705f000fa039ad3b20193c2f30723e7
:101e10000093c2f30743120e4bf2ac41c2f2f061e1
:101e200005f099f8e2e740f22812c2f2f1620023cd
:101e30001370042203a92846fff780fc00287ff4d2
:101e400061af9df80c2040f22613c2f2f1631a70c4
:101e500040f22013c2f2f1631b68002b3ff452af33
:101e600003a9112098474de700232c2203a92846f7
:101e7000fff764fc00287ff445af40f22013c2f264
:101e8000f1631b68002b3ff43daf03a91320984773
:101e900038e7002304221ca92846fff74ffc00283e
:101ea0007ff430af40f22013c2f2f1631b68002bc5
:101eb0003ff428af1ca90420984723e700230422fd
:101ec0001ca92846fff73afc00287ff41baf40f21c
:101ed0002013c2f2f1631b68002b3ff413af1ca95f
:101ee000652098470ee70123642203a92846fff7df
:101ef00025fc00287ff406af40f22013c2f2f16304
:101f00001b68002b3ff4feae03a909209847f9e6b1
:101f10000123042203a92846fff710fc00287ff4c0
:101f2000f1ae40f22013c2f2f1631b68002b3ff4c4
:101f3000e9ae03a92a209847e4e60023042203a976
:101f40002846fff7fbfb00287ff4dcae40f22013ad
:101f5000c2f2f1631b68002b3ff4d4ae03a9272023
:101f60009847cfe60023082203a92846fff7e6fb9f
:101f700000287ff4c7ae0123bdf81020039905f1b6
:101f80000800fff7dbfb00287ff4bcae40f2201313
:101f9000c2f2f1631b68002b3ff4b4ae03a920200a
:101fa0009847afe6ccb4f0260023042202a92846c5
:101fb000fff7c4fb00287ff4a5aebdf80a80bdf88a
:101fc0000830adf80e3040f21c13c2f2f1631b680a
:101fd000002b3ff497ae40f21813c2f2f1631b6876
:101fe000002b3ff48fae40f22413c2f2f1631b8842
:101ff000002b3ff487ae40f22417c2f2f16740f2a3
:102000001814c2f2f16440f21c16c2f2f1661ee02e
:102010000023adf80c20216808eb0500fff78efbcc
:1020200000287ff46faebdf80c30bdf80e20d21a38
:10203000adf80e2043441ffa83f8336803aa2168e1
:102040001d209847bdf80e30002b3ff45baebdf865
:102050000e303a889342dbd81a460123d9e700bff5
:1020600038b5049c002b49d02c3292b21d465b68d7
:10207000002b46d02b7a202b46d8002c47d0a31c0f
:10208000c0ef500043f90f0a04f1120343f90f0a9d
:1020900004f1200343f90f0a2280012807d043b23c
:1020a0004bb1022836d1a37843f00203a370a37882
:1020b00043f00103a3706b7aff2b1dd0013bdbb211
:1020c0000d2b2ad8e3704b1edbb2032b28d884f8e3
:1020d0002c102a7a22716968601d06f0a5fc2b6815
:1020e0000bb3012384f825302b681a68c4f8262026
:1020f0009b88638500200fe0e370e4e76ff00e003b
:102100000ae06ff00e0007e06ff00e0004e06ff0e1
:102110000b0001e06ff00e0038bd6ff00e00fbe722
:102120006ff00e00f8e70020f6e710b5fff7c2fced
:10213000044608b1204610bd00f065fd40f22713ab
:10214000c2f2f16301221a70f4e708b5fff7eefc62
:10215000034628b940f22712c2f2f1620121117040
:10216000184608bd10b58eb001238df80f30002839
:1021700000f0b48040f22012c2f2f16201681160f6
:1021800040f21c12c2f2f1628168116040f2181232
:10219000c2f2f162c168116040f22412c2f2f1622f
:1021a000018a1180837c13b104238df80f3040f233
:1021b0002813c2f2f16300221a700df10f00fff72d
:1021c000edfc044610b120460eb010bd40f22713be
:1021d000c2f2f16302221a70fff76efb044640b1af
:1021e00040f22713c2f2f16300201870fff706fdda
:1021f000e9e741f66d41c2f2f0610120fff70efb05
:1022000004a8fff7effb044605f003f8012820d8e7
:1022100004f0ffff012822d804f0fbff01282ed88c
:1022200004f0f7ff012834d804f0f3ff01283dd86b
:1022300004f0efff012842d814f10d0fc3d104f0d0
:10224000e8ff0028bfd004f0deff264904f083fe3b
:10225000b9e704f0d8ff244904f07dfed8e704f084
:10226000d2ffbdf8303001939df8163000939df8f1
:1022700015309df814201d4904f06dfecce704f0e4
:10228000c2ff0df126030df11a02194904f063fe95
:10229000c6e704f0b8ff9df8193000939df8183098
:1022a0009df81720134904f056febde704f0abff7c
:1022b000072300931322104904f04dfeb8e704f001
:1022c000a2ff4bf2ac41c2f2f06101f5ae7301f531
:1022d000b47201f5ba7104f03efeade76ff00b0485
:1022e00071e700bf40b6f0266cb5f02688b5f02641
:1022f000acb5f026ccb5f026f0b5f02610b540f21e
:102300002713c2f2f16300241c702046fef7d7feab
:102310002046fff773fc204610bd08b5fff72af8ea
:1023200008bd00b585b000220292019200921346ca
:1023300029210120fef7d6fe05b05df804fb00b5ab
:1023400091b004ab00930b4600220121fff788fef9
:10235000034618b1184611b05df804fb0023029340
:1023600001930093302304aa3b210120fef7bafe1b
:102370000346efe7f0b591b0002a78d016460b4639
:1023800004aa00926c220221fff76afe054610b1f2
:10239000284611b0f0bd6c2006f022fa0446002851
:1023a00062d06c22002106f04afb316800293fd040
:1023b00073682bb16ff00e05204606f07ff9e7e752
:1023c0002046402300f8013b8d1c04f121070646fe
:1023d0001be0273bdbb21b01dbb2337012f8012c90
:1023e000303ad2b2092a0ad942f02002a2f1310cc5
:1023f0005ffa8cfcbcf1050f17d8273ad2b2134410
:1024000006f8013b0235be4234d02a4615f8023c9c
:10241000303bdbb2092bded943f02003a3f1310cb2
:102420005ffa8cfcbcf1050fd3d96ff00e05c3e742
:102430007168b1b1327a402a02d96ff00e05bbe75c
:10244000204600f8012b06f0effa302302936c22ad
:102450000192009404aabb210120fef743fe054629
:10246000aae76ff00e05a7e76ff0020590e76ff09f
:102470000e058de7227806f0d7fae6e72de9f04160
:1024800090b0002a7fd014461368fbb16368002b1c
:102490007cd0a368002b7cd0a589e689ab19642b7e
:1024a0007ad8228ab2f5807f79d80b4635442c350c
:1024b0001544adb204aa00922a460421fff7d0fdcc
:1024c000074628b1384610b0bde8f0819381dde7ba
:1024d000284606f085f90646002851d000f12c0860
:1024e0002a46002106f0abfa01233370a37c0bb11e
:1024f00081233370e37c1bb1337843f040033370a6
:102500002c23f3704cf2d863c2f2f0631b68736241
:1025100006f10c0c40f20417c2f2f1670fcface8e1
:102520000f003b68ccf8003000237370216829b39a
:10253000277b77703a46404606f076fa4744a27bfe
:10254000b2706168384606f06ffab0783844a0eb94
:102550000808a6f80480228af280a16806f064face
:10256000302302930195009604aabb210120fef7b7
:10257000b9fd0746304606f0a1f8a3e74746dee777
:102580006ff002079ee76ff00e079be76ff00e07f4
:1025900098e76ff00e0795e76ff00e0792e76ff080
:1025a0000e078fe72de9f04393b0002a00f0c080ba
:1025b00014461368002b32d06368002b00f0bb80f8
:1025c000a368002b00f0ba80e368002b00f0b9800c
:1025d0002369002b00f0b880a28ae68a9319642b45
:1025e00000f2b580278bb7f5807f00f2b380658b52
:1025f000b5f5c66f00f2b1800b4632442c3215445b
:1026000005eb4705adb206aa00922a460421fff762
:1026100027fd074628b1384613b0bde8f083938202
:10262000cae7b4f81a80a5eb0805adb2284606f053
:10263000d7f80646002878d0c0ef1000cded040b87
:1026400000f12c092a46002106f0f9f90223337023
:10265000237f0bb182233370637f1bb1337843f048
:10266000400333702c23f3704cf2d863c2f2f06352
:102670001b68736206f10c0c40f20417c2f2f1679a
:102680000fcface80f003b68ccf80030002373702c
:10269000216800293cd0277d77703a46484606f0ed
:1026a000c3f94f44a27db2706168384606f0bcf9a8
:1026b000b3781f44a7eb0903b380228bf280a16893
:1026c000384606f0b1f9f2881744e168384606f05a
:1026d000abf9f3881f44a7eb0907bfb23781a6f80f
:1026e0000a8001208df81000adf81470adf8168046
:1026f00008230293cdf804802269009204aabc2129
:10270000fef7f0fc074628b1304605f0d7ff82e718
:102710004f46c7e7302302930195009606aabb21d6
:102720000120fef7dffc0746eee76ff0020772e7d5
:102730006ff00e076fe76ff00e076ce76ff00e0794
:1027400069e76ff00e0766e76ff00e0763e76ff05b
:102750000e0760e76ff00e075de76ff00e075ae7b0
:1027600000b585b00023029301930093182302461d
:102770000a210220fef7b6fc05b05df804fb00b5a7
:1027800085b000284ff00002029201920092134699
:1027900014bf0b210c210220fef7a4fc05b05df84c
:1027a00004fb000010b584b0e0b10446037813b315
:1027b00043780a3bdbb2f02b27d88378013bdbb2ae
:1027c000012b2cd890f90330002b32da002302932e
:1027d000019300930423024614210120fef782fc9a
:1027e00004b010bd04f015fd30b304f00cfd184921
:1027f00004f0b1fb20e004f00cfde8b104f003fdaf
:102800002278144904f0a7fb16e004f002fd98b109
:1028100004f0f9fc6278104904f09dfb0ce004f030
:10282000f8fc48b104f0effca2780c4904f093fbeb
:1028300002e004f0eefc10b96ff00b00d0e704f0fa
:10284000e2fc94f90320064904f085fbf4e700bf9d
:10285000e4b4f0265cb6f0267cb6f0269cb6f026f2
:10286000ccb6f02640f22813c2f2f1631b78fbb914
:10287000431edbb20d2b01d9ff281cd100b587b058
:102880008df814000023029301930093042305aafa
:1028900010210120fef726fc034628b940f2281239
:1028a000c2f2f16201211170184607b05df804fb15
:1028b0006ff00d0301e06ff00e031846704740f211
:1028c0002813c2f2f1631b780bbb431edbb20d2b46
:1028d00001d9ff281ed100b587b08df81400adf8de
:1028e00016100023029301930093042305aa2321c9
:1028f0000120fef7f7fb034628b940f22812c2f286
:10290000f16201211170184607b05df804fb6ff009
:102910000d0301e06ff00e031846704740f22813d4
:10292000c2f2f1631b78002b3ad1431edbb20d2bb0
:1029300001d9ff2837d1002938d00b78042b2bd8a8
:1029400010b586b093b14c78202c0ad801220134fe
:10295000224492b2013b13f0ff0308d08c5c202c80
:10296000f5d96ff00e03184606b010bd01228df8a0
:102970001400042302930192009105aaa1210120d1
:10298000fef7b0fb03460028edd140f22812c2f258
:10299000f16201211170e6e76ff00e0318467047ef
:1029a0006ff00d03fae76ff00e03f7e76ff00e0319
:1029b000f4e710b50446fef72afb034608b11846b3
:1029c00010bd204600f0c0fb03460028f7d1fef7fb
:1029d00054fb0346f3e700b587b08df814000023dd
:1029e000029301930093042305aa12210120fef70c
:1029f00079fb07b05df804fb40f22613c2f2f163e5
:102a00001878704708b500f02af908bd40f227137e
:102a1000c2f2f1631878704730b59db014460628ad
:102a20001fd0072831d0012801d01db030bd0023b0
:102a3000702269462046fef781fe0546002872d1c5
:102a400040f22c13c2f2f1631a68002a6bd040f2f4
:102a50003013c2f2f16370341c6069460120904764
:102a600061e00023042269462046fef767fe054622
:102a7000002858d140f22c13c2f2f1631b68002bde
:102a800051d06946062098474de000230822694648
:102a90002046fef753fe0546002838d1bdf8042035
:102aa000bdf80600bdf802309df800107ab94cf26e
:102ab000dc62c2f2f06201241470984214bf002359
:102ac0000123032957d8dfe801f00d211b3f024401
:102ad0009a4214bf00230123032945d8dfe801f0ff
:102ae000021610344cf2dc62c2f2f0621278012a53
:102af0000cd14cf2dc62c2f2f0620021117005e0f0
:102b00004cf2dc62c2f2f062022111705bb140f261
:102b10002c13c2f2f1631b682bb14cf2dc61c2f2e0
:102b2000f06107209847002d3ff47faf04f071fb60
:102b300000283ff47aaf04f066fb4bf60801c2f2be
:102b4000f06104f008fa70e74cf2dc62c2f2f06265
:102b50001278022adad0042ad8d04cf2dc62c2f20f
:102b6000f06203211170d1e74cf2dc62c2f2f06234
:102b70001278022acad04cf2dc62c2f2f06204215e
:102b80001170c3e710b540f22c13c2f2f163186064
:102b900040f23013c2f2f16300221a604cf2dc639f
:102ba000c2f2f06304221a7042f61921c2f2f061f7
:102bb0000520fef733fe044608b9204610bd04f098
:102bc00028fb0028f9d004f01efb2246014904f03e
:102bd000c2f9f2e72cb8f02670b582b040f48075e7
:102be0004ff4a554002629462046fef79dfe019687
:102bf00001a92046fef794fe0028f4d1019bab42c8
:102c0000f1d102b070bd00b583b00023019301a9da
:102c100041f20840fef784fe034618b1184603b09f
:102c20005df804fb019941f48071019141f2084083
:102c3000fef77afe03460028f0d101a94ff4d050e8
:102c4000fef76efe03460028e8d1019941f4803179
:102c500001914ff4d050fef767fe0346dee710b552
:102c600082b040f23413c2f2f1631c683cb140f20e
:102c70003413c2f2f1631c68204602b010bd19463d
:102c80004ff48050fef74cfe30b140f23413c2f2e4
:102c9000f16300221a60efe701a941f2f430fef778
:102ca0003ffe00bb40f23413c2f2f1631b684ff4e5
:102cb0002872c0f2100293421cd04ff42c72c0f262
:102cc0001002934223d0f022c0f2100293422fd080
:102cd00040f23412c2f2f162136823f4702343f419
:102ce000a0231360c3e740f23413c2f2f163002261
:102cf0001a60c1e7019b012bead040f23413c2f203
:102d0000f16340f2a122c0f210021a60e0e7019bd9
:102d1000032bddd0042b40f23413c2f2f1630cbf5d
:102d200040f2b12240f2b222c0f210021a60cfe7a4
:102d300040f23411c2f2f1614ff46c10fef7f0fd75
:102d40000028c5d040f23413c2f2f16300221a60a9
:102d500092e710b582b0102401a92046fef7e0fded
:102d60000346f8b9019b13f0010ff5d101a9012029
:102d7000fef7d6fd0346a8b9019911f0020f07d05e
:102d800021f0020101910120fef7cefd034648b972
:102d900001a90b20fef7c4fd034618b9019911f0f3
:102da000010f02d1184602b010bd21f001010191be
:102db0000b20fef7b9fd0346f4e70000f0b583b041
:102dc0000023019301210b20fef7aefd044610b154
:102dd000204603b0f0bd02210120fef7a5fd044608
:102de0000028f5d10320fef7ddf805250f26022780
:102df00001a93046fef794fd044670b9019b13f01b
:102e0000040f21d13846fef7cdf8013df0d104f092
:102e100000fa88b96ff00304dae704f0faf9002841
:102e2000d6d004f0f0f9019b22464bf6e401c2f241
:102e3000f06104f090f8cbe704f0e5f9044904f000
:102e40008af86ff00304c3e7fef762fdc0e700bf36
:102e5000fcb8f02630b583b00023019301a941f2fc
:102e60001810fef75dfd0446019941f00101019142
:102e700041f21810fef758fd0444e4b201a94ff4e2
:102e8000a050fef74dfd0444e4b2019911f4806fa7
:102e900002d160b203b030bd21f4806101914ff4e2
:102ea000a050fef741fd054601a94ff4a050fef7e2
:102eb00037fd2844044460b2ece700002de9f041fe
:102ec000804641f2140401252046fef725fd002826
:102ed00003db2846fef766f8f6e740f2bc70c0f266
:102ee0000200fef719fd10f0010f34d0b8f1020f07
:102ef00052d0b8f1030f61d0b8f1040f6fd041f296
:102f00007731c1f2303141f28c00fef70dfd002423
:102f1000fff7a5fec0f30b00b0f5687f2cbf44f0af
:102f200002002046fff758fe04f073f9012860d82c
:102f300042f66171cef652714ff00c10fef7f4fcc0
:102f40000020bde8f08104f05ef92f4904f003f899
:102f50006ff00400f5e70120fef724f84ff00c10a5
:102f6000fef7dafc4ff400544df29e05c1f2ad05b8
:102f700001274ff00c16a842b8d03846fef712f8d9
:102f80003046fef7c9fc013cf5d104f042f90328b4
:102f9000d9d86ff00400d4e74df27d51c3f61c413f
:102fa00040f2ac70c0f20200fef7befc4ff480119c
:102fb00041f28c00fef7b8fc0024a9e74df27d51e8
:102fc000c3f61c4140f2ac70c0f20200fef7acfc4c
:102fd000002141f28c00fef7a7fc002498e741f2a3
:102fe0007731c1f2303141f28c00fef79dfc802434
:102ff0008ee704f008f941f27732c1f2303203492a
:1030000003f0a9ff94e700bf1cb9f02644b9f026ed
:103010002de9f04385b041f28c03039342f236630d
:10302000c0f2532302930238c0b2012806d94ff4ec
:10303000005400200225dff8b08027e040f2ac7396
:10304000c0f2020303934cf2c313cdf25d730293fb
:10305000ede704f0d8f8064641f28c00fef75cfc80
:10306000074641f28c00fef757fc81464ff4a5500d
:10307000fef752fc00904b463a464146304603f07c
:103080006aff0398fef748fc013c0ad0029b83428a
:1030900016d02846fdf786ff04f0bbf80328f0d9c8
:1030a000d7e704f0b6f8032802d86ff004000fe069
:1030b00004f0a9f80b4903f04eff6ff0040007e09d
:1030c000029a42f23663c0f253239a4203d00020a0
:1030d00005b0bde8f083002141f28c00fef724fc2e
:1030e0000020f5e76cb9f02660b9f02610b582b083
:1030f0000023019301a94ff4a050fef711fc60b921
:10310000019921f4806101914ff4a050fef70cfc6d
:10311000044668b9204602b010bd044604f079f8b0
:103120000028f7d004f06ff8064903f014fff1e728
:1031300004f06ff80028edd004f065f8014903f0c1
:103140000affe7e78cb9f02610b586b00446c0ef59
:103150001000cded010b05a90820c0f20c00fef710
:10316000dffb034610b1184606b010bd082201a9c6
:10317000059840f44030fef7dbfb03460028f2d10f
:10318000bdf804000590062203a940f44030fef784
:10319000cffb034603982060bdf81020a280e2e731
:1031a00070b584b09df820408df80400c3380c2819
:1031b00000f2a380dfe800f05f33a1a14d4d780756
:1031c000a1a1a1a144000b0c8df805300b0a8df8cc
:1031d00006308df80710052140f23813c2f2f16372
:1031e0001b78002b75d14d1e01ab5e197f204cf270
:1031f0006c04c2f2f06413f8012b82ea4002a05c76
:10320000b342f8d104ab1d44420005f80c2c01a8d0
:10321000fdf717fe00285fd0002004b070bdc1f399
:10322000072344b98df805308df8061000238df87a
:1032300007300521d0e763f07f038df80530f3e711
:10324000ff238df805308df806308df80730052105
:10325000c2e70a0c8df805200a0a8df806208df8c1
:1032600007101a0c8df808201a0a8df809208df81d
:103270000a300821b0e7c1f3072384b98df805307f
:103280008df80610130e8df80730130c8df80830ea
:10329000130a8df809308df80a2008219ce763f0a5
:1032a0007f038df80530ebe70b0c8df805300b0a2a
:1032b0008df806308df80710130e8df80830130cba
:1032c0008df80930130a8df80a308df80b2009218a
:1032d00082e70139c9b29ae703f09bff10b94ff0ba
:1032e000ff309ae703f08fff4bf60821c2f2f0613e
:1032f00003f031fe4ff0ff308fe74ff0ff308ce7e7
:10330000f0b583b006460d46cf2817d00a24012712
:1033100039460df10700fdf7bcfdc8b19df8073037
:10332000b34223d015bb013c64b2b4f1ff3fefd1ef
:1033300003f06fff98bb4ff0ff3049e001210df122
:103340000700fdf7a6fd0028e0d14ff0ff303fe079
:1033500003f05fff10b94ff0ff3039e003f053ff87
:10336000204903f0f8fd4ff0ff3031e0002cdfdba7
:103370000a24012631460df10700fdf78afdb0b1a0
:103380009df807300bb305bb013c64b2b4f1ff3fbd
:10339000f0d103f03effe8b94ff0ff3018e003f042
:1033a00032ff114903f0d7fd4ff0ff3010e003f07a
:1033b00030ff10b94ff0ff300ae003f024ff094955
:1033c00003f0c9fd4ff0ff3002e0002ce1db0020ec
:1033d00003b0f0bd03f017ff034903f0bcfd4ff04d
:1033e000ff30f5e734baf0266cbaf0262de9f04f3d
:1033f00083b083460e469246002740f23819c2f247
:10340000f16923e003f005ff20b94ff0ff3003b06e
:10341000bde8f08f03f0f7fe384903f09cfd4ff054
:10342000ff30f4e7002c2bdd41460beb0700fdf7e6
:1034300030fd78b399f800305aea030348d0474486
:103440003fb2a6eb0806b6b2002e55d0b046b6f590
:10345000005f28bf4ff400580a24012529460df1ca
:103460000300fdf716fd0028ccd09df8033003f0d3
:10347000f003f02bd6d0013c24b2b4f1ff3fedd1e4
:10348000baf1000f0cd041460beb0700fdf701fd30
:103490000028d4d103f0bdfe90b94ff0ff30b6e75d
:1034a00003f0b7fe10b94ff0ff30b0e703f0abfe0a
:1034b0009df80320124903f04efd4ff0ff30a6e7c0
:1034c00003f0a1fe0f4903f046fd4ff0ff309ee7e9
:1034d000022101a8fdf7ddfc0028b0d103f099fe20
:1034e00010b94ff0ff3092e703f08dfe064903f06c
:1034f00032fd4ff0ff308ae7002088e798baf026c7
:10350000d4baf0260cbbf02644bbf02610b582b02e
:103510000120fdf747fd0024009423462246214662
:10352000cf20fff73dfe2146cf20fff7e9fe012027
:10353000fdf738fd02b010bd40f23913c2f2f1635d
:103540001b78012b02d06ff00500704730b583b0b7
:1035500040f23915c2f2f16500242c700094234624
:1035600022462146cf20fff71bfe2146cf20fff742
:10357000c7fe01232b70204603b030bd40f2391343
:10358000c2f2f16301221a70704740f23813c2f29e
:10359000f16300201870704740f23913c2f2f163f2
:1035a0001b78012b03d06ff00502104670472de900
:1035b000f04f85b00f46064640f23913c2f2f16370
:1035c00000221a70ff2895bf4ff0c4084ff0ca08b8
:1035d0000125154609244ff004094bf6082ac2f2ca
:1035e000f06a0af5f47b0ce003f013feb8bb03f0bd
:1035f00010fe002851d1fff789ff013cb4f1ff3fd5
:1036000054d000954b46002231464046fff7c8fd96
:103610000028e9d129464046fff772fe38bb2a460a
:10362000494603a8fff7e2fe024660bb9df80d1075
:103630009df80e301b0443ea01239df80c100b4348
:103640009df80f1043ea01633b6040f23913c2f268
:10365000f16301211970104605b0bde8f08f03f049
:10366000d2fd32460af5bc7103f075fcbfe703f0ea
:10367000d0fd0028bbd003f0c6fd32460af5d67156
:1036800003f069fcb3e703f0c4fd0028afd003f0fa
:10369000bafd594603f05ffca9e703f0b4fd3346d9
:1036a00022460af5047103f056fca4e740f23913f0
:1036b000c2f2f16301221a706ff00502cbe700b588
:1036c00083b001a9fff768ff019803b05df804fb20
:1036d0002de9f04782b040f23913c2f2f1631f784e
:1036e000012f04d06ff0050002b0bde8f0870e4650
:1036f000044640f23913c2f2f16300221a70092520
:103700004ff001094bf60828c2f2f06808f5187a64
:103710000be003f07efdd0b903f07bfd50bbfff75b
:10372000f5fe013db5f1ff3f2ed0302c35d90023f9
:103730000093042332462146c920fff731fd0028bb
:10374000e7d1b4f5a05f38d00021c92031e003f003
:103750005afd224608f50b7103f0fdfbdce703f090
:1037600058fd0028d8d003f04efd2246514603f004
:10377000f2fbd1e703f047fd009623462a4608f501
:10378000287103f0e8fbcae740f23913c2f2f16393
:1037900001221a706ff00500a6e7cdf8009004230f
:1037a00032462146c320fff7fbfc0028b1d1394641
:1037b000c320fff7a5fd0028d1d140f23913c2f292
:1037c000f16301221a7000208ee7000010b582b06c
:1037d0000022009240f23813c2f2f1631a70694677
:1037e0004ef62400fff7d8fe90bb40f23813c2f229
:1037f000f1631b788bb9009921f07c0141f05001f5
:1038000000914ef62400fff763ff002844d140f2f8
:103810003813c2f2f16301221a7001a94ff48050eb
:10382000fff7bafe0446002844d103f0f2fc032857
:103830004ed84ef62400fff742ff20f0700141f011
:1038400050014ef62400fff743ff204602b010bda2
:1038500040f23813c2f2f16301221a7003f0d9fc6e
:1038600060b969464ef62400fff796fe0028bcd0ea
:1038700003f0cffc40b96ff00504e6e703f0c3fcaa
:10388000174903f068fbece703f0bdfc154903f0b2
:1038900062fb6ff00504d8e703f0bbfc10b96ff0d2
:1038a0000504d2e703f0affc0f4903f054fb6ff0bf
:1038b0000504cae703f0adfc10b96ff00504c4e7d6
:1038c00003f0a1fc094903f046fb6ff00504bce7d7
:1038d00003f099fc019a064903f03dfba9e700bffc
:1038e000c8bcf02620bdf02654bdf0268cbdf026c5
:1038f000b8bdf0262de9f04f85b000238df80c30cf
:103900008df80d3040f23913c2f2f1631b78012bb0
:1039100005d06ff00503184605b0bde8f08f0746e7
:103920008a46164640f23913c2f2f16300221a7039
:10393000012e61d08846092500244bf60829c2f2e1
:10394000f06909f5896b0ce003f063fc60bb03f0e0
:1039500060fc002846d1fff7d9fd013db5f1ff3fde
:103960004ed00094334622463946c820fff718fc53
:103970000028e9d12146c820fff7c2fce0b9224661
:1039800031464046fff732fd034608bb40f239128c
:10399000c2f2f1620121117003aa9045bbd19df8da
:1039a0000c208af80020b6e703f02dfc3a4609f512
:1039b000747103f0d0facae703f02bfc0028c6d0dc
:1039c00003f021fc3a4609f5816103f0c4fabee731
:1039d00003f01ffc0028bad003f015fc594603f091
:1039e000bafab4e703f00ffc00963b462a4609f505
:1039f0008f6103f0b0faaee70df10c0802269ae7ea
:103a000040f23913c2f2f16301221a706ff005031c
:103a100081e72de9f04f89b00490029240f239130a
:103a2000c2f2f16393f80080b8f1010f06d06ff095
:103a300005030393039809b0bde8f08f8b4640f26d
:103a40003913c2f2f16300221a70029b012b08bfe6
:103a500002230293092740f23819c2f2f1694bf6aa
:103a6000082ac2f2f06a0af2cc53059380e003f010
:103a7000d0fb002873d003f0c6fb049a0af29441ed
:103a800003f069fa6be003f0c4fb002867d003f091
:103a9000bafb049a0af2cc4103f05dfa5fe0b4f598
:103aa000005f8cbf4346032363f00f038df81b3088
:103ab00001210df11b00fdf7c4f9f0b129460beb14
:103ac0000600fdf7bef958b399f800309bb32e44b9
:103ad00036b2641ba4b2002c00f08f802546b4f5ea
:103ae000005f28bf4ff40055adb2002ed7d0b4f51b
:103af000005f94bf03230223d6e703f08afb40b99b
:103b000003f087fb58b303f07efb059903f023fa1b
:103b100025e003f078fb0af5a26103f01cfaefe759
:103b200003f077fb0028ebd003f06dfb0af5aa61e8
:103b300003f011fae4e7022107a8fdf782f9002853
:103b4000c5d103f066fb0028dad003f05cfb0af273
:103b50008c5103f000fad3e703f05bfbf8b903f0f4
:103b600058fba8bbfff7d2fc013fb7f1ff3f3ad0ab
:103b700000220092029b0499c720fff711fb002846
:103b80007ff475af0021c720fff7bafb0390002830
:103b90007ff479af0026adf81c60029c9ee703f02d
:103ba00032fb0af2fc5103f0d6f9d8e703f031fbff
:103bb0000028d4d003f027fb9df81e3000939df819
:103bc0001d309df81c200af5c56103f0c4f9c6e755
:103bd00003f019fb029b0093049b3a460af58f61a0
:103be00003f0b9f9bee740f23913c2f2f1630122e2
:103bf0001a706ff0050303931ce799f80030002b4f
:103c00000cbf02240324214607a8fdf742f900282f
:103c1000a2d008ab234413f8053c002bc6d108ab57
:103c20001c4414f8063cc32bc0d140f23913c2f235
:103c3000f16301221a70fde630b5a3b015466a287b
:103c400013d004466b2827d072283cd0742865d046
:103c5000762800f0a280782800f0bd8003f0d9fa21
:103c6000002840f0d68023b030bdc0ef500001ab3b
:103c700043f90f0a0023102201a92846fdf75efd33
:103c80000028f0d140f25013c2f2f1631b68002b00
:103c9000e9d001a89847e6e70023019304220deb41
:103ca00002012846fdf74afd0028dcd140f25413fa
:103cb000c2f2f1631b68002bd5d09df805109df86a
:103cc00004009847cfe7c0ef1000cded010b0123b2
:103cd000082201a92846fdf731fd0028c3d19df82f
:103ce000080030b94cf2dd63c2f2f0639df80920a0
:103cf0001a7040f24813c2f2f1631c68002cb2d073
:103d00004cf2dd63c2f2f063019a1978a04740f2e9
:103d10004813c2f2f16300221a60a4e7c0ef10005a
:103d2000cded010b0123082201a92846fdf706fd70
:103d3000002898d19df80830b3b140f24813c2f280
:103d4000f1631c68002c8ed04cf2dd63c2f2f0638c
:103d5000019a19789df80800a04740f24813c2f272
:103d6000f16300221a607ee74cf2dd63c2f2f06379
:103d70009df809201a7003f04cfa0128ddd903f0f0
:103d800042fa4cf2dd63c2f2f0631a784cf26c1125
:103d9000c2f2f06103f0dff8cfe78424224600216d
:103da00001a804f04cfe0123224601a92846fdf794
:103db000c5fc00287ff457af40f24c13c2f2f16308
:103dc0001b68002b3ff44fafbdf8042002a99df8fb
:103dd0000600984747e700230193012304220debd7
:103de00002012846fdf7aafc00287ff43caf40f210
:103df0004413c2f2f1631b68002b3ff434af9df80b
:103e00000400984740f24413c2f2f16300221a60a2
:103e100029e703f0f8f92246014903f09cf822e76c
:103e200090c1f02600b585b040f25413c2f2f163a0
:103e3000186040f25013c2f2f163196040f2481367
:103e4000c2f2f1631a6043f63941c2f2f061042014
:103e5000fdf7e4fc002202920192009213467121c8
:103e60000420fdf73ff905b05df804fb10b584b000
:103e700040f23c14c2f2f164216062604cf2dd62f7
:103e8000c2f2f062127882421ad1ff2a1bd0ebb143
:103e90001c460023029301930093082340f23c1236
:103ea000c2f2f16275210420fdf71cf9034620b926
:103eb00040f24c12c2f2f1621460184604b010bd18
:103ec0006ff00e03f9e76ff00e03f6e76ff00e03e5
:103ed000f3e700002de9f041ff2866d0002967d004
:103ee000984617460e460546fef790fd012844d138
:103ef00040f25c14c2f2f16423682bb140f2581313
:103f0000c2f2f1631b6863b940f25812c2f2f16267
:103f100040f25c11c2f2f161412000f0a9fb0446bd
:103f200040bb40f25c14c2f2f164042221683046c6
:103f300000f0c6fc0446e8b93378ab421ad140f22f
:103f40005813c2f2f1631b68bb4234d9434535d3e1
:103f500007eb0802934234d940f25c13c2f2f163da
:103f6000196801f5805142463944304600f0a8fcfa
:103f7000044680b92046bde8f08103f04af910b943
:103f80006ff00b04f6e703f03ef90f4902f0e3ff90
:103f90006ff00b04eee703f03cf90028ead003f0e1
:103fa00032f90a4902f0d7ffe4e76ff00e04e1e7c7
:103fb0006ff00e04dee76ff00b04dbe76ff00b042d
:103fc000d8e76ff00b04d5e7e8c1f02624c2f0264d
:103fd0001046002a4ad00f2b40d92de9f04f83b06c
:103fe0000e68144604254ff030084ff0000b4cf6d5
:103ff000cd4eccf6cc4ecdf804804ff02e0922e009
:104000005f46642106e004f8012b0137ffb209295d
:1040100012d96146994223d8019a0132d2b25b1a71
:10402000dbb29942f9d9aefb01acccf3c70c302a14
:10403000e9d1002febd0e6e7012d0ad004f8019b6f
:10404000360a013dedb216f0ff03d9d104f8018b19
:10405000f2e70023237003b0bde8f08f0020704723
:10406000aefb012cccf3c70c019ae2e770470000cd
:104070002de9f04196b01446412842d00d4654280f
:104080003fd042285bd0432877d0442800f05582a7
:104090004b2800f05282572800f095824a2800f001
:1040a000ed80462800f00681482800f04a814d281e
:1040b00000f0fe80452800f0ee81472800f02182c4
:1040c0004c2800f0e681522836d1012314220deb52
:1040d00002012046fdf732fb70bb40f22423c2f2fe
:1040e000f1631b68069a9a4226d140f21423c2f269
:1040f000f1631b6803b39df824200799059898473e
:104100001ae00023042205a92046fdf717fb98b901
:104110009df815308df8043040f21c23c2f2f16393
:104120001b684bb140f21c23c2f2f1631b6801aa69
:1041300001219df91400984716b0bde8f0810023d5
:10414000042205a92046fdf7f9fa0028f4d19df8cc
:1041500015308df8043040f21c23c2f2f1631b6865
:10416000002be9d040f21c23c2f2f1631b6801aac4
:1041700002219df914009847dee700230c2201a9d3
:104180002046fdf7dbfa0028d6d19df90d20d3b2e9
:104190000a2b37d89df90c1040f26013c2f2f1637c
:1041a00003eb0111c97ac9b203eb0213d9720121e1
:1041b0009972bdf80e10083989b2198140f2202396
:1041c000c2f2f1631988013189b219801b889bb250
:1041d0003bb940f22021c2f2f1610b8801339bb25e
:1041e0000b8040f22023c2f2f163198889b240f2b9
:1041f0006013c2f2f16303eb0213d98003f009f8f4
:1042000003281ed89df80d308df814300223adf828
:104210001830bdf80630adf81a30029b079340f213
:104220001c23c2f2f1631b68002b85d040f21c23d3
:10423000c2f2f1631b6805aa04219df90c0098479e
:104240007ae702f0e0ff40f22023c2f2f1631b881c
:104250009df90d204cf24021c2f2f06102f07bfe8c
:10426000d0e79df8162040f26013c2f2f16303eb31
:1042700000139a739df81720da7394e10023442207
:1042800005a92046fdf75afa00287ff455af40f201
:104290001823c2f2f1631b68002b3ff44daf40f2cc
:1042a0001823c2f2f1631b68159905a8984743e7e4
:1042b000062700e006270023102201a92046fdf76b
:1042c0003dfa00287ff438af9df91060f3b20a2b55
:1042d0003ff632afbdf8128002f09bff032832d8c0
:1042e00040f26013c2f2f16303eb061300221a736b
:1042f000bdf90c20bdf80e00bdf80610adf81e107b
:1043000002990891db889bb2434540f09980002ace
:1043100001ddaa421edbadf818200023059340f210
:104320001c23c2f2f1631b68002b3ff405af40f27f
:104330001c23c2f2f1631b6805aa39463046984730
:10434000fae60927b7e702f05eff4246a14902f00c
:1043500002fec5e795b2adf81a5040f26013c2f202
:10436000f16332019b58002b3ff4e6ae40f260133c
:10437000c2f2f16303eb06139b889bb2002b3ff460
:10438000dbae40f26013c2f2f16303eb06139b7adb
:10439000dbb2012b7ff4d0ae40f26013c2f2f163c6
:1043a00003eb06139b88eb1a1bb2002b3add40f29d
:1043b0006013c2f2f16303eb0613b3f804801ffa33
:1043c00088f840f26013c2f2f16332019958012378
:1043d00042462044fdf7b2f930bb40f26013c2f20e
:1043e000f1633201981899580591adf81880bdf81d
:1043f0001a10a1eb0808adf81a80002181809950ad
:1044000040f21c23c2f2f1631b68002b3ff494ae10
:1044100040f21c23c2f2f1631b6805aa39463046fc
:10442000984789e6a846cce702f0f3fe00283ff45f
:1044300083ae02f0e8fe2a46674902f08cfd7be677
:1044400002f0e7fe032816d8102d7ff675ae012383
:10445000002211461046fdf771f900283ff46caeba
:1044600002f0d7fe00283ff467ae02f0ccfe5b49b5
:1044700002f071fd60e602f0c6fe40f26013c2f287
:10448000f16303eb0613db884246554902f063fdf6
:10449000dae7072500e007250023082205a92046c2
:1044a000fdf74cf900287ff447ae9df91440e3b2c4
:1044b0000a2b3ff641aebdf8186002f0aafe0328b1
:1044c00021d8bdf81630adf8043040f26013c2f2c6
:1044d000f16303eb0413db889bb2b3421ad140f2c1
:1044e0001c23c2f2f1631b68002b3ff425ae40f29f
:1044f0001c23c2f2f1631b6801aa29462046984793
:104500001ae60825c8e702f07efe3246354902f079
:1045100022fdd6e702f07dfe03287ff60dae02f005
:1045200072fe40f26013c2f2f16303eb0413db8806
:1045300032462d4902f00ffdfee5c0ef1000cded33
:10454000050b0422002305a92046fdf7f7f80028f3
:104550007ff4f2ad9df91400c3b20a2b3ff6ecad27
:104560008df804009df915208df8052040f26013a8
:10457000c2f2f16303eb00131b899bb2002b0cbf4b
:1045800005210a21002a7ff46caebdf81620083af6
:1045900092b240f26013c2f2f16303eb00131a818e
:1045a0009df818205a7340f21c23c2f2f1631b6875
:1045b000002b3ff4c1ad40f21c23c2f2f1631b6833
:1045c00001aa9847b8e5c0ef1000cded050b082211
:1045d000b8e700bf5cc2f0267cc2f026acc2f02671
:1045e0008cc2f026c4c2f026e4c2f02608b540f220
:1045f0001023c2f2f1631b7803b108bdb022002181
:1046000040f26010c2f2f16004f019fa44f2710154
:10461000c2f2f0610220fdf701f940f21023c2f26c
:10462000f16301221a7040f22023c2f2f1630022ea
:104630001a80e2e708b5b022002140f26010c2f211
:10464000f16004f0fcf900210220fdf7e7f840f2e8
:104650001c23c2f2f16300221a6040f21823c2f256
:10466000f1631a6040f21023c2f2f1631a7008bdc0
:1046700000293dd02de9f04383b00e46002a3bd0ff
:1046800014460546042241f24801684600f018f934
:10469000024628bb9df80030202b30d803b3013be5
:1046a000dbb241f2540808ebc30841f24c074ff06b
:1046b00008094a463946684600f002f9024678b9c8
:1046c0009df801109df8003043ea0123ab420bd165
:1046d0009df802301b0333609df803301b032360f9
:1046e000104603b0bde8f08308374745e1d1f7e74e
:1046f0006ff00e02104670476ff00e02f0e76ff099
:104700000b02ede770b582b005460e46002301931b
:1047100011464ff40270c0f20100fdf705f904469e
:10472000310a01f47f41330203f47f03194341ea64
:10473000066141f00b014ff40370c0f20100fdf778
:10474000f3f80444e4b2a5214ff40470c0f2010070
:10475000fdf7eaf80444e4b21f214ff40570c0f2fb
:104760000100fdf7e1f80444e4b229464ff4077074
:10477000c0f20100fdf7d8f80444e4b285214ff4fb
:104780000170c0f20100fdf7cff8044464b24ff4a9
:104790000675c0f2010501a92846fdf7c1f80444d9
:1047a00064b214b9019b012bf5d1204602b070bd53
:1047b00030b583b00546fef752fac0f30b00b0f5f2
:1047c000687f03d20024204603b030bd01a941f226
:1047d0001040fdf7a5f804460028f4d1019921f016
:1047e000ee6121f4ee210191adb341f0887141f405
:1047f0008831019141f21040fdf796f800214ff405
:104800000270c0f20100fdf78ff8ab214ff4037086
:10481000c0f20100fdf788f801214ff40570c0f2e5
:104820000100fdf781f800214ff40770c0f201008c
:10483000fdf77af881214ff40170c0f20100fdf715
:1048400073f84ff40675c0f201052846fdf764f8c9
:104850000128fad1b7e700214ff40270c0f201003d
:10486000fdf762f8b9214ff40370c0f20100fdf7c3
:104870005bf801214ff40570c0f20100fdf754f818
:1048800000214ff40770c0f20100fdf74df88121bf
:104890004ff40170c0f20100fdf746f84ff40675c1
:1048a000c0f201052846fdf737f80128fad1019931
:1048b00041f48031019141f21040fdf735f882e773
:1048c0002de9f04105469046b2f5004f2ed9a2f5ec
:1048d0000047013f27f4ff4727f07f0701f500431a
:1048e0001f440c464ff40046a1f5004188440fe0f8
:1048f000324629464ff45020fdf71af8034680b996
:10490000a8eb040204f5004405f50045bc420bd0b9
:10491000324621464ff45020fff7f4fe03460028ac
:10492000e6d01846bde8f0819046394642464ff43d
:104930005020fff7e7fe03460028f2d14246294601
:104940004ff45020fcf7f4ff0346eae700b583b0cc
:104950004ff0ff33019301a902f0fdff20b9019848
:1049600003f021f80028fad003b05df804fb30b55d
:1049700087b0054690f8a24014b9d0f8a43063b9c6
:104980000120fdf7fcfe18bb012485f8a24000239e
:10499000c5f8a430204607b030bd0020fdf7effe7b
:1049a0000028f7d1d5f8ac300293d5f8b030019398
:1049b000d5f8a4300093d5f8a83004936846fdf7e5
:1049c000cffe0028e6d1002385f8a2300124e1e7dc
:1049d0000024dfe72de9f0418cb0441e14f1030ff1
:1049e00000f206814468002c00f00481002900f0e8
:1049f000038184781cb901200cb0bde8f0811f460a
:104a000016460d4604460021284600f062fb0028a9
:104a100000f0f48046b1337823f00403013bdbb2ad
:104a2000012b01d90220e7e795f8288008f1ff3330
:104a3000dbb2fe2b28bf4ff0ff086068fff797ff3f
:104a4000002800f0dd8095f82730002b42d005f1da
:104a5000210309930a9595f820308df82c308df8b4
:104a60002d80002e38d03378012b35d0022b43d047
:104a7000052b57d0062b40f0c58096f88130002bcf
:104a800000f0968001238df82130351d01955c21c1
:104a9000284603f0e4ff01300290451badf81850a2
:104aa00003f0d5ffadf81a00f36e0393736f049310
:104ab000b36f0593336fadf81c30f36fadf81e3054
:104ac00096f880308df8203001aa09a90220fdf760
:104ad00069fd05e00023bce709a90220fdf72ffcd2
:104ae000002840f091806368c3f88c706368987305
:104af000636883f8a1007fe73379402b0bd0002255
:104b00000192053602968df80c3001aa09a90220ff
:104b1000fdf730fce4e705360196002302938df89b
:104b20000c30f2e796f86d3113b301238df817308e
:104b3000351d01955c21284603f091ff013002905c
:104b4000451badf8105003f082ffadf8120006f1de
:104b500069030393b6f86a31adf8143096f86c31f6
:104b60008df8163001aa09a90220fdf787fcb7e7e6
:104b700000238df8173006f104084021404603f069
:104b80006eff05460190cdf8088040b103f05fff4d
:104b9000adf81000a5eb0805adf81250d7e70023db
:104ba000adf81030404603f052ffadf81200cee7ea
:104bb00000238df8213006f104084021404603f01f
:104bc0004eff05460190cdf8088040b103f03fff4d
:104bd000adf81800a5eb0805adf81a5064e70023fe
:104be000adf81830404603f032ffadf81a005be72d
:104bf000022001e70220ffe60220fde60920fbe695
:104c00000620f9e60620f7e60620f5e638b5431e4d
:104c100013f1030f17d84368bbb18278bab19a7bfe
:104c2000bab90d4604461846fff7a1fe98b1fdf744
:104c300078fb90b96368c3f88c50636898736368b5
:104c400083f8a10000e0022038bd0220fce701202b
:104c5000fae70820f8e70620f6e70620f4e718b19f
:104c6000012202700020704702207047b8b1f8b5e9
:104c70000646402a15d8b1b114460d460746022310
:104c800007f8053b41220021384603f0d8fe2246b2
:104c90002946384603f0c8fe34710020f8bd0220d2
:104ca00070470220fae70220f8e7f0b5a5b01c46ed
:104cb000431e13f1030f79d806460f461546426886
:104cc000002a76d0a1f10f03dbb2ef2b73d90db917
:104cd000002c72d1b378002b71d07b1edbb2fe2b7f
:104ce00028bfff2792f83f3023b3002d57d0ccb315
:104cf00000238df8043094f82420202a18d80df1d0
:104d0000050505f8012b211d284603f08dfe94f8ba
:104d100024301d449df804300133dbb28df804309b
:104d200024681cb3032b21d894f82420202ae8d926
:104d300002203ce092f840308df88c3092f84130ff
:104d40008df88d3092f842308df88e3092f84330e5
:104d50008df88f3023a8fdf725fd10f10c0fc4d17d
:104d6000082024e03846fdf77dfd03e001a9384620
:104d7000fdf7d4fd10f10f0f23d010f10e0f22d04c
:104d800073680122da73736800201874736898746a
:104d90007368587473682a9ac3f8882007e07368a8
:104da000b3f844103846fdf78afde3e7022025b04a
:104db000f0bd0220fbe70220f9e70220f7e701201f
:104dc000f5e70220f3e70320f1e7431e13f1030f99
:104dd00022d8436813b3827812b3da7b12bb70b562
:104de0000d4604461a7c01321a7443681e7cfdf796
:104df00003fe86420ad26368187cfdf7ecfd636807
:104e0000002098746368c3f8885070bd6268137c92
:104e1000013b13740520f8e7022070470220704719
:104e20000120704703207047431e13f1030f1fd862
:104e30004268fab101b3837803b3937c03b370b4cf
:104e400002f1130333321e685d689c68d8680e60f7
:104e50004d608c60c860103310319342f3d11868f4
:104e60005a689b6808604a608b60002070bc70477d
:104e700002207047022070470220704701207047cf
:104e80000420704708b5431e13f1030f0ad8436886
:104e900053b1827852b1db7b0bb1002003e0fdf708
:104ea000abfd00e0002008bd0020fce70020fae791
:104eb000431e13f1030f05d843682bb1807820b14e
:104ec000d87b70470020704700207047f8b5441e1b
:104ed00014f1030f00f296804468002c00f09480d7
:104ee000002900f0938084780cb90120f8bd1f469a
:104ef00016460d46044602f0aef92b781bb902f0b7
:104f0000aef90d20f2e7013b2b7002f0a8f96368bf
:104f100003f1d40295422ed16a78ff2a2bd00022c9
:104f2000c3f8f8202eb1ee612f62069b2b61079b20
:104f30006b61ab6913b12a69934225d963681b7908
:104f400013f0080f29d16a69ab68802a28bf802234
:104f500029696878fef78aff00284ad16368089ab1
:104f6000c3f8f82002f077f92b7801332b7002f0a8
:104f700076f90020bae702f06ef92b7801332b7036
:104f800002f06df90220b1e702f065f92b780133e8
:104f90002b7002f064f90220a8e70120fff708fc5b
:104fa000a8b9079b069a31466878fef793ff044636
:104fb0000020fff7fdfb98b9002cd3d002f04bf98d
:104fc0002b7801332b7002f04af908208ee702f0ab
:104fd00042f92b7801332b7002f041f9082085e764
:104fe00002f039f92b7801332b7002f038f90820e0
:104ff0007ce702f030f92b7801332b7002f02ff9a7
:10500000082073e7022071e702206fe702206de7b6
:1050100058b3034682793b2a29d841793b2928d8bd
:105020000079172827d870b58cb0dd781f2d24d8cb
:105030009e78741ee4b20b2c22d81b8840f26b744d
:10504000a34201d8002019e0019202910390049537
:10505000013e0596a3f26c73069301a803f032ff9c
:10506000b0f1ff3f08bf002008e00020704700209b
:105070007047002070470020704700200cb070bdc2
:105080000020fbe7431e13f1030f0dd843686bb1fb
:1050900082786ab19a7b6ab9012283f8a2204368b8
:1050a000c3f8b810002070470220704702207047f4
:1050b00001207047082070470346421e12f1030f7b
:1050c00005d8807820b15b6893f8a1007047012073
:1050d0007047f0b1024690f828300f3bdbb2ef2b5f
:1050e00019d990f82000202817d892f82730d3b18a
:1050f00030b402f121032732002413f8015b2c4362
:105100009342fad15cb161b1003018bf012030bccc
:105110007047002070470020704700207047002033
:10512000f5e70120f3e719b1003018bf01207047ff
:1051300001207047034668b10020c3f82100a3f89e
:10514000250083f8270083f8200083f8280083f8df
:105150002900704702207047c8b138b50446c1b174
:10516000202a18d81546c0ef5000034643f90d0a0f
:1051700043f90f0a03f058fc84f820500021204620
:10518000fff7a7ff002814bf0020092038bd022028
:1051900070470220fae70220f8e708b570b1a1f1e4
:1051a0000f02d2b2ef2a0bd980f828100021fff7a6
:1051b00090ff002814bf0020092008bd0220fce752
:1051c0000220fae708b540f22833c2f2f1635b68c7
:1051d00043b3012814d042b222b3032822d8d3f813
:1051e000c83023b140f22830c2f2f160984740f253
:1051f0002833c2f2f1635b680022c3f8c82011e0d3
:10520000d3f8c43023b140f22830c2f2f16098479d
:1052100040f22833c2f2f1635b68002283f8a020d9
:10522000c3f8c42008bd002900f08380f0b59db00c
:105230000c4640f22833c2f2f1635b6873b1012877
:105240000ed006280ad1d3f8cc303bb10a680392bd
:1052500003a940f22830c2f2f16098471db0f0bdba
:10526000d3f8d050002df9d00e784b6801938b689d
:1052700002936422002103a803f0e1fb731e042bb8
:10528000ecd8dfe803f003034d41490003afa44627
:105290005cf80c0fdcf80410dcf80820dcf80c30ab
:1052a0000fc7dcf81000dcf81410dcf81820dcf86c
:1052b0001c300fc70bafa4465cf82c0fdcf80410b1
:1052c000dcf80820dcf80c300fc7dcf81000dcf844
:1052d0001410dcf81820dcf81c300fc7b4f84c3080
:1052e000adf84c30b4f84e30adf84e3014af54f841
:1052f000500f6168a268e3680fc720696169a269fd
:10530000e3690fc703ab0ce0a389adf80c30e38968
:10531000adf80e3003ab04e0e368039303ab00e0a9
:10532000002301aa314640f22830c2f2f160a847ba
:1053300094e77047002900f02582f0b5ebb00c46e9
:1053400040f22833c2f2f1635d68002d00f0d7808f
:1053500004382e2800f2d380dfe810f0c201d1001b
:105360007d01d100d1002e01d100d100d100d100aa
:10537000d100d100d1002f00d1005000d100d100c8
:10538000d100d100d100d100d1001901d100d1004c
:10539000d100d100d100d100d100d100d100d10085
:1053a000d100d100d100d100e000d100bf00d10078
:1053b000d100d701d100d100fe00eb7b002b00f023
:1053c0009e800023eb7391f90130a3b90b786b74c5
:1053d0006bb9d5f88840002c00f0918000231a4664
:1053e000194640f22830c2f2f160a04787e0287cdd
:1053f000fdf7f1fa83e000236b7480e00b4653f86d
:10540000042f6a639b882b87012785f83a7005f182
:105410001306084650f80acf41688268c368c5f889
:1054200013c0c5f81710c5f81b20c5f81f30d0f8f9
:1054300010c041698269c369c5f823c0c5f8271047
:10544000c5f82b20c5f82f3003f001fb85f8330099
:1054500094f9013085f83d30a37885f83e30e37843
:1054600085f83b30af74d5f88840002c47d0297cb4
:10547000394433466a7cc9b240f22830c2f2f16046
:10548000a04740b940f22833c2f2f1635b680022c2
:10549000c3f8882033e040f22833c2f2f1635b683e
:1054a0001c7c3c44e4b21c74fdf7a6fa844208d389
:1054b00040f22833c2f2f1635b680022c3f888200f
:1054c0001de040f22834c2f2f1646368187cfdf7f5
:1054d00082fa636800229a7411e00b78012b10d0d5
:1054e00013b9ab7385f85430d5f88c503db140f208
:1054f0002830c2f2f160637822780146a8476bb089
:10550000f0bdab7395f8a230002bedd1d5f8a430e7
:10551000002be9d0012385f8a130e5e7d5f88c50c0
:10552000002decd091f900301733032b09d8dfe8b8
:1055300003f00a020406032306e0012304e0062325
:1055400002e0072300e0052340f22830c2f2f160b8
:1055500000220146a847d2e72b7b13b9012385f827
:10556000a130e378a178090441ea03612378194363
:10557000637841ea0321c5f8a410d5f8b830002bb0
:10558000bdd040f22830c2f2f1609847b7e7084634
:10559000fff73efd01460028b1d040f22833c2f2a9
:1055a000f1635b68d3f89030002ba8d040f228302c
:1055b000c2f2f1609847a2e7d5f8c030002b9ed028
:1055c000084603f044fa02468df82c00c0ef500064
:1055d00003ab43f90f0acded070bcded090b2146c7
:1055e000184603f021fa94f862308df83830022b17
:1055f00013d094f8633040f22834c2f2f164d5f845
:10560000c050b3fa83f35b090eaa03a92046a8474a
:1056100063680022c3f8c02071e704f12106304618
:1056200003f015fa02468df83c000df13d00c0ef85
:10563000500040f90f0a0df14d0343f90f0a0df127
:105640005d0343f90f0a0df16d0343f90f0a31466b
:1056500003f0eaf9cde7084603f0f9f9024685f8c8
:10566000750005f15506c0ef500046f90f0a05f127
:10567000650343f90f0a2146304603f0d5f994f843
:10568000211085f8841094f8252094f824301b0408
:1056900043ea026394f82220134394f8232043ea58
:1056a0000223ab6705f17c03224652f8260fe86718
:1056b00092889a80012285f8822085f85420d5f8b6
:1056c0009450002d3ff41baf40f22830c2f2f1603d
:1056d00094f92c200192009132460146a8470ee72a
:1056e00091f9002085f84e20d5f89830002b3ff432
:1056f00006af40f22834c2f2f164214620469847b2
:1057000063680022c3f89820f9e6d5f89c30002b96
:105710003ff4f5ae03a8fff70dfda51c284603f0e6
:1057200096f9c2b2294603a8fff716fd617803a8cf
:10573000fff733fd2378012b0cd0022b18d040f259
:105740002830c2f2f1604368d3f89c300022114641
:105750009847d4e60ea8fff782fa40f22830c2f24a
:10576000f1604368d3f89c300eaa03a99847c6e6b7
:105770002334204603f06bf9c2b221460ea8fff78e
:1057800075faeae770472de9f04f87b0174640f207
:105790002832c2f2f162546874b10e4604f1d405a5
:1057a00068b1d4f8f8403cb103460222294640f2e1
:1057b0002830c2f2f160a04707b0bde8f08f01f0d9
:1057c0004afd94f8d43013b901f049fdf4e7013be8
:1057d00084f8d43001f043fdd4f8f030002b00f011
:1057e000b380d4f8e830bb42c0f0ae8017b3d4f831
:1057f000f420974209d9bb464ff0000940f22838ff
:10580000c2f2f168aa4605974de0bb4601e0554655
:10581000059f5a463146d4f8f00003f005f9d4f854
:10582000f0305b44c4f8f030d4f8f430a3eb0b0351
:10583000c4f8f430d4f8e830db1bc4f8e830d4f80e
:10584000e4203a44c4f8e420002b5cd001f003fdce
:1058500094f8d430013384f8d43001f000fd40f2e4
:105860002830c2f2f1604368d3f8f8300293002286
:105870000192009213462946fff728fb9ce7013b63
:1058800084f8d43001f0ebfcd4f8f030bbb3d4f89a
:10589000f430002b53d0bbeb070b52d03e44d4f86e
:1058a000f4205a45b3d23146d4f8f00003f0bcf8e6
:1058b000d4f8f470c4f8f090c4f8f490d8f8043038
:1058c000d3f8f830002be6d001f0c5fc94f8d430c2
:1058d000013384f8d43001f0c2fcd8f80430d3f896
:1058e000f8504b46042251464046a84701f0b3fc0d
:1058f00094f8d430002bc2d101f0b1fc5ce75546de
:105900000023c4f8e83001f0a6fc94f8d430013349
:1059100084f8d43001f0a3fc40f22833c2f2f163e2
:105920005b68d3f8f840002c3ff446af0023022216
:10593000294640f22830c2f2f160a0473ce75546c4
:10594000dee75546059f75e701f085fc94f8d430f5
:10595000013384f8d43001f082fc2de738b540f2f1
:105960002832c2f2f162546894b1d4f8f8507db193
:105970000346032204f1d40140f22830c2f2f16060
:10598000a84701f068fc94f8d43013b901f067fc23
:1059900038bd013b84f8d43001f061fcff2384f86a
:1059a000d5300023c4f8ec3001f055fc94f8d43025
:1059b000013384f8d43001f052fce9e7f8b540f245
:1059c0002834c2f2f16464684cb117460d460646ad
:1059d00001f041fc94f8d43013b901f040fcf8bd5b
:1059e000013b84f8d43001f03afc36b1ff2384f84f
:1059f000d5300023c4f8ec3003e084f8d550c4f867
:105a0000ec700023c4f8e430c4f8e830c4f8f03097
:105a1000c4f8f43001f01ffc94f8d430013384f85a
:105a2000d43001f01cfc40f22833c2f2f1635b6811
:105a3000d3f8f850002dd2d03346012204f1d4011e
:105a400040f22830c2f2f160a847c8e778bb40f2c4
:105a50002833c2f2f1631b7823bb10b540f2282330
:105a6000c2f2f16300221a711a655a7183f8fd209f
:105a700049b10c460868fbf776fa626840f22823c1
:105a8000c2f2f1639a6040f22830c2f2f160012361
:105a9000037000228270437040f22823c2f2f16347
:105aa000436010bd40f22830c2f2f16070474ff001
:105ab000ff307047431e13f1030f05d80388012bf5
:105ac00005d090f9010070474ff0ff30704701207a
