:020000040000fa
:0200000426f0e4
:1000000004f19fe500f19fe5fcf09fe5f8f09fe526
:10001000f4f09fe500000000ecf09fe5e8f09fe5bc
:1000200000000fe11f00c0e3110080e300f021e1b8
:10003000d8d09fe507d0cde31f00c0e3120080e3d6
:1000400000f021e1c8d09fe507d0cde31f00c0e359
:10005000170080e300f021e1b8d09fe507d0cde3a1
:100060001f00c0e31b0080e300f021e1a8d09fe562
:1000700007d0cde31f00c0e31f0080e300f021e1c3
:1000800098d09fe507d0cde31f00c0e3130080e3c5
:1000900000f021e188d09fe507d0cde384009fe503
:1000a00084109fe584209fe5020051e104309034e4
:1000b00004308134fbffff3a74009fe574109fe524
:1000c0000020a0e3010050e104208034fcffff3a4f
:1000d0000606a0e30110a0e3001080e50000a0e305
:1000e000150f07ee510f11ee030b80e3510f01eed8
:1000f0000f06a0e3500f01ee0111a0e3101ae8ee85
:10010000dc2000fab81d00fafeffffea2000f0260e
:10011000a08ff126408ff126e08ff1262090f12666
:1001200020b0f12620a0f12690c8f0260000200083
:100130003c0020000000f126c88ef12610b540f2e8
:100140000004c2f2f164237863b940f20003c0f204
:1001500000032bb140f20000c0f20000aff30080ba
:100160000123237010bd00bf08b540f20003c0f2a8
:1001700000034bb140f2040140f20000c2f2f16111
:10018000c0f20000aff3008008bd00bf431e13f1b2
:10019000030f1bd810f47f4f1ad1c3b240f21c02d8
:1001a000c2f2f1629268934214d240f21c02c2f28f
:1001b000f162d268282101fb03235a6a82420bd1e3
:1001c000da78002a08bf0023184670470023fbe7af
:1001d0000023f9e70023f7e70023f5e7036a2bb1d3
:1001e0001a6a026200225a751a621a70704710b5b4
:1001f000896940f21c02c2f2f162c1f307206c234c
:1002000003fb0020c9b2c468282000fb01f1095b90
:1002100003fb01231b6c03b910bd6c2303fb0124fa
:100220000022114694f92c0006f05efe236c226b2e
:1002300040f2a001c2f2f16194f82c0006f091fcaa
:1002400000232364e8e770b50546806940f21c018d
:10025000c2f2f161c0f307246c2202fb0414c6b29f
:10026000282303fb06f3e4681e191b5b02fb031241
:10027000926a904221d040f21c04c2f2f1646c22d6
:1002800002fb034463691b68002106f10c009847d8
:10029000ab69a362002386f8203096f91c00b0f108
:1002a000ff3f09d0737f6bb9c0b200f01f0301217b
:1002b0009940400906f0adf970bd96f82020002a5b
:1002c000ebd0d8e7c0b200f01f03012199404009ec
:1002d00006f098f9f0e72de9f0410446816940f213
:1002e0001c02c2f2f162c1f307256c2303fb052552
:1002f000c8b2282101fb00f1e8680f180d5a03fb72
:10030000052300221a645a642269e3689a4271d371
:1003100040f21c00c2f2f1606c2101fb0501d31a0e
:100320000b6440f21c03c2f2f1636c2606fb053637
:10033000224640f2ef11c2f2f06196f82c0006f06e
:1003400007fc224640f24161c2f2f06196f82d00ae
:1003500006f0fefbbb69002b56d0082b66d840f296
:100360001c03c2f2f1636c2606fb05364ff40061f4
:1003700096f92d0006f0c7fd4ff4006196f92c00a8
:1003800006f0c1fd2369002b64d140f21c08c2f2c3
:10039000f1686c2707fb05860022114696f92d00af
:1003a00006f0a2fd736c0022726432463c32716b1f
:1003b00096f82d0006f0d5fbe368002b60d140f2e3
:1003c0001c02c2f2f1626c2303fb052500221146d8
:1003d00095f92c0006f088fd2b6c00222a642a6b0c
:1003e00040f2a001c2f2f16195f82c0006f0b9fbd1
:1003f000bde8f08140f21c00c2f2f1606c2101fb0b
:1004000005019b1a4b648ce740f21c03c2f2f163b6
:100410006c2606fb0536002196f92d0006f073fdcb
:10042000002196f92c0006f06efdabe740f21c03ac
:10043000c2f2f1636c2606fb05364ff4805196f943
:100440002d0006f060fd4ff4805196f92c0006f067
:100450005afd97e740f21c03c2f2f1636c2606fbdb
:1004600005364ff48022002196f92d0006f03cfd60
:1004700023696268716b96f82d0006f072fb9be7aa
:1004800040f21c03c2f2f1636c2606fb0536002223
:100490004ff4803196f92c0006f026fd736c73b191
:1004a000236940f21c02c2f2f1626c2101fb0525b6
:1004b0002a6ba16895f82c0006f053fb98e7e368d7
:1004c000efe770b590f82630002b5cd190f86930da
:1004d000012b01d0002557e00446002380f8693045
:1004e000866d90f92c30b3f1ff3f1ed090f92d307e
:1004f000b3f1ff3f19d035782db1307906f037fdd3
:1005000084f83a0040e006f00bfd0546307c06f02a
:100510002efd84f83900307d06f029fd84f838007e
:10052000284606f001fd01252ee035782db1307901
:1005300006f01dfd84f8570026e006f0f1fc0546a4
:100540007068b0f1ff3f0cd1b068b0f1ff3f0ed141
:10055000f068b0f1ff3f10d1284606f0e5fc012518
:1005600012e0c0b206f003fd84f85400ece7c0b21c
:1005700006f0fdfc84f85500eae7c0b206f0f7fc8f
:1005800084f85600e8e70125284670bd90f826302b
:1005900003b1704770b50446856d90f92c30b3f106
:1005a000ff3f1dd090f92d30b3f1ff3f18d02b78cd
:1005b0002bb190f83a10287906f0f0fc17e006f01d
:1005c000affc064694f83910287c06f0e7fc94f856
:1005d0003810287d06f0e2fc304606f0a5fc06e067
:1005e0002b7843b194f85710287906f0d7fc0123f3
:1005f00084f8693070bd06f093fc06466868b0f177
:10060000ff3f0bd1a868b0f1ff3f0dd1e868b0f112
:10061000ff3f0fd1304606f087fce8e794f854100e
:10062000c0b206f0bbfcede794f85510c0b206f07e
:10063000b5fcebe794f85610c0b206f0affce9e762
:100640002de9f04180460e46896940f21c02c2f253
:10065000f162c1f307246c2303fb0424c8b22821f0
:1006600001fb00f1e0680f180d5a03fb05235b6cda
:10067000002b48d113466c2202fb053463699b684a
:1006800098470028fad197f91c00b0f1ff3f0ad033
:100690007b7f002b58d1c0b200f01f03012199408d
:1006a000400905f0afff40f21c00c2f2f1606c237c
:1006b00003fb05007a6ab3699a4254d1b8f1010f7d
:1006c0004bd0b8f1020f4bd096f91480f669fff7c2
:1006d00085fd7b68002b48d040f21c03c2f2f16319
:1006e0006c2404fb053494f82630013384f826305a
:1006f0007b68ba6831464046984794f82630013bfb
:1007000084f8263031e040f21c08c2f2f1686c2710
:1007100007fb05840022114694f92d0006f0e4fb46
:100720002246636c3c32616b94f82d0006f019fa96
:10073000b0683169636c226b014494f82c0006f0b8
:1007400010fa002363641ce0c0b200f01f03012113
:100750009940400905f05dffa5e701233375b3e734
:10076000ff233375b0e7fff739fd40f21c02c2f2f8
:10077000f1626c2303fb05252c6a14b1637d012b08
:1007800001d0bde8f0812046fff75dfd02236375cf
:100790002046fff7a0fdf4e70378002b60d090f926
:1007a0001030022b5cd170b50546066ab46940f280
:1007b0001c02c2f2f162c4f307236c2101fb032384
:1007c000e4b2db68282202fb043494f91c00b0f187
:1007d000ff3f09d0637fa3b9c0b200f01f0301211e
:1007e0009940400905f00eff626ab3699a4211d040
:1007f0002846fff7f3fc2c6a14b1637d012b22d04d
:1008000070bdc0b200f01f0301219940400905f0fe
:1008100000ffe9e701233375f6692846fff7defca0
:100820006368002be7d095f82630013385f8263031
:100830006368a26831460120984795f82630013b4d
:1008400085f82630d7e72046fff7fdfc02236375c5
:100850006b695d6823696268e168a068a847cfe7b3
:100860007047000070b5002860d140f21c03c2f24e
:10087000f1631b78002b6ad140f21c03c2f2f163d2
:10088000012083f8680083f8690083f86a00187013
:100890000d685d618a6a9a614a6ada6100221a62a9
:1008a0000c69dc604c699c605a6098844ff0ff30a2
:1008b000986283f826205a7091f9040083f82c007e
:1008c00091f9054083f82d408e681e63ce685e6303
:1008d0008e699e64ce69de640e6a1e65c96a99657a
:1008e00083f860205a6640f2a002c2f2f162531e01
:1008f0001f32ff2103f8011f9342fbd1b0f1ff3fec
:1009000002d0b4f1ff3f09d1eb6840f21c01c2f202
:10091000f16140f29970c2f2f060984740f21c0316
:10092000c2f2f16302221a74002070bd06f0d6fafa
:1009300010b94ff0ff30f8e706f0cafa4af6146132
:10094000c2f2f06106f0d7f94ff0ff30ede706f0a4
:10095000c5fa10b94ff0ff30e7e706f0b9fa0349de
:1009600006f0c9f94ff0ff30dfe700bf2caef026ec
:1009700038b550b940f21c03c2f2f16393f8683005
:10098000012b10d04ff0ff3038bd06f0a7fa10b998
:100990004ff0ff30f8e706f09bfa534906f0abf949
:1009a0004ff0ff30f0e740f21c03c2f2f163002287
:1009b00083f8682093f91030022b61d140f21c03b8
:1009c000c2f2f1631b78002b5ad040f21c03c2f232
:1009d000f1635b78002b66d140f21c03c2f2f16335
:1009e0005b68002b69d140f21c03c2f2f1639d6881
:1009f000002d6fd040f21c03c2f2f163da6810469a
:100a0000d3784bb1283200230133ab4262d0104679
:100a10002832c478002cf7d10122c27011f0080fdf
:100a200005d040f21c02c2f2f1620124547040f27f
:100a30001c02c2f2f162546801345460948cdbb23f
:100a400043ea04434362938c01339bb24ff6ff7237
:100a5000934208bf012340f21c02c2f2f162938468
:100a6000012382f8683041f0040181700023436063
:100a70008360ff22027780f820300380406a83e79a
:100a800006f02cfa48b940f21c03c2f2f1630122cd
:100a900083f868204ff0ff3076e706f019fa134923
:100aa00006f029f9efe740f21c03c2f2f1630122dc
:100ab00083f868204ff0ff3066e711f0080f92d0fe
:100ac00040f21c03c2f2f163012283f868204ff068
:100ad000ff3059e740f21c03c2f2f163012283f8b0
:100ae00068204ff0ff304fe764aef0267caef02672
:100af000f8b50f461646fff749fb90b1054640f2a0
:100b00001c03c2f2f16304886c2202fb0434204609
:100b1000fff7d7fc78b16f60ae602046fff736fd77
:100b2000f8bd06f0dbf90028fad006f0d1f9074944
:100b300006f0e1f8f4e706f0d1f90028f0d006f06d
:100b4000c7f9034906f0d7f8eae700bf98aef026e8
:100b5000d0aef0262de9f04f83b00d9e002e00f0b0
:100b6000f780009315460f46019104464ff0ff337e
:100b70003360fff70bfb8146002800f0e980002d71
:100b80007bd0002f79d0b9f800a040f21c02c2f24d
:100b9000f1626c2303fb0a2393f8603053b140f2f7
:100ba0001c02c2f2f1626c2303fb0a23db6da34239
:100bb00040f0ce804ff06c0b0bfb0afb40f21c08a0
:100bc000c2f2f168d8444046fff77bfc00285cd0b5
:100bd000b9f800c040f21c02c2f2f1626c2303fbc0
:100be0000c239f69d869002800f0b9803b785bb17d
:100bf00007f1240200230133984200f0b080174629
:100c000012f8241b0029f6d101223a7000223a6220
:100c100040f21c02c2f2f1626c2101fb0c21888cb3
:100c200099f80020120242ea0042dbb21343fb6152
:100c30008b8c01339bb24ff6ff72934208bf0123a6
:100c400040f21c01c2f2f1616c2202fb0c1cacf8f8
:100c50002430009b7b60019bbb6001237b750023dc
:100c60003b75bc61d9f81830fbb1082b33d86d0047
:100c7000fd600c9b5b003b611ae00c9b002b67d076
:100c8000009b002b7ff47faf62e006f027f900287d
:100c90005ed006f01df9364906f02df858e006f052
:100ca00017f9344906f027f85de0fd600c9b3b61c5
:100cb000fb693360d8f820309bb140f21c03c2f2cc
:100cc000f1639b44dbf82030002b3ed01a6a002ae7
:100cd00037d11a4638e0ad00fd600c9b9b003b61ac
:100ce000e6e7c8f8207002237b753846fff7abfab9
:100cf00040f21c02c2f2f1626c2303fb0a2393f957
:100d00002c30b3f1ff3f0bd040f21c02c2f2f16273
:100d10006c2303fb0a2393f92d30b3f1ff3f1ad163
:100d200040f21c03c2f2f1636c2202fb0a3adaf8c9
:100d300014305c683b697a68f968b868a04704e0d9
:100d40001a46136a002bfbd117624046fff71efcc0
:100d500003b0bde8f08f3846fff7bdfaf5e706f0bf
:100d6000bdf800289bd14046fff710fcf0e700bf1c
:100d7000d0aef026ecaef02600b583b00193002390
:100d80000093fff7e7fe03b05df804fb10b5ccb2ab
:100d9000024645f6fb31c2f2f061204605f04efcfa
:100da00004f01f0301219940600905f039fc10bdd2
:100db00008b5c0b200f01f0301219940400905f0b9
:100dc00036fc08bd48f24003cff6034304225a61c3
:100dd000704748f24003cff6034304221a6170477c
:100de00048f2c003cff603434ff000721a61704718
:100df00048f2c003cff603434ff000725a617047c8
:100e0000012800d0704740f2c403c2f2f1639b682e
:100e10008b420ed040f2c403c2f2f163db688b4216
:100e2000f0d140f2c403c2f2f1635a7c01325a7429
:100e3000e8e740f2c403c2f2f1631a7c01321a748b
:100e4000704710b540f2c404c2f2f16404f1080323
:100e50000a4601466068fff78fffa368b3f1ff3fc2
:100e600015d040f2c404c2f2f16401e006f05cf86f
:100e700006f056f8237c002bf8d040f2c402c2f2f0
:100e8000f162013b137406f04ff8012010bd002001
:100e9000fce710b582b040f2c404c2f2f16404f180
:100ea0000c03019300910346012240f2c001c2f2fb
:100eb000f1616068fff74efee368b3f1ff3f16d0c3
:100ec00040f2c404c2f2f16401e006f02df806f02d
:100ed00027f8637c002bf8d040f2c402c2f2f16222
:100ee000013b537406f020f8012002b010bd002031
:100ef000fbe738b506f014f840f2c404c2f2f1641e
:100f00000025257406f010f806f00af8657406f05e
:100f10000bf86368b3f1ff3f0cd040f2c403c2f298
:100f2000f163002240f60161c2f2f0615868fff7f8
:100f3000dffd38bd40f2c404c2f2f1640321208811
:100f4000fff716fd6060b0f1ff3fe6d105f0c6ff88
:100f50000028e2d005f0bcff4af63871c2f2f06119
:100f600005f081fed9e740b1028840f2c403c2f225
:100f7000f1631a804ff0ff325a60704710b505f0e8
:100f8000cfff40f2c404c2f2f164237c0133237426
:100f900005f0caff05f0c4ff637c0133637405f0fc
:100fa000c3ff10bd08b503f019fd08bd08b5fff774
:100fb0001ffffff707ff642003f010fdfff710ff8e
:100fc0000a2003f00bfdfff704ff0a2003f006fde3
:100fd00008bd704700b583b040f2d803c2f2f16398
:100fe00000229a7001a941f2700000f099fc0346ba
:100ff00018b1184603b05df804fb019941f00201f5
:10100000019141f2700000f08ffc0346f1e708b552
:1010100040f2d803c2f2f1639b78e3b940f2d803ff
:10102000c2f2f1635b782bb940f2d803c2f2f163ec
:101030001b7853b940f2d802c2f2f16253780133ff
:10104000dbb253700023184608bd01f0fdfb0346d8
:101050000028efd0f7e70023f5e740f2d803c2f20b
:10106000f1635b783bb140f2d802c2f2f16253788f
:10107000013bdbb253700020704708b540f2d80343
:10108000c2f2f1635b783bb140f2d802c2f2f16286
:101090005378013bdbb2537040f2d803c2f2f163e4
:1010a0005b7853b940f2d803c2f2f1631b780bb9f5
:1010b000002003e001f093fb00e0002008bd08b52c
:1010c000fff7a5ff40f2d803c2f2f163c0ef500072
:1010d00043f90f0ac3ed040bc3ed060bc3ed080b78
:1010e00008bd00002de9f04f87b005460e46934637
:1010f0009a46109fbdf84490bdf8488040f2001415
:10110000c2f2f16401e005f00fff05f009ff23785a
:10111000002bf8d040f20012c2f2f162013b1370d2
:1011200005f002ff06f07f038df815308df814509e
:10113000002f3ad009f1080343449bb2adf81630b2
:1011400040f23c62934200f2fc80fff760ff0446ed
:10115000002840f0eb8000230393adf806300293a3
:10116000029b1d430295029b43ea06260296029bc0
:10117000bdf8162043ea02430293029941f28c0023
:1011800000f0d2fb0446a0b1fff767ff05f0c8fef0
:1011900040f20013c2f2f1631a7801321a7005f0be
:1011a000c3fe204607b0bde8f08f0af108039bb2ea
:1011b000c4e700230293029b43f0020302930299c7
:1011c00041f2780000f0b0fb04460028dcd1002397
:1011d0000393adf80630bdf806309bb2b3f57a7fc5
:1011e0003ed241f278044af64c75c2f2f06512e044
:1011f0000120fff7d7fe029b13f0020f26d0bdf8a7
:10120000063001339bb2adf80630bdf806309bb214
:10121000b3f57a7f24d202a9204600f081fbf8b909
:10122000bdf806309bb2b3f5fa7fe4d3bdf80630c3
:101230009bb2b3f5fa7fdbd805f050fe0128d7d971
:1012400005f046fe294605f00efdd1e703a94ff44f
:101250008060c0f2150000f063fb044600284fd107
:10126000039b002b4fd0039b04930498082205a9ed
:1012700000f08bfb0446002886d1049b08330493be
:10128000bbf1000f0bd004985246594600f07dfb8d
:10129000044600287ff478af049b5344049387b13d
:1012a000049aa8eb0a031344049304984a46394667
:1012b00000f06bfb044600287ff466af049b4b44b0
:1012c0000493039b9b000293029b43f0020302934f
:1012d000029941f26c0000f027fb044600287ff4dd
:1012e00053affff7cafe044605f01afe40f20013a2
:1012f000c2f2f1631a7801321a7005f015fe50e758
:101300000023039340e7fff7b8fe044605f0e6fd2f
:10131000032802d86ff0020438e705f0d9fd224611
:10132000114905f0a0fc6ff002042fe705f0d6fd8f
:1013300000283ff42baf05f0cbfd0c4905f093fce2
:1013400024e705f0cbfd10b94ff0ff341ee705f0a0
:10135000bffd40f23c63bdf81620054905f083fc53
:101360004ff0ff3412e700bf60aff02680aff026e9
:10137000a4aff02630b587b040f20014c2f2f16499
:1013800001e005f0d1fd05f0cbfd2378002bf8d06e
:1013900040f20012c2f2f162013b137005f0c4fd8d
:1013a00003a941f2700000f0bbfa0446002840f0a7
:1013b0009281039911f0010f00f0748121f0010175
:1013c000039141f2700000f0affa0446002840f0ab
:1013d0006c8140f2d803c2f2f16301229a70039d3e
:1013e000c5f38b05002d00f04f810023059305a95f
:1013f00041f2840000f094fa0446002848d1059890
:1014000040f2d803c2f2f16358609d60042204a93f
:1014100000f08efa0446002845d1bdf812309d42f6
:1014200002d0eb1a042b49dc05f07afd40f20013e0
:10143000c2f2f1631a7801321a7005f075fd9df859
:101440001030012b51d0022b7ed0042b00f09b805a
:10145000062b00f0b780072b00f0d380052b40f05f
:10146000fb8040f2d803c2f2f1635b6a002b00f00c
:10147000e88040f2d803c2f2f1635b6abdf8121053
:101480000839059a083289b29df81100984740e062
:1014900005f024fd002800f0088105f019fd9849a9
:1014a00005f0e1fb01e105f019fd002800f0fd80e9
:1014b00005f00efd934905f0d6fbf6e005f00efdb4
:1014c00010b96ff00504f0e005f002fd9df8113051
:1014d00001939df810300093bdf812302a468a49d6
:1014e00005f0c1fb6ff00504dfe040f2d803c2f263
:1014f000f163db68f3b140f2d803c2f2f163db6859
:10150000bdf812100839059a083289b29df8110009
:10151000984740f2d803c2f2f1639b78002b00f0a9
:10152000cf8005f0dbfc002840f0a480fff752fddf
:101530000446c5e005f0d2fc0028ead005f0c8fc5e
:10154000724905f090fbe4e740f2d803c2f2f16380
:101550001b6973b140f2d803c2f2f1631b69bdf895
:1015600012100839059a083289b29df8110098477f
:10157000cfe705f0b3fc0028cbd005f0a9fc644907
:1015800005f071fbc5e740f2d803c2f2f1635b6975
:1015900073b140f2d803c2f2f1635b69bdf8121077
:1015a0000839059a083289b29df811009847b0e7ca
:1015b00005f094fc0028acd005f08afc554905f0f4
:1015c00052fba6e740f2d803c2f2f1631b6a73b183
:1015d00040f2d803c2f2f1631b6abdf81210083959
:1015e000059a083289b29df81100984791e705f0f5
:1015f00075fc00288dd005f06bfc474905f033fbe6
:1016000087e740f2d803c2f2f1639b6973b140f2fd
:10161000d803c2f2f1639b69bdf812100839059a2c
:10162000083289b29df81100984772e705f056fc20
:1016300000283ff46eaf05f04bfc384905f013fb72
:1016400067e705f04bfc00283ff463af05f040fc72
:10165000334905f008fb5ce705f040fc10b96ff07a
:1016600005042de005f034fc2e4905f0fcfa6ff07e
:10167000050425e005f02cfc9df811309df81020a4
:10168000294905f0f0fa51e705f028fc10b96ff090
:1016900001040ae005f01cfc244905f0e4fa6ff0af
:1016a000010402e005f01afc70b905f039fc40f2c3
:1016b0000013c2f2f1631a7801321a7005f034fc9b
:1016c0009cb9204607b030bd05f002fc039a1849ca
:1016d00005f0c9fae9e705f001fc0028e5d005f0be
:1016e000f7fb144905f0bffadfe705f0f7fb002828
:1016f000e7d005f0edfb22460f4905f0b4fae0e72c
:10170000d8aff02600b0f0261cb0f0265cb0f02672
:1017100080b0f026a4b0f026c8b0f026ecb0f026d9
:1017200010b1f02634b1f02650b1f02680b1f02689
:1017300094b1f026b0b1f026d8b1f02670b51d46b0
:1017400078b31446034661b35ab340f2d802c2f2ea
:10175000f1629268944238d840f2d802c2f2f16243
:101760005268824245d8261840f2d802c2f2f1628d
:1017700050689268024496423bd82246184600f0d0
:10178000d7f8034688b940f2d802c2f2f162516834
:1017900092680a44964200d03db1fff71bfc034615
:1017a00003e025b1fff716fc0346184670bd05f0af
:1017b00095fb10b96ff00b03f7e705f089fb1449af
:1017c00005f051fa6ff00b03efe705f087fb10b956
:1017d0006ff00b03e9e705f07bfb40f2d803c2f2a0
:1017e000f1639b6822460b4905f03dfa6ff00b034d
:1017f000dbe705f073fb10b96ff00b03d5e705f0dd
:1018000067fb054905f02ffa6ff00b03cde700bf2a
:1018100008b2f0262cb2f02674b2f026431e062b36
:1018200036d8dfe803f00b0419122e20270040f20f
:10183000d803c2f2f16319610020704740f2d80367
:10184000c2f2f163d9600020704740f2d803c2f2bf
:10185000f16359610020704740f2d803c2f2f1638e
:10186000d9610020704740f2d803c2f2f1631962d7
:101870000020704740f2d803c2f2f1639961002062
:10188000704740f2d803c2f2f163596200207047fa
:1018900010b5044605f022fb40b105f019fb2246c5
:1018a000044905f0e0f96ff00b0010bd6ff00b007c
:1018b000fbe700bfbcb2f02608b540f2d803c2f285
:1018c000f163c0ef500043f90f0ac3ed040bc3ed01
:1018d000060bc3ed080b05f023fb40f20013c2f228
:1018e000f16301221a7005f01ffb40f6d371c2f2ba
:1018f000f0610320fff792ff002008bd08b5fff755
:1019000055fb0120fff74efb002008bd002070476b
:1019100008b501f057fb08bd08b501f016fc08bd7d
:1019200008b501f07ffb08bd08b501f017fc08bd44
:101930002de9f0478a4615464cf60403c2f2f063df
:101940001f88083fbfb2ba421cd93e460446a1ebed
:101950000009a7eb00083a4609eb0401204601f014
:101960000ffd034658b9ad1b08eb04013444ae42e9
:10197000f1d3aab25144204601f002fd03461846b5
:10198000bde8f08704460021f3e72de9f0478a46d9
:1019900015464cf60403c2f2f0631f88083fbfb23d
:1019a000ba421cd93e460446a1eb0009a7eb000849
:1019b0003a4609eb0401204601f071fd034658b98f
:1019c000ad1b08eb04013444ae42f1d3aab251443a
:1019d000204601f064fd03461846bde8f087044642
:1019e0000021f3e730b585b000230393c0ef10006a
:1019f000cded010b00284ad00446c0ef500003464d
:101a000043f90d0a43f90d0a43f90f0703a908200a
:101a1000c0f20c00fff784ff0346002838d103987a
:101a2000002838d0082201a940f44030fff780ff99
:101a3000034668bbbdf80800039078b3282221460e
:101a400040f44030fff774ff034608bb2279a179c8
:101a500001f00f0141ea022160790001c0b2e5798d
:101a6000627a02f00f0242ea0522247a2401e4b2eb
:101a70002243014315d0bab141f27730824216d8e1
:101a800041f27632914298bf6ff00c0300e00023e0
:101a9000184605b030bd6ff00b03f9e76ff00b038c
:101aa000f6e76ff00b03f3e76ff00b03f0e76ff06f
:101ab0000c03ede738b50020fff720ff0446b8b966
:101ac00001f0a2fa00f011fe000d0005b0f5401f74
:101ad0001bd101f0c1fb05f001fa012818d8002143
:101ae0004ff44070c0f20200fff71eff204638bde1
:101af00005f0f4f90028f9d005f0eaf94bf2c82115
:101b0000c2f2f06105f0aff8f0e700f0e9fee0e7bf
:101b100005f0def9054600f0e8fd024602492846d8
:101b200005f0a1f8dbe700bfe8b2f02638b501f018
:101b30006bfa0020fff7e2fe48b901f08dfb044686
:101b400098b905f0cbf9012819d8204638bd0446cc
:101b500005f0c4f90028f8d005f0baf94bf2c82115
:101b6000c2f2f06105f07ff8efe705f0b7f9002861
:101b7000ebd005f0adf9074905f075f8e5e705f09c
:101b8000a7f9054600f0b1fd02460349284605f0d5
:101b90006af8dae7f8b2f026e8b2f02638b580b194
:101ba0000478631edbb2042b28bf0124204600f01a
:101bb000cbfe054638b1fff7a9fe01f02cfa284606
:101bc00038bd0124f2e7204600f068ff05460028f2
:101bd000f1d1023ce4b2012cf1d900f05afd0546e6
:101be0000028ecd005f07af90028e4d005f070f96f
:101bf000014905f038f8dee718b3f02610b500f01b
:101c0000bbff70b9fff784fe002002f019fe044606
:101c100090b9fff77bfe0446c0b901f0fcf92046fd
:101c200010bd044605f05af90028f8d005f050f927
:101c30000b4905f018f8f2e705f050f90028eed04e
:101c400005f046f9074905f00ef8e8e705f046f912
:101c50000028e4d005f03cf9034905f004f8dee77c
:101c600038b3f02658b3f02680b3f0262de9f041c2
:101c70009eb015462c2835d004461b2845d0062892
:101c800056d00e283ed0322865d03d2876d02f2859
:101c900000f08780342800f09d80112800f0c38078
:101ca000132800f0e180042800f0f380652800f09c
:101cb0000581092800f017812a2800f029812728aa
:101cc00000f03b81202800f04d811d2800f06c8140
:101cd00005f004f9b0b105f0fbf82246b14904f073
:101ce000c2ff0fe00023042203a92846fff726fdc8
:101cf00040b940f20c13c2f2f1631b6813b103a99f
:101d00002c2098471eb0bde8f0810023082203a9cb
:101d10002846fff713fd0028f4d140f20c13c2f25d
:101d2000f1631b68002bedd003a91b209847e9e75e
:101d30000123302203a92846fff700fd0028e1d146
:101d400040f20c13c2f2f1631b68002bdad003a936
:101d500006209847d6e70023182203a92846fff754
:101d6000edfc0028ced140f20c13c2f2f1631b68e7
:101d7000002bc7d003a932209847c3e701230022d4
:101d800011462846fff7dafc0028bbd140f20c13bd
:101d9000c2f2f1631b68002bb4d000213d209847ac
:101da000b0e764242246002103a806f0fafd0023d0
:101db000224603a92846fff7c1fc0028a2d140f221
:101dc0000c13c2f2f1631b68002b9bd003a92f20d8
:101dd000984797e70023042203a92846fff7aefca3
:101de00000288fd105f07af801280ad840f20c13a8
:101df000c2f2f1631b68002b84d000213420984785
:101e000080e705f065f8039ad3b20193c2f3072384
:101e10000093c2f30743120e4bf29c31c2f2f06101
:101e200004f021ffe2e740f21412c2f2f162002353
:101e30001370042203a92846fff780fc00287ff4d2
:101e400061af9df80c2040f21213c2f2f1631a70d8
:101e500040f20c13c2f2f1631b68002b3ff452af47
:101e600003a9112098474de700232c2203a92846f7
:101e7000fff764fc00287ff445af40f20c13c2f278
:101e8000f1631b68002b3ff43daf03a91320984773
:101e900038e7002304221ca92846fff74ffc00283e
:101ea0007ff430af40f20c13c2f2f1631b68002bd9
:101eb0003ff428af1ca90420984723e700230422fd
:101ec0001ca92846fff73afc00287ff41baf40f21c
:101ed0000c13c2f2f1631b68002b3ff413af1ca973
:101ee000652098470ee70123642203a92846fff7df
:101ef00025fc00287ff406af40f20c13c2f2f16318
:101f00001b68002b3ff4feae03a909209847f9e6b1
:101f10000123042203a92846fff710fc00287ff4c0
:101f2000f1ae40f20c13c2f2f1631b68002b3ff4d8
:101f3000e9ae03a92a209847e4e60023042203a976
:101f40002846fff7fbfb00287ff4dcae40f20c13c1
:101f5000c2f2f1631b68002b3ff4d4ae03a9272023
:101f60009847cfe60023082203a92846fff7e6fb9f
:101f700000287ff4c7ae0123bdf81020039905f1b6
:101f80000800fff7dbfb00287ff4bcae40f20c1327
:101f9000c2f2f1631b68002b3ff4b4ae03a920200a
:101fa0009847afe6bcb3f0260023042202a92846d6
:101fb000fff7c4fb00287ff4a5aebdf80a80bdf88a
:101fc0000830adf80e3040f20813c2f2f1631b681e
:101fd000002b3ff497ae40f20413c2f2f1631b688a
:101fe000002b3ff48fae40f21013c2f2f1631b8856
:101ff000002b3ff487ae40f21017c2f2f16740f2b7
:102000000414c2f2f16440f20816c2f2f1661ee056
:102010000023adf80c20216808eb0500fff78efbcc
:1020200000287ff46faebdf80c30bdf80e20d21a38
:10203000adf80e2043441ffa83f8336803aa2168e1
:102040001d209847bdf80e30002b3ff45baebdf865
:102050000e303a889342dbd81a460123d9e700bff5
:1020600008b508b30346027862b390f82120013a1c
:10207000d2b20d2a34d890f841202ab990f84220e3
:1020800012b990f84320cab393f83f20012a5fd0d9
:10209000032a5fd0022a4dd193f82330083bdbb2ec
:1020a000382b39d8002008bd04f018ff10b96ff0a4
:1020b0000b00f8e704f00cff284904f0d4fd6ff0a2
:1020c0000b00f0e704f00aff10b96ff00b00eae72d
:1020d00004f0fefe224904f0c6fd6ff00b00e2e7bb
:1020e00004f0fcfe10b96ff00b00dce704f0f0fe2a
:1020f0001c4904f0b8fd6ff00b00d4e704f0eefecd
:1021000010b96ff00b00cee704f0e2fe164904f0c0
:10211000aafd6ff00b00c6e704f0e0fe10b96ff007
:102120000b00c0e704f0d4fe104904f09cfd6ff0f2
:102130000b00b8e704f0d2fe10b96ff00b00b2e765
:1021400004f0c6fe0a4904f08efd6ff00b00aae70a
:102150000020a8e76ff00b00a5e700bfd4b3f0267e
:10216000e8b3f026f8b3f02608b4f02624b4f0263d
:102170003cb4f02610b5fff79dfc044608b120469c
:1021800010bd00f086fa40f21313c2f2f16301228f
:102190001a70f4e708b5fff7c9fc034628b940f206
:1021a0001312c2f2f16201211170184608bd00003d
:1021b00010b58eb001238df80f30002800f0b480e8
:1021c00040f20c12c2f2f1620168116040f2081292
:1021d000c2f2f1628168116040f20412c2f2f1624f
:1021e000c168116040f21012c2f2f162018a1180de
:1021f000837c13b104238df80f3040f21413c2f224
:10220000f16300221a700df10f00fff7c7fc0446be
:1022100010b120460eb010bd40f21313c2f2f163ac
:1022200002221a70fff748fb044640b140f2131334
:10223000c2f2f16300201870fff7e0fce9e741f615
:102240006d41c2f2f0610120fff7e8fa04a8fff740
:10225000c9fb044604f042fe012820d804f03efeeb
:10226000012822d804f03afe01282ed804f036fec8
:10227000012834d804f032fe01283dd804f02efea7
:10228000012842d814f10d0fc3d104f027fe002815
:10229000bfd004f01dfe264904f0e5fcb9e704f0c8
:1022a00017fe244904f0dffcd8e704f011febdf866
:1022b000303001939df8163000939df815309df84d
:1022c00014201d4904f0cffccce704f001fe0df111
:1022d00026030df11a02194904f0c5fcc6e704f003
:1022e000f7fd9df8193000939df818309df81720e0
:1022f000134904f0b8fcbde704f0eafd072300939e
:102300001322104904f0affcb8e704f0e1fd4bf2f2
:102310009c31c2f2f06101f5ae7301f5b47201f5c2
:10232000ba7104f0a0fcade76ff00b0471e700bfd9
:1023300030b5f0265cb4f02678b4f0269cb4f026d4
:10234000bcb4f026e0b4f02610b540f21313c2f28c
:10235000f16300241c702046fef7b1fe2046fff713
:102360004dfc204610bd08b5fff704f808bd10b5b8
:1023700084b00446fff774fe58b9002202929423f9
:10238000019300941346c6210120fef7abfe04b072
:1023900010bd6ff00b00fae710b50446fef737feec
:1023a000034608b1184610bd204600f013fc034652
:1023b0000028f7d1fef761fe0346f3e700b587b0ca
:1023c0008df814000023029301930093042305aabf
:1023d00012210120fef786fe07b05df804fb40f2f3
:1023e0001213c2f2f1631878704708b500f07df956
:1023f00008bd000000284ad02de9f041bab00446db
:1024000090460e46fff72cfe00283dd1882221463b
:1024100004a806f0bbfa54f8881f6268a368cdf8d8
:10242000d910cdf8dd20cdf8e130337803b3344650
:1024300026af40363d4620686168a268e3680fc554
:1024400010342f46b442f5d18df8d88040f21412e2
:10245000c2f2f16200231370029301930093d82318
:1024600004aa88210120fef73dfe3ab0bde8f081c4
:1024700004f034fd10b96ff00b00f6e704f028fd0e
:10248000044904f0f0fbf6e76ff00b00ede76ff0a6
:102490000b0070476cb6f02640f21313c2f2f163e2
:1024a0001878704730b59db0144606281fd007280d
:1024b00031d0012801d01db030bd00237022694603
:1024c0002046fff73bf90546002872d140f2181369
:1024d000c2f2f1631a68002a6bd040f21c13c2f2f8
:1024e000f16370341c6069460120904761e000236d
:1024f000042269462046fff721f90546002858d1f5
:1025000040f21813c2f2f1631b68002b51d06946e8
:10251000062098474de00023082269462046fff731
:102520000df90546002838d1bdf80420bdf8060095
:10253000bdf802309df800107ab94cf60602c2f2de
:10254000f06201241470984214bf00230123032970
:1025500057d8dfe801f00d211b3f02449a4214bf17
:1025600000230123032945d8dfe801f002161034c7
:102570004cf60602c2f2f0621278012a0cd14cf637
:102580000602c2f2f0620021117005e04cf606026c
:10259000c2f2f062022111705bb140f21813c2f274
:1025a000f1631b682bb14cf60601c2f2f061072003
:1025b0009847002d3ff47faf04f090fc00283ff4d3
:1025c0007aaf04f085fc4bf2f861c2f2f06104f0de
:1025d0004afb70e74cf60602c2f2f0621278022a59
:1025e000dad0042ad8d04cf60602c2f2f0620321f7
:1025f0001170d1e74cf60602c2f2f0621278022a9c
:10260000cad04cf60602c2f2f06204211170c3e790
:1026100010b540f21813c2f2f163186040f21c13b7
:10262000c2f2f16300221a604cf60603c2f2f063b4
:1026300004221a7042f2a541c2f2f0610520fff7b0
:10264000edf8044608b9204610bd04f047fc002808
:10265000f9d004f03dfc2246014904f004fbf2e706
:102660001cb7f02670b582b040f480754ff4a554c5
:10267000002629462046fff757f9019601a9204672
:10268000fff74ef90028f4d1019bab42f1d102b023
:1026900070bd00b583b00023019301a941f2084049
:1026a000fff73ef9034618b1184603b05df804fb86
:1026b000019941f48071019141f20840fff734f92a
:1026c00003460028f0d101a94ff4d050fff728f9b4
:1026d00003460028e8d1019941f4803101914ff47b
:1026e000d050fff721f90346dee710b582b040f283
:1026f0002013c2f2f1631c683cb140f22013c2f215
:10270000f1631c68204602b010bd19464ff480509a
:10271000fff706f930b140f22013c2f2f163002254
:102720001a60efe701a941f2f430fff7f9f800bbb6
:1027300040f22013c2f2f1631b684ff42872c0f21a
:10274000100293421cd04ff42c72c0f2100293423c
:1027500023d0f022c0f2100293422fd040f2201278
:10276000c2f2f162136823f4702343f4a0231360d0
:10277000c3e740f22013c2f2f16300221a60c1e7fe
:10278000019b012bead040f22013c2f2f16340f228
:10279000a122c0f210021a60e0e7019b032bddd0fa
:1027a000042b40f22013c2f2f1630cbf40f2b122bd
:1027b00040f2b222c0f210021a60cfe740f22011bc
:1027c000c2f2f1614ff46c10fff7aaf80028c5d0ef
:1027d00040f22013c2f2f16300221a6092e710b5b2
:1027e00082b0102401a92046fff79af80346f8b9f1
:1027f000019b13f0010ff5d101a90120fff790f81b
:102800000346a8b9019911f0020f07d021f0020187
:1028100001910120fff788f8034648b901a90b2070
:10282000fff77ef8034618b9019911f0010f02d1a4
:10283000184602b010bd21f0010101910b20fff7f5
:1028400073f80346f4e70000f0b583b0002301936a
:1028500001210b20fff768f8044610b1204603b0b1
:10286000f0bd02210120fff75ff804460028f5d1f2
:102870000320fef797fb05250f26022701a9304606
:10288000fff74ef8044670b9019b13f0040f21d1f5
:102890003846fef787fb013df0d104f01ffb88b9f5
:1028a0006ff00304dae704f019fb0028d6d004f037
:1028b0000ffb019b22464bf2d471c2f2f06104f08f
:1028c000d2f9cbe704f004fb044904f0ccf96ff033
:1028d0000304c3e7fff71cf8c0e700bfecb7f0261e
:1028e00030b583b00023019301a941f21810fff71e
:1028f00017f80446019941f00101019141f21810c5
:10290000fff712f80444e4b201a94ff4a050fff716
:1029100007f80444e4b2019911f4806f02d160b267
:1029200003b030bd21f4806101914ff4a050fef757
:10293000fbff054601a94ff4a050fef7f1ff284424
:10294000044460b2ece700002de9f041804641f21a
:10295000140401252046fef7dfff002803db28468c
:10296000fef720fbf6e740f2bc70c0f20200fef773
:10297000d3ff10f0010f34d0b8f1020f52d0b8f1ec
:10298000030f61d0b8f1040f6fd041f27731c1f27b
:10299000303141f28c00fef7c7ff0024fff7a5fe9f
:1029a000c0f30b00b0f5687f2cbf44f00200204656
:1029b000fff758fe04f092fa012860d842f66171e0
:1029c000cef652714ff00c10fef7aeff0020bde8be
:1029d000f08104f07dfa2f4904f045f96ff004000e
:1029e000f5e70120fef7defa4ff00c10fef794ff3a
:1029f0004ff400544df29e05c1f2ad0501274ff092
:102a00000c16a842b8d03846fef7ccfa3046fef78e
:102a100083ff013cf5d104f061fa0328d9d86ff0a7
:102a20000400d4e74df27d51c3f61c4140f2ac7076
:102a3000c0f20200fef778ff4ff4801141f28c00e3
:102a4000fef772ff0024a9e74df27d51c3f61c4149
:102a500040f2ac70c0f20200fef766ff002141f2c6
:102a60008c00fef761ff002498e741f27731c1f254
:102a7000303141f28c00fef757ff80248ee704f0de
:102a800027fa41f27732c1f23032034904f0ebf811
:102a900094e700bf0cb8f02634b8f0262de9f043d7
:102aa00085b041f28c03039342f23663c0f25323a4
:102ab00002930238c0b2012806d94ff40054002016
:102ac0000225dff8b08027e040f2ac73c0f20203c9
:102ad00003934cf2c313cdf25d730293ede704f060
:102ae000f7f9064641f28c00fef716ff074641f261
:102af0008c00fef711ff81464ff4a550fef70cff46
:102b000000904b463a464146304604f0acf80398f4
:102b1000fef702ff013c0ad0029b834216d02846f2
:102b2000fef740fa04f0daf90328f0d9d7e704f009
:102b3000d5f9032802d86ff004000fe004f0c8f9bb
:102b40000b4904f090f86ff0040007e0029a42f29b
:102b50003663c0f253239a4203d0002005b0bde88b
:102b6000f083002141f28c00fef7defe0020f5e745
:102b70005cb8f02650b8f02610b582b0002301935f
:102b800001a94ff4a050fef7cbfe60b9019921f4e2
:102b9000806101914ff4a050fef7c6fe044668b96b
:102ba000204602b010bd044604f098f90028f7d082
:102bb00004f08ef9064904f056f8f1e704f08ef9b6
:102bc0000028edd004f084f9014904f04cf8e7e75f
:102bd0007cb8f02610b586b00446c0ef1000cdeded
:102be000010b05a90820c0f20c00fef799fe034670
:102bf00010b1184606b010bd082201a9059840f48e
:102c00004030fef795fe03460028f2d1bdf80400df
:102c10000590062203a940f44030fef789fe0346e2
:102c200003982060bdf81020a280e2e770b584b060
:102c30009df820408df80400c3380c2800f2a380d2
:102c4000dfe800f05f33a1a14d4d7807a1a1a1a15c
:102c500044000b0c8df805300b0a8df806308df80a
:102c60000710052140f22413c2f2f1631b78002bf8
:102c700075d14d1e01ab5e197f204bf65c74c2f21c
:102c8000f06413f8012b82ea4002a05cb342f8d151
:102c900004ab1d44420005f80c2c01a8fef7d1f846
:102ca00000285fd0002004b070bdc1f3072344b9f1
:102cb0008df805308df8061000238df807300521ba
:102cc000d0e763f07f038df80530f3e7ff238df83d
:102cd00005308df806308df807300521c2e70a0c63
:102ce0008df805200a0a8df806208df807101a0cb9
:102cf0008df808201a0a8df809208df80a3008216d
:102d0000b0e7c1f3072384b98df805308df80610bc
:102d1000130e8df80730130c8df80830130a8df858
:102d200009308df80a2008219ce763f07f038df8b5
:102d30000530ebe70b0c8df805300b0a8df80630eb
:102d40008df80710130e8df80830130c8df809302c
:102d5000130a8df80a308df80b20092182e701391a
:102d6000c9b29ae704f0baf810b94ff0ff309ae709
:102d700004f0aef84bf6f801c2f2f06103f073ff15
:102d80004ff0ff308fe74ff0ff308ce7f0b583b0a6
:102d900006460d46cf2817d00a24012739460df1e3
:102da0000700fef776f8c8b19df80730b34223d08c
:102db00015bb013c64b2b4f1ff3fefd104f08ef8d3
:102dc00098bb4ff0ff3049e001210df10700fef7fd
:102dd00060f80028e0d14ff0ff303fe004f07ef8cb
:102de00010b94ff0ff3039e004f072f8204903f0d9
:102df0003aff4ff0ff3031e0002cdfdb0a240126e0
:102e000031460df10700fef744f8b0b19df80730e8
:102e10000bb305bb013c64b2b4f1ff3ff0d104f049
:102e20005df8e8b94ff0ff3018e004f051f81149af
:102e300003f019ff4ff0ff3010e004f04ff810b925
:102e40004ff0ff300ae004f043f8094903f00bffac
:102e50004ff0ff3002e0002ce1db002003b0f0bdba
:102e600004f036f8034903f0fefe4ff0ff30f5e7bb
:102e700024b9f0265cb9f0262de9f04f83b08346e3
:102e80000e469246002740f22419c2f2f16923e06f
:102e900004f024f820b94ff0ff3003b0bde8f08f04
:102ea00004f016f8384903f0defe4ff0ff30f4e787
:102eb000002c2bdd41460beb0700fdf7eaff78b352
:102ec00099f800305aea030348d047443fb2a6ebd2
:102ed0000806b6b2002e55d0b046b6f5005f28bf42
:102ee0004ff400580a24012529460df10300fdf78f
:102ef000d0ff0028ccd09df8033003f0f003f02b76
:102f0000d6d0013c24b2b4f1ff3fedd1baf1000fad
:102f10000cd041460beb0700fdf7bbff0028d4d1d6
:102f200003f0dcff90b94ff0ff30b6e703f0d6ffb7
:102f300010b94ff0ff30b0e703f0caff9df803204f
:102f4000124903f090fe4ff0ff30a6e703f0c0fff8
:102f50000f4903f088fe4ff0ff309ee7022101a8e1
:102f6000fdf797ff0028b0d103f0b8ff10b94ff07c
:102f7000ff3092e703f0acff064903f074fe4ff018
:102f8000ff308ae7002088e788b9f026c4b9f02628
:102f9000fcb9f02634baf02610b582b00120fef755
:102fa00001f800240094234622462146cf20fff753
:102fb0003dfe2146cf20fff7e9fe0120fdf7f2ff9d
:102fc00002b010bd40f22513c2f2f1631b78012b51
:102fd00002d06ff00500704730b583b040f2251580
:102fe000c2f2f16500242c7000942346224621464b
:102ff000cf20fff71bfe2146cf20fff7c7fe01239e
:103000002b70204603b030bd40f22513c2f2f163ad
:1030100001221a70704740f22413c2f2f1630020bb
:103020001870704740f22513c2f2f1631b78012b30
:1030300003d06ff00502104670472de9f04f85b0c0
:103040000f46064640f22513c2f2f16300221a70c1
:10305000ff2895bf4ff0c4084ff0ca080125154658
:1030600009244ff004094bf6f80ac2f2f06a0af597
:10307000f47b0ce003f032ffb8bb03f02fff002815
:1030800051d1fff789ff013cb4f1ff3f54d00095c7
:103090004b46002231464046fff7c8fd0028e9d1e3
:1030a00029464046fff772fe38bb2a46494603a828
:1030b000fff7e2fe024660bb9df80d109df80e3052
:1030c0001b0443ea01239df80c100b439df80f10dd
:1030d00043ea01633b6040f22513c2f2f163012130
:1030e0001970104605b0bde8f08f03f0f1fe3246ce
:1030f0000af5bc7103f0b7fdbfe703f0effe00284f
:10310000bbd003f0e5fe32460af5d67103f0abfd05
:10311000b3e703f0e3fe0028afd003f0d9fe594631
:1031200003f0a1fda9e703f0d3fe334622460af5da
:10313000047103f098fda4e740f22513c2f2f16395
:1031400001221a706ff00502cbe700b583b001a928
:10315000fff768ff019803b05df804fb2de9f04725
:1031600082b040f22513c2f2f1631f78012f04d020
:103170006ff0050002b0bde8f0870e46044640f24d
:103180002513c2f2f16300221a7009254ff00109dc
:103190004bf6f808c2f2f06808f5187a0be003f075
:1031a0009dfed0b903f09afe50bbfff7f5fe013d3e
:1031b000b5f1ff3f2ed0302c35d9002300930423e6
:1031c00032462146c920fff731fd0028e7d1b4f58a
:1031d000a05f38d00021c92031e003f079fe2246fb
:1031e00008f50b7103f03ffddce703f077fe0028e4
:1031f000d8d003f06dfe2246514603f034fdd1e7ee
:1032000003f066fe009623462a4608f5287103f06f
:103210002afdcae740f22513c2f2f16301221a70b7
:103220006ff00500a6e7cdf8009004233246214652
:10323000c320fff7fbfc0028b1d13946c320fff7bc
:10324000a5fd0028d1d140f22513c2f2f16301227d
:103250001a7000208ee7000010b582b000220092a4
:1032600040f22413c2f2f1631a7069464ef624004c
:10327000fff7d8fe90bb40f22413c2f2f1631b7833
:103280008bb9009921f07c0141f0500100914ef67c
:103290002400fff763ff002844d140f22413c2f258
:1032a000f16301221a7001a94ff48050fff7bafeb2
:1032b0000446002844d103f011fe03284ed84ef6f0
:1032c0002400fff742ff20f0700141f050014ef65c
:1032d0002400fff743ff204602b010bd40f2241344
:1032e000c2f2f16301221a7003f0f8fd60b9694679
:1032f0004ef62400fff796fe0028bcd003f0eefd4a
:1033000040b96ff00504e6e703f0e2fd174903f06a
:10331000aafcece703f0dcfd154903f0a4fc6ff018
:103320000504d8e703f0dafd10b96ff00504d2e721
:1033300003f0cefd0f4903f096fc6ff00504cae7d9
:1033400003f0ccfd10b96ff00504c4e703f0c0fd35
:10335000094903f088fc6ff00504bce703f0b8fdf1
:10336000019a064903f07ffca9e700bfb8bbf0262d
:1033700010bcf02644bcf0267cbcf026a8bcf0268d
:103380002de9f04f85b000238df80c308df80d300d
:1033900040f22513c2f2f1631b78012b05d06ff0c8
:1033a0000503184605b0bde8f08f07468a46164665
:1033b00040f22513c2f2f16300221a70012e61d08f
:1033c0008846092500244bf6f809c2f2f06909f590
:1033d000896b0ce003f082fd60bb03f07ffd0028e9
:1033e00046d1fff7d9fd013db5f1ff3f4ed0009426
:1033f000334622463946c820fff718fc0028e9d199
:103400002146c820fff7c2fce0b9224631464046bb
:10341000fff732fd034608bb40f22512c2f2f1620b
:103420000121117003aa9045bbd19df80c208af8a8
:103430000020b6e703f04cfd3a4609f5747103f03d
:1034400012fccae703f04afd0028c6d003f040fd95
:103450003a4609f5816103f006fcbee703f03efd44
:103460000028bad003f034fd594603f0fcfbb4e762
:1034700003f02efd00963b462a4609f58f6103f0c6
:10348000f2fbaee70df10c0802269ae740f2251395
:10349000c2f2f16301221a706ff0050381e72de992
:1034a000f04f89b00490029240f22513c2f2f1630a
:1034b00093f80080b8f1010f06d06ff00503039375
:1034c000039809b0bde8f08f8b4640f22513c2f295
:1034d000f16300221a70029b012b08bf02230293a2
:1034e000092740f22419c2f2f1694bf6f80ac2f238
:1034f000f06a0af2cc53059380e003f0effc002859
:1035000073d003f0e5fc049a0af2944103f0abfb9c
:103510006be003f0e3fc002867d003f0d9fc049ac9
:103520000af2cc4103f09ffb5fe0b4f5005f8cbf73
:103530004346032363f00f038df81b3001210df187
:103540001b00fdf77efcf0b129460beb0600fdf7f2
:1035500078fc58b399f800309bb32e4436b2641b04
:10356000a4b2002c00f08f802546b4f5005f28bf80
:103570004ff40055adb2002ed7d0b4f5005f94bf24
:1035800003230223d6e703f0a9fc40b903f0a6fc0d
:1035900058b303f09dfc059903f065fb25e003f0ab
:1035a00097fc0af5a26103f05efbefe703f096fcdf
:1035b0000028ebd003f08cfc0af5aa6103f053fb62
:1035c000e4e7022107a8fdf73cfc0028c5d103f081
:1035d00085fc0028dad003f07bfc0af28c5103f062
:1035e00042fbd3e703f07afcf8b903f077fca8bb01
:1035f000fff7d2fc013fb7f1ff3f3ad00022009223
:10360000029b0499c720fff711fb00287ff475afd8
:103610000021c720fff7bafb039000287ff479afa1
:103620000026adf81c60029c9ee703f051fc0af2f4
:10363000fc5103f018fbd8e703f050fc0028d4d06d
:1036400003f046fc9df81e3000939df81d309df858
:103650001c200af5c56103f006fbc6e703f038fc41
:10366000029b0093049b3a460af58f6103f0fbfa34
:10367000bee740f22513c2f2f16301221a706ff027
:10368000050303931ce799f80030002b0cbf0224bc
:103690000324214607a8fdf7fcfb0028a2d008abb5
:1036a000234413f8053c002bc6d108ab1c4414f886
:1036b000063cc32bc0d140f22513c2f2f1630122b4
:1036c0001a70fde630b5a3b015466a2813d004463b
:1036d0006b2827d072283cd0742865d0762800f05b
:1036e000a280782800f0bd8003f0f8fb002840f0ad
:1036f000d68023b030bdc0ef500001ab43f90f0ab4
:103700000023102201a92846fef718f80028f0d15e
:1037100040f23c13c2f2f1631b68002be9d001a810
:103720009847e6e70023019304220deb02012846a7
:10373000fef704f80028dcd140f24013c2f2f16336
:103740001b68002bd5d09df805109df80400984704
:10375000cfe7c0ef1000cded010b0123082201a936
:103760002846fdf7ebff0028c3d19df8080030b9cb
:103770004cf60703c2f2f0639df809201a7040f27c
:103780003413c2f2f1631c68002cb2d04cf607036c
:10379000c2f2f063019a1978a04740f23413c2f2e2
:1037a000f16300221a60a4e7c0ef1000cded010b19
:1037b0000123082201a92846fdf7c0ff002898d15f
:1037c0009df80830b3b140f23413c2f2f1631c68c3
:1037d000002c8ed04cf60703c2f2f063019a1978e0
:1037e0009df80800a04740f23413c2f2f1630022b2
:1037f0001a607ee74cf60703c2f2f0639df80920d9
:103800001a7003f06bfb0128ddd903f061fb4cf665
:103810000703c2f2f0631a784cf25c01c2f2f06165
:1038200003f021facfe784242246002101a805f005
:10383000b8f80123224601a92846fdf77fff00289a
:103840007ff457af40f23813c2f2f1631b68002bcc
:103850003ff44fafbdf8042002a99df80600984739
:1038600047e700230193012304220deb02012846c0
:10387000fdf764ff00287ff43caf40f23013c2f242
:10388000f1631b68002b3ff434af9df804009847a8
:1038900040f23013c2f2f16300221a6029e703f00c
:1038a00017fb2246014903f0def922e780c0f0262b
:1038b00000b585b040f24013c2f2f163186040f2e7
:1038c0003c13c2f2f163196040f23413c2f2f163a7
:1038d0001a6043f2c561c2f2f0610420fdf79eff59
:1038e0000022029201920092134671210420fdf7fa
:1038f000f9fb05b05df804fb10b584b040f2281464
:10390000c2f2f164216062604cf60702c2f2f0621a
:10391000127882421ad1ff2a1bd0ebb11c46002339
:10392000029301930093082340f22812c2f2f1623d
:1039300075210420fdf7d6fb034620b940f238126a
:10394000c2f2f1621460184604b010bd6ff00e03ad
:10395000f9e76ff00e03f6e76ff00e03f3e70000f0
:103960002de9f041ff2866d0002967d09846174618
:103970000e460546fef790fd012844d140f248145a
:10398000c2f2f16423682bb140f24413c2f2f16336
:103990001b6863b940f24412c2f2f16240f248116e
:1039a000c2f2f161412000f0abfe044640bb40f2a0
:1039b0004814c2f2f16404222168304600f0c8ffc6
:1039c0000446e8b93378ab421ad140f24413c2f24c
:1039d000f1631b68bb4234d9434535d307eb08027a
:1039e000934234d940f24813c2f2f163196801f5e9
:1039f000805142463944304600f0aaff044680b95f
:103a00002046bde8f08103f069fa10b96ff00b04ad
:103a1000f6e703f05dfa0f4903f025f96ff00b04a8
:103a2000eee703f05bfa0028ead003f051fa0a4906
:103a300003f019f9e4e76ff00e04e1e76ff00e040c
:103a4000dee76ff00b04dbe76ff00b04d8e76ff0f5
:103a50000b04d5e7d8c0f02614c1f026f0b4002539
:103a60002e464ff0010c2f4601782e2920d009b3a5
:103a70000446634614f8012f2e2a27d032b30133af
:103a8000dbb2042bf6d100252846f0bc7047ff2b93
:103a900016d819b9032e3bd00025f5e7032e11d017
:103aa0001b0643ea15250136f6b2042edcd1ebe7fe
:103ab0000025e9e70025e7e70025e5e70025e3e73e
:103ac0000025e1e70025dfe70025dde7002bfbd03f
:103ad000441c012b01d93029f0d0013bdbb2a1f10c
:103ae0003002d2b2092ae7d8023318443b469a0082
:103af000134401eb4303303b9bb214f8011ba0427b
:103b0000c5d0a1f13002d2b2092af0d90025bbe715
:103b10001b0643ea1525b7e71046002a4ad00f2bab
:103b200040d92de9f04f83b00e68144604254ff0bc
:103b300030084ff0000b4cf6cd4eccf6cc4ecdf805
:103b400004804ff02e0922e05f46642106e004f86d
:103b5000012b0137ffb2092912d96146994223d8b6
:103b6000019a0132d2b25b1adbb29942f9d9aefbab
:103b700001acccf3c70c302ae9d1002febd0e6e73b
:103b8000012d0ad004f8019b360a013dedb216f072
:103b9000ff03d9d104f8018bf2e70023237003b0af
:103ba000bde8f08f00207047aefb012cccf3c70cb2
:103bb000019ae2e7704700002de9f04196b0144603
:103bc000412842d00d4654283fd042285bd043289c
:103bd00077d0442800f055824b2800f052825728b5
:103be00000f095824a2800f0ed80462800f006811a
:103bf000482800f04a814d2800f0fe80452800f05a
:103c0000ee81472800f021824c2800f0e6815228fe
:103c100036d1012314220deb02012046fdf78efd63
:103c200070bb40f21023c2f2f1631b68069a9a42fd
:103c300026d140f20023c2f2f1631b6803b39df862
:103c400024200799059898471ae00023042205a923
:103c50002046fdf773fd98b99df815308df80430b6
:103c600040f20823c2f2f1631b684bb140f2082313
:103c7000c2f2f1631b6801aa01219df91400984763
:103c800016b0bde8f0810023042205a92046fdf707
:103c900055fd0028f4d19df815308df8043040f220
:103ca0000823c2f2f1631b68002be9d040f208231d
:103cb000c2f2f1631b6801aa02219df91400984722
:103cc000dee700230c2201a92046fdf737fd00287e
:103cd000d6d19df90d20d3b20a2b37d89df90c10ff
:103ce00040f24c13c2f2f16303eb0111c97ac9b27d
:103cf00003eb0213d97201219972bdf80e10083935
:103d000089b2198140f20c23c2f2f16319880131a2
:103d100089b219801b889bb23bb940f20c21c2f2d8
:103d2000f1610b8801339bb20b8040f20c23c2f28d
:103d3000f163198889b240f24c13c2f2f16303ebcc
:103d40000213d98003f0caf803281ed89df80d305d
:103d50008df814300223adf81830bdf80630adf8f8
:103d60001a30029b079340f20823c2f2f1631b68ea
:103d7000002b85d040f20823c2f2f1631b6805aa2c
:103d800004219df90c0098477ae703f0a1f840f26e
:103d90000c23c2f2f1631b889df90d204cf2301107
:103da000c2f2f06102f05fffd0e79df8162040f20a
:103db0004c13c2f2f16303eb00139a739df81720c2
:103dc000da7394e10023442205a92046fdf7b6fcee
:103dd00000287ff455af40f20423c2f2f1631b6860
:103de000002b3ff44daf40f20423c2f2f1631b6895
:103df000159905a8984743e7062700e00627002302
:103e0000102201a92046fdf799fc00287ff438af65
:103e10009df91060f3b20a2b3ff632afbdf8128065
:103e200003f05cf8032832d840f24c13c2f2f1637d
:103e300003eb061300221a73bdf90c20bdf80e0027
:103e4000bdf80610adf81e1002990891db889bb2f0
:103e5000434540f09980002a01ddaa421edbadf8ff
:103e600018200023059340f20823c2f2f1631b6877
:103e7000002b3ff405af40f20823c2f2f1631b6848
:103e800005aa394630469847fae60927b7e703f00e
:103e90001ff84246a14902f0e6fec5e795b2adf82b
:103ea0001a5040f24c13c2f2f16332019b58002bbe
:103eb0003ff4e6ae40f24c13c2f2f16303eb06139b
:103ec0009b889bb2002b3ff4dbae40f24c13c2f256
:103ed000f16303eb06139b7adbb2012b7ff4d0aec8
:103ee00040f24c13c2f2f16303eb06139b88eb1a0a
:103ef0001bb2002b3add40f24c13c2f2f16303eb2c
:103f00000613b3f804801ffa88f840f24c13c2f28b
:103f1000f16332019958012342462044fdf70efc1b
:103f200030bb40f24c13c2f2f16332019818995839
:103f30000591adf81880bdf81a10a1eb0808adf88e
:103f40001a8000218180995040f20823c2f2f16367
:103f50001b68002b3ff494ae40f20823c2f2f163d9
:103f60001b6805aa39463046984789e6a846cce73b
:103f700002f0b4ff00283ff483ae02f0a9ff2a4606
:103f8000674902f070fe7be602f0a8ff032816d80e
:103f9000102d7ff675ae0123002211461046fdf765
:103fa000cdfb00283ff46cae02f098ff00283ff4f0
:103fb00067ae02f08dff5b4902f055fe60e602f04d
:103fc00087ff40f24c13c2f2f16303eb0613db8868
:103fd0004246554902f047fedae7072500e007258b
:103fe0000023082205a92046fdf7a8fb00287ff43e
:103ff00047ae9df91440e3b20a2b3ff641aebdf83f
:10400000186002f06bff032821d8bdf81630adf818
:10401000043040f24c13c2f2f16303eb0413db886b
:104020009bb2b3421ad140f20823c2f2f1631b687b
:10403000002b3ff425ae40f20823c2f2f1631b6867
:1040400001aa2946204698471ae60825c8e702f043
:104050003fff3246354902f006fed6e702f03eff4a
:1040600003287ff60dae02f033ff40f24c13c2f28c
:10407000f16303eb0413db8832462d4902f0f3fdb4
:10408000fee5c0ef1000cded050b0422002305a9cd
:104090002046fdf753fb00287ff4f2ad9df9140094
:1040a000c3b20a2b3ff6ecad8df804009df9152044
:1040b0008df8052040f24c13c2f2f16303eb0013bc
:1040c0001b899bb2002b0cbf05210a21002a7ff41b
:1040d0006caebdf81620083a92b240f24c13c2f210
:1040e000f16303eb00131a819df818205a7340f214
:1040f0000823c2f2f1631b68002b3ff4c1ad40f20c
:104100000823c2f2f1631b6801aa9847b8e5c0ef23
:104110001000cded050b0822b8e700bf4cc1f0261a
:104120006cc1f0269cc1f0267cc1f026b4c1f026fb
:10413000d4c1f02608b540f2fc13c2f2f1631b783b
:1041400003b108bdb022002140f24c10c2f2f16070
:1041500004f027fc43f6b931c2f2f0610220fdf70a
:104160005dfb40f2fc13c2f2f16301221a7040f2cf
:104170000c23c2f2f16300221a80e2e708b5b022f4
:10418000002140f24c10c2f2f16004f00afc002160
:104190000220fdf743fb40f20823c2f2f163002244
:1041a0001a6040f20423c2f2f1631a6040f2fc1379
:1041b000c2f2f1631a7008bd40f20823c2f2f16343
:1041c000186070472de9f04387b0022840f0eb807b
:1041d00001293ed0022940f0e98040f21525c2f2c3
:1041e000f1652878c0b22b78724c04eb03142b785d
:1041f00001335e4203f0030306f0030658bf734227
:10420000dbb22b70a37a002b78d0032740f2152560
:10421000c2f2f165dff89cc12878c0b22c780cebb3
:1042200004142b7801335e4203f0030306f0030607
:1042300058bf7342dbb22b70a37a002b5ed07b1e7b
:1042400013f0ff07e8d14ff0ff35284607b0bde86f
:10425000f08340f21425c2f2f1652878c0b22c78c0
:10426000e6b22b785c1c42f29343c9f2492383fbec
:10427000047323449b10072707fb1343dbb22b7007
:1042800040f24c13c2f2f16303eb06139b7a33b393
:10429000062540f21426c2f2f16642f2934cc9f2ae
:1042a000492c4ff0070e40f24c17c2f2f1673078fc
:1042b000c0b23478e4b2337803f101088cfb089380
:1042c00043449b100efb1383dbb2337007eb0413e4
:1042d0009b7a5bb1013d15f0ff05e8d1b3e740f2f1
:1042e0004c14c2f2f16404eb061405e040f24c13e6
:1042f000c2f2f16303eb041445b201e0073045b2aa
:10430000002da2dbc0ef500044f90f0a0123a37275
:1043100040f20c23c2f2f1631888013080b2188099
:104320001b889bb23bb940f20c20c2f2f1600388bb
:1043300001339bb2038017460e4640f20c23c2f2b3
:10434000f1631b889bb2e38002f0c8fd01281bd8f3
:10435000012e7ff47aaf002f3ff477af8df8145021
:104360000023029301930093042305aa5021022005
:10437000fcf7b8fe2123e372022f7ff466afe37ae5
:1043800043f08003e37260e702f0a2fd40f20c23e9
:10439000c2f2f1631b882a464cf23011c2f2f0617e
:1043a00002f061fcd4e74ff0ff354ee74ff0ff35e8
:1043b0004be700bfbc01f12610b588b000293cd006
:1043c000c3b20a2b3cd840f24c13c2f2f16303eba8
:1043d00000139b7adbb2012b35d1002a36d003467d
:1043e00040f24c12c2f2f16202eb0012d27a02f0f9
:1043f0000102002a8df81c0005aa0868496803c25a
:1044000040f24c10c2f2f16000eb0310c388adf82b
:104410001e304ff000030293019300934ff00c0302
:1044200005aa0cbf412154210220fcf75bfe0028a5
:1044300018bf6ff0080008b010bd6ff00500fae774
:104440006ff00500f7e76ff00500f4e76ff0050087
:10445000f1e7c3b20a2b29d840f24c13c2f2f16340
:1044600003eb00139b7adbb2012b22d100b587b09e
:104470008df814008df8151040f24c13c2f2f16360
:1044800003eb0010c388adf81630002302930193ac
:104490000093042305aa42210220fcf723fe0028f2
:1044a00018bf6ff0080007b05df804fb6ff005005f
:1044b00070476ff005007047c3b20a2b0dd840f269
:1044c0004c13c2f2f16303eb00139b7adbb2012bb6
:1044d00014bf6ff00500002070476ff005007047b3
:1044e000c3b20a2b54d8002955d0b2f5af6f55d8b6
:1044f00040f24c13c2f2f16303eb00139b7adbb280
:10450000012b4ed110b588b08df81000adf81220f7
:1045100040f24c13c2f2f16303eb0013db88adf8f9
:104520001c300728b4bf5024442440f24c13c2f27c
:10453000f16303eb0013db7a13f0010f13d040f2a9
:104540004c13c2f2f16303eb0013db7a13f0800f1c
:104550001cd140f24c13c2f2f16303eb001004894a
:10456000a4b24c2000e04520029401920091102357
:104570000deb030240f080010220fcf7b3fd0028a0
:104580000cbf00206ff00d0008b010bd4520ebe718
:104590006ff0050070476ff0050070476ff0050081
:1045a00070476ff00500704770b588b0c4b20a2c30
:1045b00048d8002949d0002a4ad040f24c14c2f20f
:1045c000f16404eb0014a47ae4b2012c43d140f26c
:1045d0004c14c2f2f1640601a519a151aa80297bed
:1045e00000293bd101242c73e97a11f0010f06d088
:1045f000e97a49b20029b4bf46214d2100e04621a5
:10460000002b08bf4ff0ff3305938df8180040f2e0
:104610004c13c2f2f16303eb0010c388adf81a30fb
:10462000adf81c2000230293019300930c2305aaec
:104630000220fcf757fd00280cbf00206ff00d0092
:1046400008b070bd6ff00500fae76ff00500f7e7fe
:104650006ff00500f4e76ff00500f1e70020efe7e9
:1046600010b586b0044602f039fc012839d8e3b20f
:104670000a2b3dd840f24c13c2f2f16303eb041352
:104680009b7adbb2012b36d18df8144040f24c13eb
:10469000c2f2f16303eb0413da88adf81620db7a7b
:1046a00003f00103002b4ff00003029301930093ea
:1046b0004ff0040305aa0cbf49214e210220fcf74c
:1046c00011fd002818bf6ff0080040f24c13c2f231
:1046d000f16303eb0414c0ef500044f90f0a06b075
:1046e00010bd02f0f5fb2246044902f0bcfabee719
:1046f0006ff00500f3e76ff00500f0e7f4c1f02676
:1047000000293dd02de9f04383b00e46002a3bd06e
:1047100014460546042241f24801684600f018f9a3
:10472000024628bb9df80030202b30d803b3013b54
:10473000dbb241f2540808ebc30841f24c074ff0da
:1047400008094a463946684600f002f9024678b937
:104750009df801109df8003043ea0123ab420bd1d4
:104760009df802301b0333609df803301b03236068
:10477000104603b0bde8f08308374745e1d1f7e7bd
:104780006ff00e02104670476ff00e02f0e76ff008
:104790000b02ede770b582b005460e46002301938b
:1047a00011464ff40270c0f20100fdf7bdf8044657
:1047b000310a01f47f41330203f47f03194341ead4
:1047c000066141f00b014ff40370c0f20100fdf7e8
:1047d000abf80444e4b2a5214ff40470c0f2010028
:1047e000fdf7a2f80444e4b21f214ff40570c0f2b3
:1047f0000100fdf799f80444e4b229464ff407702c
:10480000c0f20100fdf790f80444e4b285214ff4b2
:104810000170c0f20100fdf787f8044464b24ff460
:104820000675c0f2010501a92846fdf779f8044490
:1048300064b214b9019b012bf5d1204602b070bdc2
:1048400030b583b00546fdf750ffc0f30b00b0f55f
:10485000687f03d20024204603b030bd01a941f295
:104860001040fdf75df804460028f4d1019921f0cd
:10487000ee6121f4ee210191adb341f0887141f474
:104880008831019141f21040fdf74ef800214ff4bc
:104890000270c0f20100fdf747f8ab214ff403703e
:1048a000c0f20100fdf740f801214ff40570c0f29d
:1048b0000100fdf739f800214ff40770c0f2010044
:1048c000fdf732f881214ff40170c0f20100fdf7cd
:1048d0002bf84ff40675c0f201052846fdf71cf8c9
:1048e0000128fad1b7e700214ff40270c0f20100ad
:1048f000fdf71af8b9214ff40370c0f20100fdf77b
:1049000013f801214ff40570c0f20100fdf70cf817
:1049100000214ff40770c0f20100fdf705f8812176
:104920004ff40170c0f20100fcf7feff4ff4067572
:10493000c0f201052846fcf7efff0128fad10199e2
:1049400041f48031019141f21040fcf7edff82e724
:104950002de9f04105469046b2f5004f2ed9a2f55b
:104960000047013f27f4ff4727f07f0701f5004389
:104970001f440c464ff40046a1f5004188440fe067
:10498000324629464ff45020fcf7d2ff034680b947
:10499000a8eb040204f5004405f50045bc420bd029
:1049a000324621464ff45020fff7f4fe034600281c
:1049b000e6d01846bde8f0819046394642464ff4ad
:1049c0005020fff7e7fe03460028f2d14246294671
:1049d0004ff45020fcf7acff0346eae700b583b084
:1049e0004ff0ff33019301a902f019fe20b901989d
:1049f00002f03dfe0028fad003b05df804fb18b1c8
:104a0000012202700020704702207047b8b1f8b54b
:104a10000646402a15d8b1b114460d460746022372
:104a200007f8053b41220021384603f0baff224631
:104a30002946384603f0aaff34710020f8bd022051
:104a400070470220fae70220f8e7f8b5441e14f197
:104a5000030f00f296804468002c00f09480002937
:104a600000f0938084780cb90120f8bd1f461646eb
:104a70000d46044602f054fa2b781bb902f054faa2
:104a80000d20f2e7013b2b7002f04efa636803f150
:104a9000d40295422ed16a78ff2a2bd00022c3f887
:104aa000f8202eb1ee612f62069b2b61079b6b6194
:104ab000ab6913b12a69934225d963681b7913f056
:104ac000080f29d16a69ab68802a28bf802229692a
:104ad0006878fef711ff00284ad16368089ac3f886
:104ae000f82002f01dfa2b7801332b7002f01cfa2b
:104af0000020bae702f014fa2b7801332b7002f091
:104b000013fa0220b1e702f00bfa2b7801332b7075
:104b100002f00afa0220a8e70120fff791fea8b9e7
:104b2000079b069a31466878fef71aff0446002074
:104b3000fff786fe98b9002cd3d002f0f1f92b785c
:104b400001332b7002f0f0f908208ee702f0e8f94b
:104b50002b7801332b7002f0e7f9082085e702f08b
:104b6000dff92b7801332b7002f0def908207ce7a7
:104b700002f0d6f92b7801332b7002f0d5f908201a
:104b800073e7022071e702206fe702206de72de94d
:104b9000f043a7b0441e14f1030f23d844681cb39c
:104ba00021b384781cb9012027b0bde8f0831f46eb
:104bb00016460d4604460021284600f012f9b8b109
:104bc000ceb396f8009009f1ff33dbb2012b13d975
:104bd0000220e9e701a8fdf7cafb002800f09d804c
:104be0000820e1e70220dfe70220dde70220dbe723
:104bf0000920d9e70820d7e795f8208042462946c2
:104c000001a803f0c3fe26ab9844002308f8943ca7
:104c100095f828308df82530b9f1010f1bd002230b
:104c20008df8433032798df82720711d0df1490040
:104c300003f0acfe19e095f820603246294601a841
:104c400003f0a4fe26ab1e44002306f8943c95f81e
:104c500028308df8253001238df8433000238df85e
:104c600026308df827308df828306268d2f8b430bd
:104c70008df84530190a8df84610190c8df847103b
:104c80001b0e8df84830012382f8a1306368d3f8f9
:104c9000b420c3f8a4206268d2f8ac308df890300c
:104ca000190a8df89110190c8df892101b0e8df8c1
:104cb0009330d2f8b0308df88c30190a8df88d1001
:104cc000190c8df88e101b0e8df88f30d2f8a8308d
:104cd0008df89430190a8df89510190c8df89610ee
:104ce0001b0e8df8973095f829308df844302e9ba7
:104cf000c2f88c30002f3ff46daf394611f8012b0c
:104d000001a8fdf777fb00287ff474af63687a6c25
:104d1000c3f8c020636801225a73636801221a73c2
:104d2000002041e758b3034682793b2a29d84179cc
:104d30003b2928d80079172827d870b58cb0dd78a2
:104d40001f2d24d89e78741ee4b20b2c22d81b8809
:104d500040f26b74a34201d8002019e00192029145
:104d600003900495013e0596a3f26c73069301a887
:104d700004f020f8b0f1ff3f08bf002008e0002059
:104d800070470020704700207047002070470020c7
:104d90000cb070bd0020fbe730b4441e14f1030fcb
:104da0000ed8446874b1857875b1c4f8b410416800
:104db000c1f8b8304368c3f8a820002030bc704761
:104dc0000220fbe70220f9e70120f7e7b0f1ff3fff
:104dd00005d008b50846fff7eff9002008bd02200e
:104de0007047f0b1024690f828300f3bdbb2ef2b52
:104df00019d990f82000202817d892f82730d3b17d
:104e000030b402f121032732002413f8015b2c4354
:104e10009342fad15cb161b1003018bf012030bcbf
:104e20007047002070470020704700207047002026
:104e3000f5e70120f3e719b1003018bf01207047f2
:104e400001207047034668b10020c3f82100a3f891
:104e5000250083f8270083f8200083f8280083f8d2
:104e60002900704702207047c8b138b50446c1b167
:104e7000202a18d81546c0ef5000034643f90d0a02
:104e800043f90f0a03f082fd84f8205000212046e8
:104e9000fff7a7ff002814bf0020092038bd02201b
:104ea00070470220fae70220f8e708b570b1a1f1d7
:104eb0000f02d2b2ef2a0bd980f828100021fff799
:104ec00090ff002814bf0020092008bd0220fce745
:104ed0000220fae708b540f21833c2f2f1635b68ca
:104ee00043b3012814d042b222b3032822d8d3f806
:104ef000c83023b140f21830c2f2f160984740f256
:104f00001833c2f2f1635b680022c3f8c82011e0d5
:104f1000d3f8c43023b140f21830c2f2f1609847a0
:104f200040f21833c2f2f1635b68002283f8a020dc
:104f3000c3f8c42008bd002900f08380f0b59db0ff
:104f40000c4640f21833c2f2f1635b6873b101287a
:104f50000ed006280ad1d3f8cc303bb10a680392b0
:104f600003a940f21830c2f2f16098471db0f0bdbd
:104f7000d3f8d050002df9d00e784b6801938b6890
:104f800002936422002103a803f00bfd731e042b7f
:104f9000ecd8dfe803f003034d41490003afa4461a
:104fa0005cf80c0fdcf80410dcf80820dcf80c309e
:104fb0000fc7dcf81000dcf81410dcf81820dcf85f
:104fc0001c300fc70bafa4465cf82c0fdcf80410a4
:104fd000dcf80820dcf80c300fc7dcf81000dcf837
:104fe0001410dcf81820dcf81c300fc7b4f84c3073
:104ff000adf84c30b4f84e30adf84e3014af54f834
:10500000500f6168a268e3680fc720696169a269ef
:10501000e3690fc703ab0ce0a389adf80c30e3895b
:10502000adf80e3003ab04e0e368039303ab00e09c
:10503000002301aa314640f21830c2f2f160a847bd
:1050400094e77047002900f02582f0b5ebb00c46dc
:1050500040f21833c2f2f1635d68002d00f0d78092
:1050600004382e2800f2d380dfe810f0c201d1000e
:105070007d01d100d1002e01d100d100d100d1009d
:10508000d100d100d1002f00d1005000d100d100bb
:10509000d100d100d100d100d1001901d100d1003f
:1050a000d100d100d100d100d100d100d100d10078
:1050b000d100d100d100d100e000d100bf00d1006b
:1050c000d100d701d100d100fe00eb7b002b00f016
:1050d0009e800023eb7391f90130a3b90b786b74b8
:1050e0006bb9d5f88840002c00f0918000231a4657
:1050f000194640f21830c2f2f160a04787e0287ce0
:10510000fdf75cf983e000236b7480e00b4653f8f5
:10511000042f6a639b882b87012785f83a7005f175
:105120001306084650f80acf41688268c368c5f87c
:1051300013c0c5f81710c5f81b20c5f81f30d0f8ec
:1051400010c041698269c369c5f823c0c5f827103a
:10515000c5f82b20c5f82f3003f02bfc85f8330061
:1051600094f9013085f83d30a37885f83e30e37836
:1051700085f83b30af74d5f88840002c47d0297ca7
:10518000394433466a7cc9b240f21830c2f2f16049
:10519000a04740b940f21833c2f2f1635b680022c5
:1051a000c3f8882033e040f21833c2f2f1635b6841
:1051b0001c7c3c44e4b21c74fdf711f9844208d312
:1051c00040f21833c2f2f1635b680022c3f8882012
:1051d0001de040f21834c2f2f1646368187cfdf7f8
:1051e000edf8636800229a7411e00b78012b10d05f
:1051f00013b9ab7385f85430d5f88c503db140f2fb
:105200001830c2f2f160637822780146a8476bb08b
:10521000f0bdab7395f8a230002bedd1d5f8a430da
:10522000002be9d0012385f8a130e5e7d5f88c50b3
:10523000002decd091f900301733032b09d8dfe8ab
:1052400003f00a020406032306e0012304e0062318
:1052500002e0072300e0052340f21830c2f2f160bb
:1052600000220146a847d2e72b7b13b9012385f81a
:10527000a130e378a178090441ea03612378194356
:10528000637841ea0321c5f8a410d5f8b830002ba3
:10529000bdd040f21830c2f2f1609847b7e7084637
:1052a000fff740fd01460028b1d040f21833c2f2aa
:1052b000f1635b68d3f89030002ba8d040f218302f
:1052c000c2f2f1609847a2e7d5f8c030002b9ed01b
:1052d000084603f06efb02468df82c00c0ef50002c
:1052e00003ab43f90f0acded070bcded090b2146ba
:1052f000184603f04bfb94f862308df83830022bdf
:1053000013d094f8633040f21834c2f2f164d5f847
:10531000c050b3fa83f35b090eaa03a92046a8473d
:1053200063680022c3f8c02071e704f1210630460b
:1053300003f03ffb02468df83c000df13d00c0ef4d
:10534000500040f90f0a0df14d0343f90f0a0df11a
:105350005d0343f90f0a0df16d0343f90f0a31465e
:1053600003f014fbcde7084603f023fb024685f863
:10537000750005f15506c0ef500046f90f0a05f11a
:10538000650343f90f0a2146304603f0fffa94f80b
:10539000211085f8841094f8252094f824301b04fb
:1053a00043ea026394f82220134394f8232043ea4b
:1053b0000223ab6705f17c03224652f8260fe8670b
:1053c00092889a80012285f8822085f85420d5f8a9
:1053d0009450002d3ff41baf40f21830c2f2f16040
:1053e00094f92c200192009132460146a8470ee71d
:1053f00091f9002085f84e20d5f89830002b3ff425
:1054000006af40f21834c2f2f164214620469847b4
:1054100063680022c3f89820f9e6d5f89c30002b89
:105420003ff4f5ae03a8fff70dfda51c284603f0d9
:10543000c0fac2b2294603a8fff716fd617803a897
:10544000fff733fd2378012b0cd0022b18d040f24c
:105450001830c2f2f1604368d3f89c300022114644
:105460009847d4e60ea8fff7cafa40f21830c2f205
:10547000f1604368d3f89c300eaa03a99847c6e6aa
:105480002334204603f095fac2b221460ea8fff756
:10549000bdfaeae770472de9f04f87b0174640f2b2
:1054a0001832c2f2f162546874b10e4604f1d405a8
:1054b00068b1d4f8f8403cb103460222294640f2d4
:1054c0001830c2f2f160a04707b0bde8f08f01f0dc
:1054d00027fd94f8d43013b901f026fdf4e7013b21
:1054e00084f8d43001f020fdd4f8f030002b00f027
:1054f000b380d4f8e830bb42c0f0ae8017b3d4f824
:10550000f420974209d9bb464ff0000940f2183801
:10551000c2f2f168aa4605974de0bb4601e0554648
:10552000059f5a463146d4f8f00003f02ffad4f81c
:10553000f0305b44c4f8f030d4f8f430a3eb0b0344
:10554000c4f8f430d4f8e830db1bc4f8e830d4f801
:10555000e4203a44c4f8e420002b5cd001f0e0fce5
:1055600094f8d430013384f8d43001f0ddfc40f2fb
:105570001830c2f2f1604368d3f8f8300293002289
:105580000192009213462946fff75ffa9ce7013b20
:1055900084f8d43001f0c8fcd4f8f030bbb3d4f8b0
:1055a000f430002b53d0bbeb070b52d03e44d4f861
:1055b000f4205a45b3d23146d4f8f00003f0e6f9ae
:1055c000d4f8f470c4f8f090c4f8f490d8f804302b
:1055d000d3f8f830002be6d001f0a2fc94f8d430d8
:1055e000013384f8d43001f09ffcd8f80430d3f8ac
:1055f000f8504b46042251464046a84701f090fc23
:1056000094f8d430002bc2d101f08efc5ce75546f3
:105610000023c4f8e83001f083fc94f8d43001335f
:1056200084f8d43001f080fc40f21833c2f2f16308
:105630005b68d3f8f840002c3ff446af0023022209
:10564000294640f21830c2f2f160a0473ce75546c7
:10565000dee75546059f75e701f062fc94f8d4300b
:10566000013384f8d43001f05ffc2de738b540f207
:105670001832c2f2f162546894b1d4f8f8507db196
:105680000346032204f1d40140f21830c2f2f16063
:10569000a84701f045fc94f8d43013b901f044fc5c
:1056a00038bd013b84f8d43001f03efcff2384f880
:1056b000d5300023c4f8ec3001f032fc94f8d4303b
:1056c000013384f8d43001f02ffce9e7f8b540f25b
:1056d0001834c2f2f16464684cb117460d460646b0
:1056e00001f01efc94f8d43013b901f01dfcf8bd94
:1056f000013b84f8d43001f017fc36b1ff2384f865
:10570000d5300023c4f8ec3003e084f8d550c4f859
:10571000ec700023c4f8e430c4f8e830c4f8f0308a
:10572000c4f8f43001f0fcfb94f8d430013384f871
:10573000d43001f0f9fb40f21833c2f2f1635b6838
:10574000d3f8f850002dd2d03346012204f1d40111
:1057500040f21830c2f2f160a847c8e778bb40f2c7
:105760001833c2f2f1631b7823bb10b540f2182343
:10577000c2f2f16300221a711a655a7183f8fd2092
:1057800049b10c460868fbf7eefb626840f218234b
:10579000c2f2f1639a6040f21830c2f2f160012364
:1057a000037000228270437040f21823c2f2f1634a
:1057b000436010bd40f21830c2f2f16070474ff004
:1057c000ff307047431e13f1030f05d80388012be8
:1057d00005d090f9010070474ff0ff30704701206d
:1057e00070470000431e13f1030f00f24781f0b52c
:1057f00087b0044690f901300133032b00f23b815e
:10580000dfe813f01a010400270012010378002bcf
:1058100000f01281436893f8fd2012b1002283f852
:10582000fd2062680023137162685371fcf734fe37
:1058300002280ad0fef7a2fcfbf7a0fb6368986879
:10584000fbf7b6fa00232370f6e00020fcf77cfd9e
:10585000f0e743688bb101f041fb012810d8fbf75a
:1058600048fbfcf797fcd0b101f038fb88b96368be
:10587000f5225a71ff236370dee0ff234370dbe003
:1058800001f026fb4cf24021c2f2f06101f0ebf98d
:10589000e5e701f01dfb7a4901f0e5f9e7e7fcf7e0
:1058a000a4fd000c152805d06368f5225a71ff236a
:1058b0006370c1e0656801f033fb002385f8fc30bc
:1058c00001f032fb636899682046fbf75ffac0ef8e
:1058d000500002ab43f90f0a45f24503c2f2f063f0
:1058e000019301a8fcf764fc002840f08e80fef7cd
:1058f00021fc44f63770c2f2f060fcf789fe40f2fa
:105900001825c2f2f165002129736973a973e9733f
:10591000a974012685f83f60022785f840701e2390
:1059200085f8413085f84270d32385f843304ff431
:105930009673a5f84430a5f8461085f84e102965f1
:1059400085f85410c5f88810c5f88c10c5f890106b
:10595000c5f89410c5f89810c5f89c1085f8a010eb
:1059600085f8a11085f8a260c5f8a410c5f8a810a4
:10597000c5f8ac10c5f8b0104af6c003c0f20a135f
:10598000c5f8b430c5f8b810c5f8bc10c5f8c010db
:10599000c5f8c410c5f8c810c5f8cc10ff2385f8a9
:1059a000d530c5f8f01045f2cd62c2f2f062c5f80c
:1059b000d82045f29743c2f2f063c5f8dc3045f2d7
:1059c0006d63c2f2f063c5f8e030c5f8f81044f634
:1059d000d560c2f2f060fdf76bff01f0a1fa85f827
:1059e000d46001f0a1fa636883f8fd606068483014
:1059f000fcf7d2fc677001f071fab0421cd901f0db
:105a000067fa204901f02ff916e001f067fa28b98a
:105a10006368f4225a71ff2363700de001f058fab5
:105a2000194901f020f9f3e7456801f079fa95f892
:105a3000fc301bb901f078fa07b0f0bd013b85f8e6
:105a4000fc3001f071fa94f90130022bf4d1636853
:105a50001b7913f0080fefd1fcf785fc0028ebd081
:105a6000646801f05dfa94f8fc30013384f8fc308e
:105a700001f05afae0e7ff234370dde7704700bf0b
:105a800058c2f02694c2f02674c2f02638b5002819
:105a900040f0a78040f21833c2f2f1635b68002b3c
:105aa00000f0a28040f21832c2f2f1621278002aad
:105ab00000f09d8040f21832c2f2f162927852b149
:105ac0001b7940f21834c2f2f1648b4218bf4ff0d8
